:020000040000FA
:0608000080EF5AF0120027
:020806000100EF
:06080800A9EF3DF0120013
:02080E00C250D6
:08081000020B01E0010E1200D1
:0608180010EF12F01200C7
:02081E000B00CD
:10082000DFB50000170300000A000000DDB500007E
:100830003E03000002000000D8B5000027030000BE
:1008400005000000D4B500003403000004000000DF
:10085000BBB50000C702000019000000B9B50000D8
:100860003C03000002000000B5B5000030030000AA
:1008700004000000AFB500002103000006000000E6
:10088000ADB500003A030000020000008EB5000084
:10089000A80200001F000000060800003803000046
:0408A0000200000052
:0C08A400D9CFE6FFE1CFD9FF020EE1261C
:1008B000FD0EDBCFDEFFDBCFDDFFFB0EDBCF00F07D
:1008C000FC0EDBCF01F0DECF02F0DDCF03F00350F2
:1008D0000118E8AE02D0013404D00050025C01508F
:1008E000035805E2FB0EDBCFDEFFDBCFDDFFDECF03
:1008F00000F0DDCF01F000C0F3FF01C0F4FF00D035
:10090000D9CFE1FFE552E7CFD9FF1200D9CFE6FFFB
:10091000E1CFD9FFFD0EDBCF00F0FE0EDBCF01F003
:100920000001800E011410E0FD0EDBCF00F0FE0E82
:10093000DBCF01F0006C011E000E012200C0F3FFAE
:1009400001C0F4FF0CD00BD0FD0EDBCF00F0FE0E8B
:10095000DBCF01F000C0F3FF01C0F4FF00D0E5528F
:10096000E7CFD9FF1200D9CFE6FFE1CFD9FFFD0EC7
:10097000DBCF00F0FE0EDBCF01F0D890015004E693
:100980007F0E005C000E015815E2D950FD0FE96E94
:10099000FF0EDA20EA6EEE2A000EED22FD0EDBCF0E
:1009A00000F0FE0EDBCF01F000C0F3FF01C0F4FF4A
:1009B0002ED02DD0FD0EDBCF00F0FE0EDBCF01F0F0
:1009C000013404E200507F08000E015415E2D950B2
:1009D000FD0FE96EFF0EDA20EA6EEE06000EED5A0C
:1009E000FD0EDBCF00F0FE0EDBCF01F000C0F3FF09
:1009F00001C0F4FF0CD00BD0FD0EDBCF00F0FE0EDB
:100A0000DBCF01F000C0F3FF01C0F4FF00D0E552DE
:100A1000E7CFD9FF1200D9CFE6FFE1CFD9FFFE0E15
:100A2000DB5011E1FC0EDBCFE9FFFD0EDBCFEAFF6F
:100A3000EF507F0808E2FC0EDBCFE9FFFD0EDBCFB5
:100A4000EAFF7F0EEF6EE552E7CFD9FF1200D9CF54
:100A5000E6FFE1CFD9FFFE0EDB5013E1FC0EDBCF4A
:100A6000E9FFFD0EDBCFEAFFEFCF00F07F0E005C69
:100A700008E2FC0EDBCFE9FFFD0EDBCFEAFF7F0EC5
:100A8000EF6EE552E7CFD9FF1200D9CFE6FFE1CFF5
:100A9000D9FFFD0EDBCF00F0FE0EDBCF01F0D890CA
:100AA000015004E6D00E005C070E015806E2020178
:100AB000D00EF76F070EF86F19D0FD0EDBCF00F0E8
:100AC000FE0EDBCF01F0013404E20050CE08080E28
:100AD000015406E20201CE0EF76F080EF86F06D041
:100AE000FD0EDBCFF7F2FE0EDBCFF8F2F7C200F01F
:100AF000F8C201F0D00E005E070E015A005000D07F
:100B0000E552E7CFD9FF1200F00EE66EB4EC53F0D9
:100B1000E552938A93889386938499829980938EE1
:100B2000938C9A849A82998699849A8A9A889480D6
:100B30009A869A8E8C928D928C908D908C968D96B2
:100B40008C948D948C9A8D9A8C988D988C9E919083
:100B50008C9C8D9C9A9C919C02017F0E526F52C27C
:100B600051F252C250F252C24FF252C24EF252C22F
:100B70004DF252C24CF252C24BF25A6F5AC259F263
:100B80005AC258F25AC257F25AC256F25AC255F2D3
:100B90005AC254F25AC253F2010EE66EE66AE66E8B
:100BA000E66AE66EE66AE66EE66A08EC3FF0F56E27
:100BB000080EE15EF55002EC54F03DEC4EF056ECC0
:100BC0004EF00201010EC76F470EE66E020EE66E92
:100BD000C6EC3EF0E552E55253EF3EF0D9CFE6FFCA
:100BE000E1CFD9FF020EE126670EE66E020EE66E39
:100BF000ADEC3EF0E552E5520201C55104E1C651AB
:100C000002E1EEEC50F0DCEC35F00201C65102E1FD
:100C1000DDEC39F077EC3DF0020803E10201488594
:100C200002D0020148950201C50505E17DEC2BF0DB
:100C30000201C56F17D0C60505E1B6EC18F0020138
:100C4000C66F10D0CBEC39F0DF6E630EDF5C04E1D1
:100C50000201010EC56F06D0740EDF5C03E10201D4
:100C6000010EC66F28EC55F01CD85AC2E6FF59C2D7
:100C7000E6FF58C2E6FF57C2E6FF0EEC54F0E5521D
:100C8000E552E552E552470EE66E020EE66EC6EC00
:100C90003EF0E552E552D9CFE1FFE552E7CFD9FF6B
:100CA0001200D9CFE6FFE1CFD9FF300EE1260201D5
:100CB0006D51E66EE66A57DEE552E552F3CFF6FF78
:100CC000F4CFF7FFD890F636F736280EF626A40EA6
:100CD000F7220900F5CF00F00800F5CF01F000C0C1
:100CE00041F001C042F04AEC41F0100E40C0DBFF81
:100CF000110E41C0DBFF120E42C0DBFF130E43C0DA
:100D0000DBFF02017151E66EE66A2DDEE552E55227
:100D1000F3CFF6FFF4CFF7FFD890F636F736280E6C
:100D2000F626A40EF7220900F5CF00F00800F5CF53
:100D300001F000C041F001C042F04AEC41F0140E55
:100D400040C0DBFF150E41C0DBFF160E42C0DBFFCB
:100D5000170E43C0DBFF02017251E66EE66A03DE46
:100D6000E552E552F3CFF6FFF4CFF7FFD890F63611
:100D7000F736280EF626A40EF7220900F5CF00F06C
:100D80000800F5CF01F000C041F001C042F04AEC8C
:100D900041F0180E40C0DBFF190E41C0DBFF1A0EF8
:100DA00042C0DBFF1B0E43C0DBFF100EDBCF04F0A5
:100DB000110EDBCF05F0120EDBCF06F0130EDBCFEA
:100DC00007F0140EDBCF08F0150EDBCF09F0160E7E
:100DD000DBCF0AF0170EDBCF0BF008C045F009C0DF
:100DE00046F00AC047F00BC048F004C040F005C010
:100DF00041F006C042F007C043F05DEC41F040C056
:100E000000F041C001F042C002F043C003F0180EF0
:100E1000DBCF0CF0190EDBCF0DF01A0EDBCF0EF08E
:100E20001B0EDBCF0FF00CC045F00DC046F00EC01E
:100E300047F00FC048F000C040F001C041F002C0D0
:100E400042F003C043F05DEC41F040C0DEFF41C022
:100E5000DEFF42C0DEFF43C0DDFFDD52DD52100E7B
:100E6000DBCF04F0110EDBCF05F0120EDBCF06F066
:100E7000130EDBCF07F0140EDBCF08F0150EDBCF1F
:100E800009F0160EDBCF0AF0170EDBCF0BF008C00F
:100E900045F009C046F00AC047F00BC048F004C056
:100EA00040F005C041F006C042F007C043F05EECE0
:100EB00041F040C000F041C001F042C002F043C028
:100EC00003F0180EDBCF0CF0190EDBCF0DF01A0E6D
:100ED000DBCF0EF01B0EDBCF0FF00CC045F00DC0CA
:100EE00046F00EC047F00FC048F000C040F001C00F
:100EF00041F002C042F003C043F05EEC41F0040E4A
:100F000040C0DBFF050E41C0DBFF060E42C0DBFF29
:100F1000070E43C0DBFF100EDBCF04F0110EDBCF5A
:100F200005F0120EDBCF06F0130EDBCF07F0140E28
:100F3000DBCF08F0150EDBCF09F0160EDBCF0AF081
:100F4000170EDBCF0BF008C045F009C046F00AC011
:100F500047F00BC048F004C040F005C041F006C0A7
:100F600042F007C043F05DEC41F040C000F041C0EA
:100F700001F042C002F043C003F0180EDBCF0CF0CA
:100F8000190EDBCF0DF01A0EDBCF0EF01B0EDBCFF0
:100F90000FF00CC045F00DC046F00EC047F00FC07A
:100FA00048F000C040F001C041F002C042F003C070
:100FB00043F05EEC41F0080E40C0DBFF090E41C07B
:100FC000DBFF0A0E42C0DBFF0B0E43C0DBFF100E3F
:100FD000DBCF04F0110EDBCF05F0120EDBCF06F0F5
:100FE000130EDBCF07F0140EDBCF08F0150EDBCFAE
:100FF00009F0160EDBCF0AF0170EDBCF0BF008C09E
:1010000045F009C046F00AC047F00BC048F004C0E4
:1010100040F005C041F006C042F007C043F05EEC6E
:1010200041F040C000F041C001F042C002F043C0B6
:1010300003F0180EDBCF0CF0190EDBCF0DF01A0EFB
:10104000DBCF0EF01B0EDBCF0FF00CC045F00DC058
:1010500046F00EC047F00FC048F000C040F001C09D
:1010600041F002C042F003C043F05DEC41F00C0ED1
:1010700040C0DBFF0D0E41C0DBFF0E0E42C0DBFFA8
:101080000F0E43C0DBFFDECF40F0DECF41F0DECFFE
:1010900042F0DDCF43F0DD52DD524CEC43F041C075
:1010A00004F042C005F004C0E6FF05C0E6FF2EDCF8
:1010B000E552E552F3CF02F0F4CF03F002C0E6FFB1
:1010C00003C0E6FF7F0EE66EE66A52EC04F0E552DE
:1010D000E552E552E552F3CF00F0F4CF01F000C045
:1010E00041F001C042F04AEC41F01C0E40C0DBFF71
:1010F0001D0E41C0DBFF1E0E42C0DBFF1F0E43C0B2
:10110000DBFF040EDBCF40F0050EDBCF41F0060E17
:10111000DBCF42F0070EDBCF43F04CEC43F041C095
:1011200004F042C005F004C0E6FF05C0E6FF86EC0F
:1011300004F0E552E552F3CF02F0F4CF03F002C021
:10114000E6FF03C0E6FF1C0EDBCF40F01D0EDBCF39
:1011500041F01E0EDBCF42F01F0EDBCF43F04CEC14
:1011600043F041C006F042C007F006C0E6FF07C0EA
:10117000E6FF52EC04F0E552E552E552E552F3CFBA
:1011800000F0F4CF01F000C041F001C042F04AECA1
:1011900041F01C0E40C0DBFF1D0E41C0DBFF1E0EE8
:1011A00042C0DBFF1F0E43C0DBFF080EDBCF40F069
:1011B000090EDBCF41F00A0EDBCF42F00B0EDBCF86
:1011C00043F04CEC43F041C004F042C005F004C0D1
:1011D000E6FF05C0E6FF86EC04F0E552E552F3CFEA
:1011E00002F0F4CF03F002C0E6FF03C0E6FF1C0EDE
:1011F000DBCF40F01D0EDBCF41F01E0EDBCF42F007
:101200001F0EDBCF43F04CEC43F041C006F042C070
:1012100007F006C0E6FF07C0E6FF52EC04F0E55217
:10122000E552E552E552F3CF00F0F4CF01F000C0F3
:1012300041F001C042F04AEC41F01C0E40C0DBFF1F
:101240001D0E41C0DBFF1E0E42C0DBFF1F0E43C060
:10125000DBFF0C0EDBCF40F00D0EDBCF41F00E0EAE
:10126000DBCF42F00F0EDBCF43F04CEC43F041C03C
:1012700004F042C005F004C0E6FF05C0E6FF86ECBE
:1012800004F0E552E552F3CF02F0F4CF03F002C0D0
:10129000E6FF03C0E6FF1C0EDBCF40F01D0EDBCFE8
:1012A00041F01E0EDBCF42F01F0EDBCF43F04CECC3
:1012B00043F041C006F042C007F006C0E6FF07C099
:1012C000E6FF52EC04F0E552E552E552E552F3CF69
:1012D00000F0F4CF01F000C041F001C042F04AEC50
:1012E00041F01C0E40C0DBFF1D0E41C0DBFF1E0E97
:1012F00042C0DBFF1F0E43C0DBFFD9CFE9FFDACFCF
:10130000EAFFEECF04F0EECF05F0EECF06F0EFCF20
:1013100007F0456A466AFE0E476E420E486E04C0EC
:1013200040F005C041F006C042F007C043F047EC72
:1013300042F01C0EDBCF45F01D0EDBCF46F01E0E3B
:10134000DBCF47F01F0EDBCF48F0F4EC41F040C09C
:1013500000F041C001F042C002F043C003F000C001
:10136000DFFF010E01C0DBFF020E02C0DBFF030E38
:1013700003C0DBFF006A016AFE0E026EC20E036E3E
:10138000D9CFE9FFDACFEAFFEECF04F0EECF05F0D8
:10139000EECF06F0EFCF07F004C045F005C046F0F1
:1013A00006C047F007C048F000C040F001C041F05F
:1013B00002C042F003C043F07BEC43F0010A1EE0A0
:1013C000D9CFE9FFDACFEAFFEECF08F0EECF09F090
:1013D000EECF0AF0EFCF0BF0456A466AFE0E476E7D
:1013E000420E486E08C040F009C041F00AC042F009
:1013F0000BC043F07BEC43F0010A12E1910E006E4A
:101400006B0E016E026A00C0E6FF01C0E6FF02C07B
:10141000E6FF3EEC58F0E552E552E5522EEF0FF0B4
:10142000040EDBCF04F0050EDBCF05F0060EDBCF9C
:1014300006F0070EDBCF07F0456A466AFE0E476EE0
:10144000420E486E04C040F005C041F006C042F0B4
:1014500007C043F047EC42F01C0EDBCF45F01D0EF9
:10146000DBCF46F01E0EDBCF47F01F0EDBCF48F080
:10147000F4EC41F040C000F041C001F042C002F085
:1014800043C003F0040E00C0DBFF050E01C0DBFF0C
:10149000060E02C0DBFF070E03C0DBFF006A016A15
:1014A000FE0E026EC20E036E040EDBCF04F0050EBC
:1014B000DBCF05F0060EDBCF06F0070EDBCF07F023
:1014C00004C045F005C046F006C047F007C048F02C
:1014D00000C040F001C041F002C042F003C043F040
:1014E0007BEC43F0010A1EE0040EDBCF08F0050E92
:1014F000DBCF09F0060EDBCF0AF0070EDBCF0BF0D7
:10150000456A466AFE0E476E420E486E08C040F0BD
:1015100009C041F00AC042F00BC043F07BEC43F03D
:10152000010A12E16A0E006E6B0E016E026A00C0C3
:10153000E6FF01C0E6FF02C0E6FF3EEC58F0E552D0
:10154000E552E5522EEF0FF0080EDBCF04F0090E46
:10155000DBCF05F00A0EDBCF06F00B0EDBCF07F07A
:10156000456A466AFE0E476E420E486E04C040F061
:1015700005C041F006C042F007C043F047EC42F01E
:101580001C0EDBCF45F01D0EDBCF46F01E0EDBCF71
:1015900047F01F0EDBCF48F0F4EC41F040C000F004
:1015A00041C001F042C002F043C003F0080E00C089
:1015B000DBFF090E01C0DBFF0A0E02C0DBFF0B0ED2
:1015C00003C0DBFF006A016AFE0E026EC20E036EEC
:1015D000080EDBCF04F0090EDBCF05F00A0EDBCFDF
:1015E00006F00B0EDBCF07F004C045F005C046F057
:1015F00006C047F007C048F000C040F001C041F00D
:1016000002C042F003C043F07BEC43F0010A1EE04D
:10161000080EDBCF08F0090EDBCF09F00A0EDBCF96
:101620000AF00B0EDBCF0BF0456A466AFE0E476EE2
:10163000420E486E08C040F009C041F00AC042F0B6
:101640000BC043F07BEC43F0010A12E1430E006E45
:101650006B0E016E026A00C0E6FF01C0E6FF02C029
:10166000E6FF3EEC58F0E552E552E5522EEF0FF062
:101670000C0EDBCF04F00D0EDBCF05F00E0EDBCF32
:1016800006F00F0EDBCF07F0456A466AFE0E476E86
:10169000420E486E04C040F005C041F006C042F062
:1016A00007C043F047EC42F01C0EDBCF45F01D0EA7
:1016B000DBCF46F01E0EDBCF47F01F0EDBCF48F02E
:1016C000F4EC41F040C000F041C001F042C002F033
:1016D00043C003F00C0E00C0DBFF0D0E01C0DBFFAA
:1016E0000E0E02C0DBFF0F0E03C0DBFF006A016AB3
:1016F000FE0E026EC20E036E0C0EDBCF04F00D0E5A
:10170000DBCF05F00E0EDBCF06F00F0EDBCF07F0C0
:1017100004C045F005C046F006C047F007C048F0D9
:1017200000C040F001C041F002C042F003C043F0ED
:101730007BEC43F0010A1EE00C0EDBCF08F00D0E2F
:10174000DBCF09F00E0EDBCF0AF00F0EDBCF0BF074
:10175000456A466AFE0E476E420E486E08C040F06B
:1017600009C041F00AC042F00BC043F07BEC43F0EB
:10177000010A11E11C0E006E6B0E016E026A00C0C0
:10178000E6FF01C0E6FF02C0E6FF3EEC58F0E5527E
:10179000E552E55263D3D9CFE9FFDACFEAFFEECFC6
:1017A00000F0EECF01F0EECF02F0EFCF03F0456A8C
:1017B000466AFE0E476E420E486E00C040F001C001
:1017C00041F002C042F003C043F05EEC41F04CEC4B
:1017D00043F0280E41C0DBFF290E42C0DBFF006A48
:1017E000016AFE0E026E420E036E040EDBCF04F0A1
:1017F000050EDBCF05F0060EDBCF06F0070EDBCFC4
:1018000007F004C045F005C046F006C047F007C029
:1018100048F000C040F001C041F002C042F003C0F7
:1018200043F05DEC41F04CEC43F02A0E41C0DBFF8D
:101830002B0E42C0DBFF080EDBCF00F0090EDBCF22
:1018400001F00A0EDBCF02F00B0EDBCF03F0456A8E
:10185000466AFE0E476E420E486E00C040F001C060
:1018600041F002C042F003C043F05EEC41F04CECAA
:1018700043F02C0E41C0DBFF2D0E42C0DBFF006A9F
:10188000016AFE0E026E420E036E0C0EDBCF04F0F8
:101890000D0EDBCF05F00E0EDBCF06F00F0EDBCF0B
:1018A00007F004C045F005C046F006C047F007C089
:1018B00048F000C040F001C041F002C042F003C057
:1018C00043F05DEC41F04CEC43F02E0E41C0DBFFE9
:1018D0002F0E42C0DBFF280EDBCF00F0290EDBCF3E
:1018E00001F0013404E200507F08000E015420E2B0
:1018F000280EDBCF02F0290EDBCF03F0D890035087
:1019000004E6B40E025C000E035812E20C0EE76E01
:10191000280EDBCF00F0290EDBCF01F0E7500026C8
:10192000000E0122280E00C0DBFF290E01C0DBFFE4
:101930002A0EDBCF00F02B0EDBCF01F0013404E2E6
:1019400000507F08000E015420E22A0EDBCF02F087
:101950002B0EDBCF03F0D890035004E6B40E025CEC
:10196000000E035812E20C0EE76E2A0EDBCF00F0D9
:101970002B0EDBCF01F0E7500026000E01222A0ECD
:1019800000C0DBFF2B0E01C0DBFF2C0EDBCF00F015
:101990002D0EDBCF01F0013404E200507F08000E71
:1019A000015420E22C0EDBCF02F02D0EDBCF03F032
:1019B000D890035004E6B40E025C000E035812E205
:1019C0000C0EE76E2C0EDBCF00F02D0EDBCF01F0FE
:1019D000E7500026000E01222C0E00C0DBFF2D0E6A
:1019E00001C0DBFF2E0EDBCF00F02F0EDBCF01F0AE
:1019F000013404E200507F08000E015420E22C0E56
:101A0000DBCF02F02D0EDBCF03F0D890035004E6BD
:101A1000B40E025C000E035812E20C0EE76E2E0E9E
:101A2000DBCF00F02F0EDBCF01F0E7500026000ED9
:101A300001222E0E00C0DBFF2F0E01C0DBFF280E9F
:101A4000DBCF4BF22A0EDBCF4CF22C0EDBCF4DF26C
:101A50002E0EDBCF4EF202016951100B01E0010E98
:101A60000201B66FB76BB851B9111AE1B851B6257A
:101A7000006EB951B721016E010E001801E101504D
:101A80000FE1BA07000EBB5BBAC2E6FFBBC2E6FFBE
:101A900086EC04F0E552E552F3CFBAF2F4CFBBF294
:101AA000B6C2B8F2B7C2B9F20201BA51010BF36E75
:101AB000FE0E8D14F3108D6E8C9002016951200B77
:101AC00001E0010E0201A86FA96BAC51AD1131E12B
:101AD000AC51A825006EAD51A921016E010E001870
:101AE00001E1015026E1AA2B000EAB23AAC200F0AF
:101AF000ABC201F0020E466E476A00C041F001C061
:101B000042F0B4EC42F03DC000F03EC001F0010EE6
:101B1000001801E1015007E1010E0201BC6FBD6B2D
:101B2000BE6BBF6B06D00201BC6BBD6B010EBE6FFE
:101B3000BF6B81B402D0BE6BBF6B81B802D0BC6BEF
:101B4000BD6BA8C2ACF2A9C2ADF2BC51010BF36EE1
:101B5000F346FD0E8D14F3108D6EBE51010BF36E26
:101B6000F346FD0E8C14F3108C6E02016951400B8C
:101B700001E0010E0201AE6FAF6BB051B11114E183
:101B8000B051AE25006EB151AF21016E010E0018AB
:101B900001E1015009E18150400B06E0C26BC36BCB
:101BA000010EC06FC16B02D081BC00D0C06BC16B95
:101BB000AEC2B0F2AFC2B1F202016951800B01E0D6
:101BC000010E0201B26FB36BB451B51114E1B451FF
:101BD000B225006EB551B321016E010E001801E16E
:101BE000015009E18750010B06E0010EC26FC36B83
:101BF000C06BC16B04D087B002D0C26BC36BB2C2E2
:101C0000B4F2B3C2B5F2C251010BF36EF346F34620
:101C1000FB0E8D14F3108D6EC051010BF36EF34665
:101C2000F346FB0E8C14F3108C6E87A403D08D96B4
:101C30008C9602D08D868C96020168BBBDD0000EBA
:101C40006D5D07E36D51380804E302014791478356
:101C50002DD07D0E6D5D0EE36D51006E016A013475
:101C600004E200508108000E015404E302014781A0
:101C700047831CD06D51006E016AD890015004E674
:101C8000D80E005C000E01580EE36D51026E036A1F
:101C9000033404E20250FF08000E035404E302017F
:101CA0004781479303D0020147914793000E0201F9
:101CB0006E5D07E36E51380804E3020147954787DC
:101CC0002DD07D0E6E5D0EE36E51006E016A013403
:101CD00004E200508108000E015404E3020147852C
:101CE00047871CD06E51006E016AD890015004E6FF
:101CF000D80E005C000E01580EE36E51026E036AAE
:101D0000033404E20250FF08000E035404E302010E
:101D10004785479703D0020147954797479B8D50CA
:101D2000010B01E0478B47998C50010B01E047897B
:101D3000479F8D50020B01E0478F479D8C50020B4F
:101D400001E0478D8150040B01E0010E006E016A35
:101D50000050011002E0000E01D0010E010BF36EE5
:101D6000FE0E4815F310486F8150080B01E0010E7C
:101D7000006E016A0050011002E0000E01D0010E59
:101D8000010BF36EF346FD0E4815F310486F8150BA
:101D9000100B01E0010E006E016A0050011002E01C
:101DA000000E01D0010E010BF36EF346F346FB0E5D
:101DB0004815F310486F52D07EC242F037EC41F024
:101DC00040C008F041C009F042C00AF043C00BF027
:101DD000710E456E3D0E466E7A0E476E410E486E90
:101DE00008C040F009C041F00AC042F00BC043F007
:101DF00047EC42F040C004F041C005F042C006F09C
:101E000043C007F0456A466A800E476E430E486E2F
:101E100004C040F005C041F006C042F007C043F0E6
:101E2000F4EC41F040C000F041C001F042C002F0CB
:101E300043C003F0456A466A200E476E410E486E65
:101E400000C040F001C041F002C042F003C043F0C6
:101E500047EC42F025EC43F042C047F2D9CFE1FF16
:081E6000E552E7CFD9FF1200A3
:081E6800D9CFE6FFE1CFD9FF5D
:101E7000040EE126FD0EDBCF41F0FE0EDBCF42F07B
:101E80004AEC41F040C000F041C001F042C002F015
:101E900043C003F0250E456EA50E466ECA0E476E72
:101EA0003B0E486E00C040F001C041F002C042F05D
:101EB00003C043F047EC42F040C0DEFF41C0DEFF0C
:101EC00042C0DEFF43C0DDFFDD52DD52DECF3FF01A
:101ED000DECF40F0DECF41F0DDCF42F0DD52DD520B
:101EE00000D0D9CFE1FFE552E7CFD9FF1200D9CF1B
:101EF000E6FFE1CFD9FFFB0EDBCF00F0FC0EDBCF1E
:101F000001F0FD0EDBCF02F0FE0EDBCF03F0456AE1
:101F1000466A7E0E476E430E486E00C040F001C018
:101F200041F002C042F003C043F07BEC43F0010AF1
:101F300026E1FB0EDB6AFC0EDB6A7E0EF36EFD0E05
:101F4000F3CFDBFF430EF36EFE0EF3CFDBFFFB0E92
:101F5000DBCF40F0FC0EDBCF41F0FD0EDBCF42F0DB
:101F6000FE0EDBCF43F04CEC43F041C000F042C02A
:101F700001F000C0F3FF01C0F4FF54D053D0FB0EBA
:101F8000DBCF00F0FC0EDBCF01F0FD0EDBCF02F06B
:101F9000FE0EDBCF03F0456A466A476A486A00C016
:101FA00040F001C041F002C042F003C043F084ECB5
:101FB00043F0010A20E1FB0EDB6AFC0EDB6AFD0E3A
:101FC000DB6AFE0EDB6AFB0EDBCF40F0FC0EDBCFE4
:101FD00041F0FD0EDBCF42F0FE0EDBCF43F04CECC8
:101FE00043F041C000F042C001F000C0F3FF01C067
:101FF000F4FF18D017D0FB0EDBCF40F0FC0EDBCF88
:1020000041F0FD0EDBCF42F0FE0EDBCF43F04CEC97
:1020100043F041C000F042C001F000C0F3FF01C036
:10202000F4FF00D0E552E7CFD9FF1200D9CFE6FF89
:10203000E1CFD9FF020EE1260C68C20E0D6E9A0E9A
:102040000E6E390E0F6E0CC0E6FF0DC0E6FF0EC01F
:10205000E6FF0FC0E6FFE66AE66A400EE66EE66E51
:10206000D950FB0FE96EFF0EDA20EA6EEECFE6FFE5
:10207000EECFE6FFEECFE6FFEFCFE6FFE6EC25F092
:10208000F56E080EE15EF550E552E7CF0FF0E55230
:10209000E7CF0EF0E552E7CF0DF0E552E7CF0CF0B9
:1020A0003FC010F040C011F041C012F042C013F028
:1020B00010C045F011C046F012C047F013C048F000
:1020C0000CC040F00DC041F00EC042F00FC043F014
:1020D00047EC42F040C008F041C009F042C00AF0AD
:1020E00043C00BF0340E186EF50E196E080E1A6E02
:1020F000BD0E1B6E08C0E6FF09C0E6FF0AC0E6FF82
:102100000BC0E6FF18C0E6FF19C0E6FF1AC0E6FFE5
:102110001BC0E6FFE66AE66AE66A400EE66ED95044
:10212000FB0FE96EFF0EDA20EA6EEECFE6FFEECF90
:10213000E6FFEECFE6FFEFCFE6FFE6EC25F0F56E2B
:10214000080EE15EF550E552E7CF1BF0E552E7CF10
:102150001AF0E552E7CF19F0E552E7CF18F0E55253
:10216000E7CF0BF0E552E7CF0AF0E552E7CF09F0F1
:10217000E552E7CF08F03FC01CF040C01DF041C061
:102180001EF042C01FF01CC045F01DC046F01EC02E
:1021900047F01FC048F018C040F019C041F01AC005
:1021A00042F01BC043F047EC42F040C014F041C085
:1021B00015F042C016F043C017F014C045F015C02A
:1021C00046F016C047F017C048F008C040F009C0FC
:1021D00041F00AC042F00BC043F05EEC41F040C059
:1021E00004F041C005F042C006F043C007F05C0EA9
:1021F000406EA40E416EF10E426E3F0E436EFB0E1A
:10220000DBCF45F0FC0EDBCF46F0FD0EDBCF47F019
:10221000FE0EDBCF48F047EC42F040C020F041C05A
:1022200021F042C022F043C023F020C045F021C07D
:1022300046F022C047F023C048F004C040F005C07B
:1022400041F006C042F007C043F05EEC41F040C0F0
:1022500000F041C001F042C002F043C003F0230E81
:10226000456EA10E466ECF0E476E420E486E00C000
:1022700040F001C041F002C042F003C043F05EEC08
:1022800041F04CEC43F041C0DEFF42C0DDFF000EE8
:10229000DFCF41F0010EDBCF42F04AEC41F040C00D
:1022A00000F041C001F042C002F043C003F000C0A2
:1022B000E6FF01C0E6FF02C0E6FF03C0E6FF17DE4F
:1022C000E552E552E552E552F3CFDEFFF4CFDDFFF4
:1022D000DECF00F0DDCF01F000C0F3FF01C0F4FF5E
:1022E00000D0D9CFE1FFE552E7CFD9FF1200D9CF17
:1022F000E6FFE1CFD9FFFD0EDBCF00F0FE0EDBCF16
:1023000001F0D890015004E68E0E005C000E0158DA
:1023100008E38E0EF36EFD0EF3CFDBFFFE0EDB6ADD
:1023200014D0FD0EDBCF00F0FE0EDBCF01F0013448
:1023300004E200507008000E015407E3700EF36EC3
:10234000FD0EF3CFDBFFFE0EDB6AFD0EDBCF00F0F0
:10235000FE0EDBCF01F0013404E200507F08000ED6
:1023600001540AE2D950FD0FE96EFF0EDA20EA6E41
:102370000C0EEE26000EED22FD0EDBCF00F0FE0E61
:10238000DBCF01F000C0F3FF01C0F4FF00D0E55245
:10239000E7CFD9FF1200D9CFE6FFE1CFD9FFFD0E7D
:1023A000DBCF00F0FE0EDBCF01F0D890015004E649
:1023B000840E005C000E015808E3980EF36EFD0ECB
:1023C000F3CFDBFFFE0EDB6A1CD0FD0EDBCF00F08F
:1023D000FE0EDBCF01F0013404E200507A08000E5B
:1023E000015408E3660EF36EFD0EF3CFDBFFFE0E25
:1023F000DB6A07D07F0EF36EFD0EF3CFDBFFFE0E20
:10240000DB6AFD0EDBCF00F0FE0EDBCF01F000C07B
:10241000F3FF01C0F4FF00D0E552E7CFD9FF12006F
:10242000D8CFE4FFE0CFE4FFE46EDACFE4FFE2CF01
:10243000DAFFE9CFE4FFEACFE4FFF3CFE4FFF4CF24
:10244000E4FF00EE00F0240EE80403E3EECFE4FF27
:10245000FBD7E6529E50200B06E09D50200B03E078
:102460001DEC4FF01AD0A450200B06E0A350200B17
:1024700003E03CEC4FF011D09E50100B06E09D5055
:10248000100B03E05BEC4FF008D0A450100B05E0FC
:10249000A350100B02E073EC4FF0E55200EE23F076
:1024A000240EE80403E3E5CFEDFFFBD7E5CFF4FF0F
:1024B000E5CFF3FFE5CFEAFFE5CFE9FFE5CFDAFFB0
:1024C000E550E5CFE0FFE5CFD8FF1000D9CFE6FF1C
:1024D000E1CFD9FF1E0EE12602017F0E526F52C2DC
:1024E00051F252C250F252C24FF252C24EF252C296
:1024F0004DF252C24CF252C24BF25A6F5AC259F2CA
:102500005AC258F25AC257F25AC256F25AC255F239
:102510005AC254F25AC253F28C928D928C908D9082
:102520008C968D968C948D948C9A8D9A8C988D988F
:102530008C9E91908C9C8D9C020168ADA7EF18F049
:10254000020187A1A5EF18F0670EE66E020EE66E97
:10255000ADEC3EF0E552E552DCEC35F0DDEC39F067
:1025600077EC3DF0020803E10201488502D0020148
:10257000489577EC3DF0020806E077EC3DF0010865
:1025800002E07FEF18F002015951E66EE66AAFDE15
:10259000E552E552040EF3CFDBFF050EF4CFDBFF6F
:1025A000006A016A400E026E420E036E00C0E6FF32
:1025B00001C0E6FF02C0E6FF03C0E6FF00C0E6FF81
:1025C00001C0E6FF02C0E6FF03C0E6FF02015A5168
:1025D000E66EE66A49DCE552E552E552E7CF03F0E4
:1025E000E552E7CF02F0E552E7CF01F0E552E7CF41
:1025F00000F03FC008F040C009F041C00AF042C0FE
:102600000BF008C0E6FF09C0E6FF0AC0E6FF0BC0FA
:10261000E6FF02EC4AF0E552E552E552E552E5529A
:10262000E7CF03F0E552E7CF02F0E552E7CF01F044
:10263000E552E7CF00F03FC004F040C005F041C0D4
:1026400006F042C007F004C045F005C046F006C0E1
:1026500047F007C048F000C040F001C041F002C0A0
:1026600042F003C043F0F4EC41F040C0DEFF41C053
:10267000DEFF42C0DEFF43C0DDFFDD52DD52750EDE
:102680000201595D0AE35951006E016A013404E206
:1026900000508908000E015409E2040EDBCF4BF212
:1026A000DBCF4CF2DBCF4DF2DBCF4EF2D9CFE9FFDF
:1026B000DACFEAFFEECF00F0EECF01F0EECF02F07E
:1026C000EFCF03F0456A466AC00E476E410E486E72
:1026D00000C040F001C041F002C042F003C043F02E
:1026E00084EC43F0010A02E150EF18F00201595165
:1026F000750802E350EF18F05951046E056AD8903E
:10270000055004E6890E045C000E055802E350EF04
:1027100018F0D9CFE9FFDACFEAFFEECFE6FFEECF30
:10272000E6FFEECFE6FFEFCFE6FF80DCE552E552B5
:10273000E552E552060EF3CFDBFF070EF4CFDBFFC9
:1027400002015951E66EE66A26DEE552E552080EB0
:10275000F3CFDBFF090EF4CFDBFF060EDBCF04F077
:10276000070EDBCF05F0040EDB50045C026E050E95
:10277000DB500558036E080EDB50025C006E090E3C
:10278000DB500358016E00C041F001C042F04AEC3A
:1027900041F00E0E40C0DBFF0F0E41C0DBFF100EFC
:1027A00042C0DBFF110E43C0DBFF060EDBCF04F09F
:1027B000070EDBCF05F0FE0ED8800456000E05563E
:1027C000040EDB500424026E050EDB500520036E60
:1027D000080EDB500224006E090EDB500320016E50
:1027E00000C041F001C042F04AEC41F0120E40C07E
:1027F000DBFF130E41C0DBFF140E42C0DBFF150EE2
:1028000043C0DBFF060EDBCF04F0070EDBCF05F085
:10281000040EDB50045C026E050EDB500558036E9F
:10282000080EDB500224006E090EDB500320016EFF
:1028300000C041F001C042F04AEC41F0160E40C029
:10284000DBFF170E41C0DBFF180E42C0DBFF190E85
:1028500043C0DBFF060EDBCF04F0070EDBCF05F035
:10286000FE0ED8800456000E0556040EDB500424DC
:10287000026E050EDB500520036E080EDB50025C75
:10288000006E090EDB500358016E00C041F001C01C
:1028900042F04AEC41F01A0E40C0DBFF1B0E41C073
:1028A000DBFF1C0E42C0DBFF1D0E43C0DBFF0E0E24
:1028B000DBCF40F00F0EDBCF41F0100EDBCF42F04C
:1028C000110EDBCF43F04CEC43F041C004F042C0AA
:1028D00005F004C0E6FF05C0E6FF86EC04F0E55213
:1028E000E552F3CF02F0F4CF03F002C0E6FF03C0DD
:1028F000E6FF7F0EE66EE66A52EC04F0E552E55222
:10290000E552E552F3CF00F0F4CF01F000C041F002
:1029100001C042F04AEC41F00A0E40C0DBFF0B0E52
:1029200041C0DBFF0C0E42C0DBFF0D0E43C0DBFFDE
:10293000120EDBCF40F0130EDBCF41F0140EDBCFD5
:1029400042F0150EDBCF43F04CEC43F041C004F0F5
:1029500042C005F004C0E6FF05C0E6FF86EC04F0C7
:10296000E552E552F3CF02F0F4CF03F002C0E6FFE8
:1029700003C0E6FF0A0EDBCF40F00B0EDBCF41F0C9
:102980000C0EDBCF42F00D0EDBCF43F04CEC43F0EE
:1029900041C006F042C007F006C0E6FF07C0E6FFF0
:1029A00052EC04F0E552E552E552E552F3CF00F067
:1029B000F4CF01F000C041F001C042F04AEC41F018
:1029C0000A0E40C0DBFF0B0E41C0DBFF0C0E42C005
:1029D000DBFF0D0E43C0DBFF160EDBCF40F0170E02
:1029E000DBCF41F0180EDBCF42F0190EDBCF43F006
:1029F0004CEC43F041C004F042C005F004C0E6FFD7
:102A000005C0E6FF86EC04F0E552E552F3CF02F094
:102A1000F4CF03F002C0E6FF03C0E6FF0A0EDBCFEF
:102A200040F00B0EDBCF41F00C0EDBCF42F00D0E71
:102A3000DBCF43F04CEC43F041C006F042C007F05E
:102A400006C0E6FF07C0E6FF52EC04F0E552E5528F
:102A5000E552E552F3CF00F0F4CF01F000C041F0B1
:102A600001C042F04AEC41F00A0E40C0DBFF0B0E01
:102A700041C0DBFF0C0E42C0DBFF0D0E43C0DBFF8D
:102A80001A0EDBCF40F01B0EDBCF41F01C0EDBCF6C
:102A900042F01D0EDBCF43F04CEC43F041C004F09C
:102AA00042C005F004C0E6FF05C0E6FF86EC04F076
:102AB000E552E552F3CF02F0F4CF03F002C0E6FF97
:102AC00003C0E6FF0A0EDBCF40F00B0EDBCF41F078
:102AD0000C0EDBCF42F00D0EDBCF43F04CEC43F09D
:102AE00041C006F042C007F006C0E6FF07C0E6FF9F
:102AF00052EC04F0E552E552E552E552F3CF00F016
:102B0000F4CF01F000C041F001C042F04AEC41F0C6
:102B10000A0E40C0DBFF0B0E41C0DBFF0C0E42C0B3
:102B2000DBFF0D0E43C0DBFF0E0EDBCF04F00F0EFC
:102B3000DBCF05F0100EDBCF06F0110EDBCF07F078
:102B4000456A466AFE0E476E420E486E04C040F06B
:102B500005C041F006C042F007C043F047EC42F028
:102B60000A0EDBCF45F00B0EDBCF46F00C0EDBCFB1
:102B700047F00D0EDBCF48F0F4EC41F040C000F020
:102B800041C001F042C002F043C003F00E0E00C08D
:102B9000DBFF0F0E01C0DBFF100E02C0DBFF110ECA
:102BA00003C0DBFF120EDBCF04F0130EDBCF05F00A
:102BB000140EDBCF06F0150EDBCF07F0456A466A30
:102BC000FE0E476E420E486E04C040F005C041F054
:102BD00006C042F007C043F047EC42F00A0EDBCFDC
:102BE00045F00B0EDBCF46F00C0EDBCF47F00D0EA1
:102BF000DBCF48F0F4EC41F040C000F041C001F000
:102C000042C002F043C003F0120E00C0DBFF130EFF
:102C100001C0DBFF140E02C0DBFF150E03C0DBFF9B
:102C2000160EDBCF04F0170EDBCF05F0180EDBCF4E
:102C300006F0190EDBCF07F0456A466AFE0E476EB6
:102C4000420E486E04C040F005C041F006C042F09C
:102C500007C043F047EC42F00A0EDBCF45F00B0E05
:102C6000DBCF46F00C0EDBCF47F00D0EDBCF48F08C
:102C7000F4EC41F040C000F041C001F042C002F06D
:102C800043C003F0160E00C0DBFF170E01C0DBFFD0
:102C9000180E02C0DBFF190E03C0DBFF1A0EDBCFDC
:102CA00004F01B0EDBCF05F01C0EDBCF06F01D0E73
:102CB000DBCF07F0456A466AFE0E476E420E486E4D
:102CC00004C040F005C041F006C042F007C043F028
:102CD00047EC42F00A0EDBCF45F00B0EDBCF46F09F
:102CE0000C0EDBCF47F00D0EDBCF48F0F4EC41F0DB
:102CF00040C000F041C001F042C002F043C003F008
:102D00001A0E00C0DBFF1B0E01C0DBFF1C0E02C051
:102D1000DBFF1D0E03C0DBFF0E0EDBCF00F00F0E3E
:102D2000DBCF01F0100EDBCF02F0110EDBCF03F092
:102D3000456A466AFE0E476E420E486E00C040F07D
:102D400001C041F002C042F003C043F07BEC43F00D
:102D5000010A43E10E0EDBCF04F00F0EDBCF05F0CE
:102D6000100EDBCF06F0110EDBCF07F0456A466A86
:102D70002A0E476E430E486E04C040F005C041F075
:102D800006C042F007C043F084EC43F0010A25E19D
:102D9000006A016A400E026E410E036ED9500E0F9A
:102DA000E96EDACFEAFFEECF40F0EECF41F0EECFA2
:102DB00042F0EFCF43F000C045F001C046F002C042
:102DC00047F003C048F05EEC41F043C0EDFF42C065
:102DD000EDFF41C0EDFF40C0EFFF120EDBCF00F072
:102DE000130EDBCF01F0140EDBCF02F0150EDBCF9C
:102DF00003F0456A466AFE0E476E420E486E00C0FA
:102E000040F001C041F002C042F003C043F07BEC4F
:102E100043F0010A43E1120EDBCF04F0130EDBCFC7
:102E200005F0140EDBCF06F0150EDBCF07F0456A78
:102E3000466A2A0E476E430E486E04C040F005C035
:102E400041F006C042F007C043F084EC43F0010AB1
:102E500025E1006A016A400E026E410E036ED950F0
:102E6000120FE96EDACFEAFFEECF40F0EECF41F07D
:102E7000EECF42F0EFCF43F000C045F001C046F086
:102E800002C047F003C048F05EEC41F043C0EDFFE4
:102E900042C0EDFF41C0EDFF40C0EFFF160EDBCF9B
:102EA00000F0170EDBCF01F0180EDBCF02F0190E89
:102EB000DBCF03F0456A466AFE0E476E420E486E4F
:102EC00000C040F001C041F002C042F003C043F036
:102ED0007BEC43F0010A43E1160EDBCF04F0170E42
:102EE000DBCF05F0180EDBCF06F0190EDBCF07F0B5
:102EF000456A466A2A0E476E430E486E04C040F08B
:102F000005C041F006C042F007C043F084EC43F036
:102F1000010A25E1006A016A400E026E410E036E4D
:102F2000D950160FE96EDACFEAFFEECF40F0EECFC0
:102F300041F0EECF42F0EFCF43F000C045F001C0CA
:102F400046F002C047F003C048F05EEC41F043C0D9
:102F5000EDFF42C0EDFF41C0EDFF40C0EFFF1A0E94
:102F6000DBCF00F01B0EDBCF01F01C0EDBCF02F03D
:102F70001D0EDBCF03F0456A466AFE0E476E420E19
:102F8000486E00C040F001C041F002C042F003C0F2
:102F900043F07BEC43F0010A43E11A0EDBCF04F06F
:102FA0001B0EDBCF05F01C0EDBCF06F01D0EDBCFBA
:102FB00007F0456A466A2A0E476E430E486E04C003
:102FC00040F005C041F006C042F007C043F084EC79
:102FD00043F0010A25E1006A016A400E026E410ECB
:102FE000036ED9501A0FE96EDACFEAFFEECF40F048
:102FF000EECF41F0EECF42F0EFCF43F000C045F00E
:1030000001C046F002C047F003C048F05EEC41F05A
:1030100043C0EDFF42C0EDFF41C0EDFF40C0EFFFF8
:103020000E0EDBCF40F00F0EDBCF41F0100EDBCFEA
:1030300042F0110EDBCF43F025EC43F042C04BF2DF
:10304000120EDBCF40F0130EDBCF41F0140EDBCFBE
:1030500042F0150EDBCF43F025EC43F042C04CF2BA
:10306000160EDBCF40F0170EDBCF41F0180EDBCF92
:1030700042F0190EDBCF43F025EC43F042C04DF295
:103080001A0EDBCF40F01B0EDBCF41F01C0EDBCF66
:1030900042F01D0EDBCF43F025EC43F042C04EF270
:1030A000D9CFE9FFDACFEAFFEECF00F0EECF01F0A3
:1030B000EECF02F0EFCF03F0456A466AA00E476EEE
:1030C000400E486E00C040F001C041F002C042F026
:1030D00003C043F07BEC43F0010A09E002017F0EDC
:1030E0004E6F4EC24DF24EC24CF24EC24BF281AC0C
:1030F00003D08D968C9602D08D868C9610D00201CE
:103100007F0E4E6F4EC24DF24EC24CF24EC24BF28B
:1031100081AC03D08D968C9602D08D868C965AC247
:10312000E6FF59C2E6FF58C2E6FF57C2E6FF0EECC3
:1031300054F0E552E552E552E552470EE66E020EB6
:10314000E66EC6EC3EF0E552E5529CEF12F0D9CFA8
:10315000E1FFE552E7CFD9FF12001200D9CFE6FF19
:0C316000E1CFD9FFE552E7CFD9FF120004
:04316C00D9CFE6FFD2
:10317000E1CFD9FF060EE12603013B51090A01E127
:103180004FD3010A01E114D30F0A01E1EAD2010A87
:1031900001E147D2030A01E130D2010A01E17FD007
:1031A000070A62E0010A2EE0030A27E0010A01E0B3
:1031B0004FD3010E3A6F0101FF6BFF51006E016AA0
:1031C000150E005C000E015814E2FF51EA6AE00F90
:1031D000E96E020EEA22010EEFCFDBFFFF51EA6A31
:1031E000E00FE96E010EEA22010EDBCFEFFFFF2BAD
:1031F000E4D70301010E3B6F2BD333DB0301020E37
:103200003B6F26D3CBEC39F0DF6E610EDF5C0EE353
:10321000DF5072080BE30301030E3B6FDFCFFDF1BC
:10322000610EDF5C020F0101FC6F1DD0750EDF5CCB
:1032300006E136EC1EF00301060E3B6F14D0760E4D
:10324000DF5C04E10301070E3B6F0DD0770EDF5CFE
:1032500004E10301080E3B6F06D0780EDF5C03E14A
:1032600003013B6B3A6BF4D20101FB6BCBEC39F001
:10327000000901E0FBD7080E006E6B0E016E026ABA
:1032800000C0E6FF01C0E6FF02C0E6FF3EEC58F0DA
:10329000E552E552E5520301040E3B6FD9D2CBEC67
:1032A00039F0DF6E300EDF5C03E3DF50390806E2F1
:1032B0002B0EDF5C03E02D0EDF5C19E10101FB51F9
:1032C000006E016A060E005C000E015810E2DFCFAE
:1032D000E6FFCFEC39F0E5520101FB51EA6AF50F48
:1032E000E96E010EEA22DFCFEFFFFB2B85D10D0E39
:1032F000DF5C01E081D12D0E0101F55D22E1040EBC
:10330000DB68050EDB68FB07FF6BFF51006E016A8F
:10331000060E005C000E015813E2FF29EA6AF50F61
:10332000E96E010EEA22EF50E66EFF51EA6AF50FF0
:10333000E96E010EEA22E552E750EF6EFF2BE5D76A
:103340002FD02B0EF55D25E1010EF36E040EF3CFA9
:10335000DBFF050EDB6AFB07FF6BFF51006E016AA6
:10336000060E005C000E015813E2FF29EA6AF50F11
:10337000E96E010EEA22EF50E66EFF51EA6AF50FA0
:10338000E96E010EEA22E552E750EF6EFF2BE5D71A
:1033900007D0010EF36E040EF3CFDBFF050EDB6AE0
:1033A000FB51030808E2020EDB6A010EF36E030E06
:1033B000F3CFDBFFCCD0030EFB5D56E1300EF55DA5
:1033C000006E016A640E416E426A00C046F001C0A0
:1033D00047F007EC43F0020E3FC0DBFF030E40C096
:1033E000DBFF300E0101F65D026E036A0A0E416ECC
:1033F000426A02C046F003C047F007EC43F03FC00A
:1034000000F040C001F0D950020FE96EDACFEAFFB8
:103410000050EE260150ED22300E0101F75D006EE6
:10342000016AD950020FE96EDACFEAFF0050EE26AA
:103430000150ED22040EDBCF00F0050EDBCF01F0D2
:10344000D950020FE96EDACFEAFF00C046F001C0A2
:1034500047F0EECF41F0EDCF42F007EC43F03FC034
:10346000EEFF40C0EDFF73D0020EFB5D35E1300E84
:10347000F55D0A0DF350E66ED950020FE96EDACF12
:10348000EAFFE552E750EE6EED6A300EF65D006E33
:10349000016AD950020FE96EDACFEAFF0050EE263A
:1034A0000150ED22040EDBCF00F0050EDBCF01F062
:1034B000D950020FE96EDACFEAFF00C046F001C032
:1034C00047F0EECF41F0EDCF42F007EC43F03FC0C4
:1034D000EEFF40C0EDFF3BD0FB0526E1300EF55D71
:1034E000E66ED950020FE96EDACFEAFFE552E750F7
:1034F000EE6EED6A040EDBCF00F0050EDBCF01F0BF
:10350000D950020FE96EDACFEAFF00C046F001C0E1
:1035100047F0EECF41F0EDCF42F007EC43F03FC073
:10352000EEFF40C0EDFF13D0FB5111E1FC51EA6A00
:10353000E00FE96E010EEA22EF50E66ED950020F5D
:10354000E96EDACFEAFFE552E750EE6EED6A660EFD
:103550000101FD5D03E06E0EFD5D26E1D950020F15
:10356000E96EDACFEAFF010EEE1801E1ED500BE053
:10357000D950020FE96EDACFEAFFFF0EEE1802E132
:10358000FF0EED180DE1FC51EA6AE00FE96E010E45
:10359000EA22020EDBCFEFFF0301010E3B6F03D0E7
:1035A0000301050E3B6F28D0020EDBCF00F0030EA7
:1035B000DBCF01F00001800E01141BE1020EDBCF16
:1035C00002F0030EDBCF03F0033404E20250FF08E5
:1035D000000E03540EE30101FC51EA6AE00FE96EAC
:1035E000010EEA22020EDBCFEFFF0301010E3B6F5B
:1035F00003D00301050E3B6F2BD1E80E006E6A0E5F
:10360000016E026A00C0E6FF01C0E6FF02C0E6FFED
:103610003EEC58F0E552E552E5520301030E3B6FD4
:1036200017D1CBEC39F0DF6E610EDF5C02E10201F5
:103630005907620EDF5C04E10A0E0201595F90D067
:10364000630EDF5C03E10201592B8AD0640EDF5C5C
:1036500004E10A0E0201592783D0650EDF5C03E105
:1036600059C2E2F17DD0660EDF5C03E159C2E3F19D
:1036700077D0670EDF5C03E159C2E4F171D0680EC8
:10368000DF5C03E102015A2B6BD0690EDF5C04E1C1
:103690000A0E02015A2764D06A0EDF5C03E10201C0
:1036A0005A075ED06B0EDF5C04E10A0E02015A5F1E
:1036B00057D06C0EDF5C03E15AC2EAF151D06D0EB7
:1036C000DF5C03E15AC2EBF14BD06E0EDF5C03E12D
:1036D0005AC2ECF145D06F0EDF5C3CE1E50E006EA6
:1036E0006A0E016E026A00C0E6FF01C0E6FF02C07A
:1036F000E6FF3EEC58F0E552E552E5520201595121
:10370000E66EE66ADA0E006E6A0E016E026A00C0AC
:10371000E6FF01C0E6FF02C0E6FF3EEC58F0F56EA2
:10372000050EE15EF55002015A51E66EE66AD00ED2
:10373000006E6A0E016E026A00C0E6FF01C0E6FF7D
:1037400002C0E6FF3EEC58F0F56E050EE15EF55066
:103750008DDA06D0700EDF5C03E10301010E3B6FD2
:1037600077D00101050EE26F7F0EE36FF90EE46F73
:10377000030EE56F060EE66F010EE76F310EE86F80
:103780004F0EE96FEA6BEB6BB00EEC6F080EED6F4E
:10379000060EEE6F010EEF6F2D0EF06F770EF16FCC
:1037A000060EF26F140EF36F0301010E3B6F50D043
:1037B0000101FF6BFF51006E016A150E005C000EE7
:1037C000015814E2FF51EA6AE00FE96E010EEA22A5
:1037D000010EEFCFDBFFFF51EA6AE00FE96E020E48
:1037E000EA22010EDBCFEFFFFF2BE4D7200EE66EBF
:1037F000E66A6DDBE552E552BA0E006E6A0E016EA6
:10380000026A00C0E6FF01C0E6FF02C0E6FF3EEC30
:1038100058F0E552E552E5520301090E3B6F18D00E
:10382000A4EC55F0200813E1B30E006E6A0E016E91
:10383000026A00C0E6FF01C0E6FF02C0E6FF3EEC00
:1038400058F0E552E552E5520301010E3B6F00D0FE
:1038500003013A5100D0D9CFE1FFE552E7CFD9FFBC
:103860001200E50E006E6A0E016E026A00C0E6FFED
:1038700001C0E6FF02C0E6FF3EEC58F0E552E5521B
:10388000E552E50E006E6A0E016E026A00C0E6FFA8
:1038900001C0E6FF02C0E6FF3EEC58F0E552E552FB
:1038A000E5520101E251E66EE66A950E006E6A0E7F
:1038B000016E026A00C0E6FF01C0E6FF02C0E6FF3B
:1038C0003EEC58F0F56E050EE15EF5500101E35156
:1038D000E66EE66A740E006E6A0E016E026A00C041
:1038E000E6FF01C0E6FF02C0E6FF3EEC58F0F56ED1
:1038F000050EE15EF5500101E451E66EE66A560EF2
:10390000006E6A0E016E026A00C0E6FF01C0E6FFAB
:1039100002C0E6FF3EEC58F0F56E050EE15EF55094
:103920000101E551E66EE66A3B0E006E6A0E016E1D
:10393000026A00C0E6FF01C0E6FF02C0E6FF3EECFF
:1039400058F0F56E050EE15EF5500101E651E66EA8
:10395000E66A150E006E6A0E016E026A00C0E6FF8E
:1039600001C0E6FF02C0E6FF3EEC58F0F56E050E22
:10397000E15EF550E7C100F0016A00BE016800C0D9
:10398000E6FF01C0E6FFF00E026E690E036E046AE8
:1039900002C0E6FF03C0E6FF04C0E6FF3EEC58F0BD
:1039A000F56E050EE15EF5500101E851E66EE66A3E
:1039B000C90E006E690E016E026A00C0E6FF01C00A
:1039C000E6FF02C0E6FF3EEC58F0F56E050EE15E44
:1039D000F5500101E951E66EE66AA60E006E690E29
:1039E000016E026A00C0E6FF01C0E6FF02C0E6FF0A
:1039F0003EEC58F0F56E050EE15EF5500101EA511E
:103A0000E66EE66A870E006E690E016E026A00C0FD
:103A1000E6FF01C0E6FF02C0E6FF3EEC58F0F56E9F
:103A2000050EE15EF5500101EB51E66EE66A650EAA
:103A3000006E690E016E026A00C0E6FF01C0E6FF7B
:103A400002C0E6FF3EEC58F0F56E050EE15EF55063
:103A50000101EC51E66EE66A460E006E690E016EDB
:103A6000026A00C0E6FF01C0E6FF02C0E6FF3EECCE
:103A700058F0F56E050EE15EF5500101ED51E66E70
:103A8000E66A2A0E006E690E016E026A00C0E6FF49
:103A900001C0E6FF02C0E6FF3EEC58F0F56E050EF1
:103AA000E15EF5500101EE51E66EE66A030E006E2E
:103AB000690E016E026A00C0E6FF01C0E6FF02C0A7
:103AC000E6FF3EEC58F0F56E050EE15EF550EFC1F5
:103AD00000F0016A00BE016800C0E6FF01C0E6FF19
:103AE000DD0E026E680E036E046A02C0E6FF03C0BC
:103AF000E6FF04C0E6FF3EEC58F0F56E050EE15E11
:103B0000F5500101F051E66EE66AB50E006E680EE2
:103B1000016E026A00C0E6FF01C0E6FF02C0E6FFD8
:103B20003EEC58F0F56E050EE15EF5500101F151E5
:103B3000E66EE66A910E006E680E016E026A00C0C3
:103B4000E6FF01C0E6FF02C0E6FF3EEC58F0F56E6E
:103B5000050EE15EF5500101F251E66EE66A720E65
:103B6000006E680E016E026A00C0E6FF01C0E6FF4B
:103B700002C0E6FF3EEC58F0F56E050EE15EF55032
:103B80000101F351E66EE66A4B0E006E680E016E9F
:103B9000026A00C0E6FF01C0E6FF02C0E6FF3EEC9D
:103BA00058F0F56E050EE15EF550E50E006E6A0EFA
:103BB000016E026A00C0E6FF01C0E6FF02C0E6FF38
:103BC0003EEC58F0E552E552E552250E006E680EC7
:103BD000016E026A00C0E6FF01C0E6FF02C0E6FF18
:103BE0003EEC58F0E552E552E5520B0E006E680EC1
:103BF000016E026A00C0E6FF01C0E6FF02C0E6FFF8
:103C00003EEC58F0E552E552E552F80E006E670EB4
:103C1000016E026A00C0E6FF01C0E6FF02C0E6FFD7
:103C20003EEC58F0E552E552E552ED0E006E670E9F
:103C3000016E026A00C0E6FF01C0E6FF02C0E6FFB7
:103C40003EEC58F0E552E552E552E50E006E6A0E84
:103C5000016E026A00C0E6FF01C0E6FF02C0E6FF97
:103C60003EEC58F0E552E552E5521200E50E006ECA
:103C70006A0E016E026A00C0E6FF01C0E6FF02C0E4
:103C8000E6FF3EEC58F0E552E552E552E50E006ED7
:103C90006A0E016E026A00C0E6FF01C0E6FF02C0C4
:103CA000E6FF3EEC58F0E552E552E552D50E006EC7
:103CB000670E016E026A00C0E6FF01C0E6FF02C0A7
:103CC000E6FF3EEC58F0E552E552E552BC0E006EC0
:103CD000670E016E026A00C0E6FF01C0E6FF02C087
:103CE000E6FF3EEC58F0E552E552E552A30E006EB9
:103CF000670E016E026A00C0E6FF01C0E6FF02C067
:103D0000E6FF3EEC58F0E552E552E552890E006EB2
:103D1000670E016E026A00C0E6FF01C0E6FF02C046
:103D2000E6FF3EEC58F0E552E552E5526D0E006EAE
:103D3000670E016E026A00C0E6FF01C0E6FF02C026
:103D4000E6FF3EEC58F0E552E552E5524E0E006EAD
:103D5000670E016E026A00C0E6FF01C0E6FF02C006
:103D6000E6FF3EEC58F0E552E552E552320E006EA9
:103D7000670E016E026A00C0E6FF01C0E6FF02C0E6
:103D8000E6FF3EEC58F0E552E552E5521B0E006EA0
:103D9000670E016E026A00C0E6FF01C0E6FF02C0C6
:103DA000E6FF3EEC58F0E552E552E552030E006E98
:103DB000670E016E026A00C0E6FF01C0E6FF02C0A6
:103DC000E6FF3EEC58F0E552E552E552EA0E006E91
:103DD000660E016E026A00C0E6FF01C0E6FF02C087
:103DE000E6FF3EEC58F0E552E552E552D00E006E8B
:103DF000660E016E026A00C0E6FF01C0E6FF02C067
:103E0000E6FF3EEC58F0E552E552E552B30E006E87
:103E1000660E016E026A00C0E6FF01C0E6FF02C046
:103E2000E6FF3EEC58F0E552E552E552930E006E87
:103E3000660E016E026A00C0E6FF01C0E6FF02C026
:103E4000E6FF3EEC58F0E552E552E552760E006E84
:103E5000660E016E026A00C0E6FF01C0E6FF02C006
:103E6000E6FF3EEC58F0E552E552E552550E006E85
:103E7000660E016E026A00C0E6FF01C0E6FF02C0E6
:103E8000E6FF3EEC58F0E552E552E552320E006E88
:103E9000660E016E026A00C0E6FF01C0E6FF02C0C6
:103EA000E6FF3EEC58F0E552E552E552E50E006EB5
:103EB0006A0E016E026A00C0E6FF01C0E6FF02C0A2
:103EC000E6FF3EEC58F0E552E552E5521200D9CF3C
:103ED000E6FFE1CFD9FF050EE126030EDB6A040EF3
:103EE000DB6A0201470EE06F4B0EE16FDE6ADD6AAE
:103EF000DECF00F0DDCF01F0140E005C000E0158A3
:103F000034E2DECFE9FFDDCFEAFFE00EE926020E64
:103F1000EA22020EEFCFDBFFDBCFE6FFFD0EDBCFA9
:103F200002F0FE0EDBCF03F0DE500224006EDD5007
:103F30000320016E00C0E6FF01C0E6FFF2EC54F082
:103F4000E552E552E552020EDB50006E016AD9508F
:103F5000030FE96EDACFEAFF0050EE260150ED22A2
:103F6000DF2A010E01E3DB2AC3D7030EDBCFE6FF16
:103F7000150EE76EFD0EDBCF00F0FE0EDBCF01F07D
:103F8000E7500026000E01220006015A00C0E6FF9D
:103F900001C0E6FFF2EC54F0E552E552E552D9CF0C
:0A3FA000E1FFE552E7CFD9FF120060
:063FAA0011EC25F0FB0EF6
:103FB000DBCFF3FFDB06F35000090AE05FEC25F0EE
:103FC000FA0ECAEC25F0F3E1011CF1E1010E01D07B
:103FD000000E40EF25F011EC25F03B0EE12402E34A
:103FE000E168E652E16E010EDB6A020EDB6AF90E51
:103FF000DBCFF6FFFA0EDBCFF7FFFB0EDBCFF8FFD0
:104000000800F550DF6EDF5002E166EF24F0250E68
:10401000DF5C02E059EF24F0030EDB6A040EDB6A7A
:10402000050EDB6A060EDB6A070EDB6A79EC24F00C
:104030002D0EDF5C0CE02B0EDF5C09E0200EDF5C58
:1040400006E0230EDF5C03E0300EDF5C1AE1DF5098
:10405000300A14E0130A0FE0030A0AE00B0A05E035
:10406000060AE4E1030EDB80E1D7030EDB82DED734
:10407000030EDB84DBD7030EDB86D8D7030EDB8889
:10408000D5D72A0EDF5C1BE175EC24F0C3EC24F0DD
:1040900010E0030EDB8041684268130EDBCF46F070
:1040A000140EDBCF47F0DAEC42F0040E3FC0DBFF2A
:1040B00003D0130EACEC24F079EC24F00BD0090EF5
:1040C000DB6A1AEC25F003E08EEC25F0FAD7090E36
:1040D000ACEC24F0030EDBB0DB982E0EDF5C1BE1B2
:1040E00079EC24F02A0EDF5C0BE175EC24F0C3ECD4
:1040F00024F003E1130EFEEC24F079EC24F00BD055
:10410000090EDB6A1AEC25F003E08EEC25F0FAD7F5
:10411000090EFEEC24F0680EDF5C07E179EC24F078
:10412000680EDF5C1DE1030E18D0740EDF5C17E033
:104130007A0EDF5C14E0480EDF5C06E0540EDF5CB4
:1041400003E05A0EDF5C02E1020E07D06C0EDF5C6A
:1041500003E06A0EDF5C04E1010E51EC25F0C9DBDF
:10416000DF506E0A01E181D31E0A01E192D1200ADB
:1041700001E18FD13F0A01E149D11A0A01E146D19B
:104180000D0A01E143D1200A01E140D13A0A01E1DF
:104190003DD1200A01E13AD1260A01E135D10D0ACB
:1041A00001E132D11A0A01E1D9D0200A4AE0300AED
:1041B0001FE0460A0EE0250A01E085D3D950F90F29
:1041C000E96EFF0EDA20EA6E010EEE5E000EEE5A88
:1041D000EE5A5FEC25F0250EE66E95DB03E1011C3F
:1041E00001E16BD35BEC25F001E26DD3DB2A6BD3ED
:1041F000080EDB6A040EDB50010806E2040EDB0445
:1042000023EC25F0DB508BDB080EDB5009E0030EBE
:10421000DB50010B05E172DB01E04FD3080EDB6AD6
:1042200064DBEFCFDFFFD3EC25F003E1011C01E1FC
:1042300044D35BEC25F001E3DB2A60DB01E143D3EF
:104240003CD3070EDB5002080FE19FEC25F0030E74
:1042500066EC25F00E0EEECFDBFF0F0EEECFDBFF90
:10426000100EEECFDBFF20D0F70EDBCF03F0F80E01
:10427000DBCF04F0020E035E000E045AF70E03C0FB
:10428000DBFFF80E04C0DBFF03C0E9FF04C0EAFF58
:1042900056EC25F0026A0E0E00C0DBFF0F0E01C0C7
:1042A000DBFF100E02C0DBFF0E0EDBCFE6FF0F0EB2
:1042B000DBCFE6FF100EDBCFE6FF44EC59F0E55212
:1042C000E552E552130E40C0DBFF140E41C0DBFF88
:1042D000060EDB5005E0130E9AEC25F001E26ADBD6
:1042E000BEEC25F002E2130E37DB81EC25F006E090
:1042F000040E9AEC25F002E2050E2EDB030EDBB075
:1043000005D0FCDA01E0D9D2080EDB6A090EDB6ABF
:104310000E0EDBCFF6FF0F0EDBCFF7FF100EDBCF5D
:10432000F8FF0800F550DF6EDF5014E0C4EC25F014
:1043300011E2D3EC25F003E1011C01E1BED2BBDBAD
:1043400001E3DB2A090EDB2AD9500E0FE96E000EBD
:10435000CBDBE7D7D3DA01E1B6D2AFD2C6DA110EA2
:10436000EECFDBFF120EEDCFDBFF110EDBCFE6FF52
:10437000120EDBCFE6FF36EC59F0E552E552130E94
:10438000F3CFDBFF140EF4CFDBFF060EDB5004E0AF
:10439000130ED0DB01E20EDBBEEC25F002E2130EC1
:1043A000DBDAAFDB05E0040EC5DB02E2050ED4DA92
:1043B000030EDBB005D0A2DA01E07FD2080EDB6A83
:1043C000090EDB6A110EDBCFE9FF120EDBCFEAFF2D
:1043D000EFCFDFFFDF5014E0D7DB12E2E4DB03E1D5
:1043E000011C01E16AD267DB01E3DB2A090EDB2A4B
:1043F000110EDB2ADBCFE9FF120EE8E3DB2AE6D75A
:104400007DDA01E160D259D2030EDB8E070EDB04A8
:1044100010E195DB040E5ADB0A0EEECFDBFF0B0E2C
:10442000EECFDBFF0C0EEECFDBFF0D0EEECFDBFF92
:104430006CD0070EDB5003082CE1030EDBAE0DD071
:10444000B2DA020E76DAEFCF00F0016A026A036A8E
:1044500000AE39D00168026835D0F70EDBCF01F02D
:10446000F80EDBCF02F0020E015E000E025AF70ECC
:1044700001C0DBFFF80E02C0DBFF01C0E9FF02C094
:10448000EAFFEFCF00F00A0E00C0DBFF0B0EDB6A85
:1044900038D0070EDB50020809E1030EDBAE04D072
:1044A00059DB02AE10D00ED055DB0DD0030EDBAEC3
:1044B00012D079DA020E3DDAF9DA026A036A01AE45
:1044C00002D002680368E2DA0C0E02C0DBFF0D0EB8
:1044D00003C0DBFF1AD0F70EDBCF02F0F80EDBCF04
:1044E00003F0020E025E000E035AF70E02C0DBFF5D
:1044F000F80E03C0DBFF02C0E9FF03C0EAFFD6DA13
:10450000C5DA0C0EDB6A0D0EDB6A060EDB5005E128
:10451000010EF36E050EF3CFDBFF150EDB6A160EF0
:10452000DB6AD950370F006E000EDA20016E390EAB
:1045300000C0DBFF3A0E01C0DBFF380EDB6A080E5D
:10454000DB6A0A0EAEDADF50780A12E0200A10E0C9
:10455000280A0CE0200A0AE03F0A06E00D0A02E001
:10456000200A08E1020E05D0080E03D0080EDF264F
:10457000100E97DA030EDBBE02D0DB92DB94DB5029
:10458000800B26E08ADA030EEB50000AE8AE02D078
:10459000D89008D0000EEE5C000EEE58000EEE58DB
:1045A000000EEE5815E211DA44684568466847681F
:1045B000CAEC58F00A0E3BC0DBFF0B0E3CC0DBFF21
:1045C0000C0E3DC0DBFF0D0E3EC0DBFF2D0E08D0F4
:1045D000030EDBA202D02B0E03D0DBA408D0200EEA
:1045E000F36E170EF3CFDBFF150EDB2A02D0170E8A
:1045F000DB6A050EDB5003E1B5D901E189D0720E0B
:10460000006EB50E016E000E026E070EDBCF03F0DA
:10461000046A056A066A03C044F004C045F005C098
:1046200046F006C047F0D1D901EC5AF000503B24C7
:10463000F36E01503C20F46E02503D20F86EF4CF32
:10464000F7FFF3CFF6FF0800090EF5CFDBFF580E9A
:10465000DF5C0FE1610EF36E090E79D90AE3200EDB
:10466000006E090EDBCFE7FF0050E75E090EE7CFD3
:10467000DBFF070EDBCF00F0016A026A036A0DDA86
:1046800000C044F001C045F002C046F003C047F04E
:10469000EECF3FF0EECF40F0EECF41F0EFCF42F063
:1046A00001EC5AF042C0EDFF41C0EDFF40C0EDFF0C
:1046B0003FC0EFFF390EDBCFE9FFDB063A0EDBCF61
:1046C000EAFF01E2DB06090EDBCFEFFF150EDB2A66
:1046D00049D995E1030EDBA61DD06F0EDF5C06E124
:1046E000BFD918E3150EDB2859DA14D0780EDF5C39
:1046F00009E0580EDF5C06E0620EDF5C03E0420E6C
:10470000DF5C08E1020EF36E160EF3CFDBFF02D082
:10471000150EDB6A030EDB50100B0EE0040EDBCF30
:1047200000F0050EDB50D880005406E2060EDB5088
:1047300003E1040EDB5032DA93D90AE2050EDBCF37
:10474000E7FF150EDB50E75E050EE7CFDBFF02D07B
:10475000050EDB6A040EDBCF00F0160E43D9D880BD
:10476000005414E2160EDBCFE6FF150EDBCFE6FF9A
:10477000040EDBCFE6FF050EDB50E552E75CE552A9
:10478000D880E754E552D880E7545DD9030EDB505A
:10479000010B0BE1080EDB5008E0B0D801E08DD032
:1047A000080EDB50BCD8080EDB6A170EDB5007E0A2
:1047B00086D9170EEFD903E1011C01E17ED0160E58
:1047C000DB5016E07CD9300EE66E9DD802E1011C6C
:1047D00074E075D9DFCFE6FF88EC58F0E552E5527A
:1047E000E552F4CF01F00001F31C02E1011C65E089
:1047F000050EDBCF00F0160EDB50D880005409E226
:10480000050EDBCFE7FF160EDB50E75E050EE7CFA8
:10481000DBFF300EE66E050EC9D94FE1390EDB2AFB
:10482000DBCFE9FF3A0E01E3DB2ADBCFEAFF090E1B
:10483000EFCFDBFFDB500EE042D9090EABD902E12E
:10484000011C3BE0390EDB2ADBCFE9FF3A0EEDE33A
:10485000DB2AEBD753D831E1160EDBCFE6FF080E8B
:10486000C1D8E552E7245BD82ED0070EDB50030AEF
:104870001CE0010A14E0030A07E079D9DBCFEEFF60
:10488000020EDBCFEDFF1FD0F3D8056A03AE02D0D6
:10489000046805682AD8BAD805C0EEFF14D0E8D855
:1048A00003BE046822D8B2D80ED061D9DBCFEFFFA7
:1048B0000AD079D905E1011C03E1F368F46810D04E
:1048C000FAD801E3DB2A77D900EF20F0010EDBCF25
:1048D00000F0020EDBCF01F000C0F3FF01C0F4FFD7
:1048E000D9CFE1FFDACFE2FFCBD029D9020E66EFB4
:1048F00025F061D90800F550DF6E1200200EE66E3B
:10490000080ED6EF25F088EC58F0E552E552E55256
:10491000F3CF00F0F4CF01F00001F31C1200006EA1
:10492000016AD950010F4DD90050EE260150ED22F9
:104930001200045E000E055AF70E04C0DBFFF80EED
:1049400005C0DBFF04C0E9FF05C0EAFF1200DBCFB2
:10495000F4FFF350F45C1200DB50E76E040EE7CF77
:10496000DBFF12000A0EDBCF00F00B0EDBCF01F0F5
:104970000C0EDBCF02F00D0EDBCF03F00050011068
:10498000021003101200130EEECFDBFF140EEDCF5A
:10499000DBFF130EDBCF00F0140EDBCF01F00001C4
:1049A000800E01141200F70EDBCF04F0F80EDBCFFF
:1049B00005F01200050EDB50E66ED950130F01D939
:1049C000E552E750EE6EED6A12000A0EDBCF3FF0C3
:1049D0000B0EDBCF40F00C0EDBCF41F00D0EDBCF2A
:1049E00042F01200DBCFE6FF150EDBCFE6FF050E2F
:1049F000DB50E552E724E552E7241200DB50CED825
:104A0000010EF36E060EF3CFDBFF1200EE50EFCF78
:104A1000EAFFE96E02C0EEFF03C0EEFF04C0EEFF46
:104A20001200D9CFE6FFDACFE6FFE1CFD9FFE2CF20
:104A3000DAFF1200DFCFE6FFE66A6EEC5AF0E552CD
:104A4000E552F3501200E76E080EE7CFDBFF1200CD
:104A5000EECF00F0EECF01F0EFCF02F0036A1200CC
:104A6000050EDBCF00F0150EDB50D880005412008D
:104A7000010EDBCF02F0020EDBCF03F0046A12005E
:104A8000E552E5CFDAFFE7CFD9FF12000A0E00C0EA
:104A9000DBFF0B0E01C0DBFF1200D9500A0FE1EF64
:104AA00025F0F36E070EF3CFDBFF1200EECF00F020
:104AB000EFCF01F01200010EDB2A020E1200FC0EF5
:104AC000DBCFE6FFFD0EDBCFE6FF1200005E000E3F
:104AD000015AF70E00C0DBFFF80E01C0DBFF00C07B
:104AE000E9FF01C0EAFF1200DA20EA6EEF2AEECFFA
:104AF000F6FF000EEF22EECFF7FFEF22EECFF8FF2A
:104B00001200040EDBCFE6FF130EDB50E552E75C2C
:104B10009ADFDB5004DF060EDB501200090EDB507B
:104B20000A0DF350DF24D00FE76E090EE7CFDBFF4D
:104B300079EF24F0DB50F36E050EA7EF24F0F70EAB
:104B4000DBCF00F0F80EDBCF01F01200DFCFE6FF85
:104B500083EF24F028DF030EECDE28EF25F0D5EC00
:104B60001FF0E552E552E552E55200091200BDDEA4
:104B7000EE50EFCFEAFFE96E010E1200130EDB508C
:104B8000F36E040EA7EF24F0040EDB50F36E090E53
:104B9000A7EF24F0DBCFE6FF83EF24F0E76E050EEE
:104BA000E7CFDBFF12008BDFA6EF25F0DBCFE6FFC0
:104BB00086DFAFEF25F0D950F90FE96EFF0E74EFE5
:0C4BC00025F0E96E000EDA20EA6E12000B
:044BCC00D9CFE6FF58
:104BD000DACFE6FFE1CFD9FFE2CFDAFF4B0EE124D7
:104BE00002E3E168E652E16E8BEC2AF0D950060F41
:104BF000B0EC2AF031EC2BF0FBEC2AF002E2E16A97
:104C0000E552E16EF550DF6ED9500D0FB0EC2AF091
:104C100068EC2BF0FBEC2AF002E2E16AE552E16E6F
:104C2000F550E76E010EE7CFDBFF7AEC2BF064EC7A
:104C30002AF064EC2BF0000EE66EE66A37EC2BF0FF
:104C400002E2E16AE552E16EF550190EDB5003E035
:104C50001A0EDB6A16D064EC2BF0010EE66EE66AE3
:104C600037EC2BF002E2E16AE552E16EF550190EE5
:104C7000DB5002E1030E01D0050EF36E1A0EF3CFE6
:104C8000DBFF010EDB0456E0FA0EDBCF00F0FB0E7B
:104C9000DBCF01F0FC0EDBCF02F0FD0EDBCF03F02B
:104CA0003EEC2BF047E0800EDF5C04E0010EDB50B1
:104CB000800804E114EC2BF07F0E5CD0DF040DE1E2
:104CC000130EDB5010E05AEC2AF07F0E1BEC2BF099
:104CD000210E0201FD6FFE6B0DD0040EDF5C22E1A0
:104CE000130EDB5003E0E0EC2AF004D0E3DB7F0E90
:104CF0001BEC2BF01A0EDBA473D30C0EDB5001E17E
:104D00006FD3B5EC2AF054EC2BF0020E40C0DBFF61
:104D1000030E41C0DBFF040E42C0DBFF050E43C0A3
:104D2000DBFF5ED3010EDB50040816E17BDB3EECBB
:104D30002BF003E1BFDB3F0E1DD0130EDB5004E070
:104D400044EC2BF004E106D044EC2BF003E1E0EC62
:104D50002AF046D3AFDB0DD00C0EDB500EE01A0E5E
:104D6000DB50010B0AE1210E0201FD6FFE6B14EC1A
:104D70002BF07F0E1BEC2BF033D3B3DB3EEC2BF090
:104D800002E1C9DB2DD3D9501B0FEADB31EC2BF04C
:104D900044EC56F0F56E060EE15C02E2E16AE55283
:104DA000E16EF55091DB0C0EDB5003E1180EDB6A6F
:104DB00016D038DB54EC2BF0140E40C0DBFF150E80
:104DC00041C0DBFF160E42C0DBFF170E43C0DBFF06
:104DD0001A0EDB50040BE76E180EE7CFDBFF22DB69
:104DE000F30E456E040E466E350E476E3F0E486E4E
:104DF00015DB84EC43F0010A17E1010EE66EE66A6A
:104E0000D950140F4BEC2BF0AAEC55F0F56E060EB2
:104E1000E15C02E2E16AE552E16EF55055DB1B0E02
:104E2000DB061C0E01E2DB06F60EDBCF40F0F70ED0
:104E3000DBCF41F0F80EDBCF42F0F90EDBCF43F0D1
:104E400068EC44F01D0E3FC0DBFF1E0E40C0DBFFD0
:104E50001F0E41C0DBFF200E42C0DBFF1B0EDBCF6D
:104E600041F01C0EEDDB250E40C0DBFF260E41C0DD
:104E7000DBFF270E42C0DBFF280E43C0DBFF3EDB1B
:104E8000F60EDBCF45F0F70EDBCF46F0F80EDBCFAA
:104E900047F0F90ED9DB68EC44F0210E3FC0DBFF90
:104EA000220E40C0DBFF230E41C0DBFF240E42C0B8
:104EB000DBFFD950210FABDBE8AE02D0D88008D0A1
:104EC000010EEE5C800EEE58FF0EEE58FF0EEE580F
:104ED0001CE3210EDBCF40F0220EDBCF41F0230E8E
:104EE000DBCF42F0240EDBCF43F0000E4318E8AED8
:104EF00002D0433409D0FF0ED88040547F0E415475
:104F0000000E4254000E435402E263DBF3D1D95049
:104F10001D0F7DDBE8AE02D0D88008D0800EEE5C9D
:104F2000FF0EEE58FF0EEE58FF0EEE580CE274DB4B
:104F300003E0800E006E05D0D9501B0F3DDB21E150
:104F4000006A016A2BD01D0EDBCF40F01E0EDBCFB6
:104F500041F01F0EDBCF42F0200EDBCF43F0000EFE
:104F60004318E8AE02D0433409D0800ED8804054B4
:104F7000000E4154000E4254000E435422E24CDB1A
:104F800004E0800E006E016809D0D9501B0F14DBBD
:104F900002E1006A02D0800E006E016A390E00C084
:104FA000DBFF3A0E01C0DBFF370EDB6A380EDB6A2F
:104FB0002D0EDB6A2E0EDB6A2F0EDB6A300EDB6AEB
:104FC000CFD01D0EDBCF41F01E0EDBCF42F0370EEF
:104FD00041C0DBFF380E42C0DBFF210EDBCF41F0CA
:104FE000220EDBCF42F0390E41C0DBFF3A0E42C049
:104FF000DBFF110EDBCF00F0120EDBCF01F07F0ED6
:10500000005E000E015A080E005E000E015A350EB9
:1050100000C0DBFF360E01C0DBFF56DB350EDBCFF9
:10502000E6FF360EDBCFE6FF22DB02E2E16AE55265
:10503000E16EF550470E3FC0DBFF480E40C0DBFF7E
:10504000490E41C0DBFF4A0E42C0DBFF4ADA470E81
:10505000DBCF04F0480EDBCF05F0490EDBCF06F0C6
:105060004A0EDBCF07F004C045F005C046F006C08D
:1050700047F007C048F0D2D95DEC41F0430E40C084
:10508000DBFF440E41C0DBFF450E42C0DBFF460E96
:1050900043C0DBFF33DA470EDBCF45F0480EDBCFF2
:1050A00046F0490EDBCF47F04A0ECEDA9BDA390ED6
:1050B000DBCF41F03A0EC4DA40C008F041C009F03D
:1050C00042C00AF043C00BF039DAD4DA5DEC41F0AB
:1050D000BFDA14DA430EDBCF45F0440EDBCF46F0E7
:1050E000450EDBCF47F0460EAFDA40C00CF041C0B2
:1050F0000DF042C00EF043C00FF020DA8FD95EEC05
:1051000041F03F0E40C0DBFF400E41C0DBFF410ECF
:1051100042C0DBFF420E43C0DBFF3F0EDBCF00F09F
:10512000400EDBCF01F0410EDBCF02F0420EDBCFB1
:1051300003F0180E456E720E466E310E476E3F0E2E
:10514000486E6CD947EC42F02D0E40C0DBFF2E0EAE
:1051500041C0DBFF2F0E42C0DBFF300E43C0DBFF40
:10516000C0D9370EDBCF41F0380E6ADA3BDAE6D928
:1051700055D95DEC41F03B0E40C0DBFF3C0E41C019
:10518000DBFF3D0E42C0DBFF3E0E43C0DBFF3B0EAC
:10519000DBCF04F03C0EDBCF05F03D0EDBCF06F09D
:1051A0003E0EF0D9140F77DA87EC47F048D9D95082
:1051B0002D0F67D95EEC41F0CAD9370EDBCF00F076
:1051C000380EDBCF01F00001800E011410E04168C1
:1051D0004268370EDBCF46F0380EDBCF47F0DAEC13
:1051E00042F0370E3FC0DBFF380E40C0DBFF290E18
:1051F000DB6A2A0EDB6A800EF36E2B0EF3CFDBFF29
:105200003F0EF36E2C0EF3CFDBFFD950370FD4D9FE
:1052100019E0370EDB50010B04E004D9D950290FF7
:1052200047DAD950370F3BDA010E0F0B06E0EC528C
:10523000D890ED32EF32E806FAE1F4D8D950140FE5
:1052400037DAE3D7130EDB5021E0406A416A800E63
:10525000426E3F0E436E290EDBCF45F02A0EDBCFA8
:1052600046F02B0EDBCF47F02C0EDBCF48F0F4ECF2
:1052700041F0EED9290E40C0DBFF2A0E41C0DBFF12
:105280002B0E42C0DBFF2C0E43C0DBFF390EDBCF01
:10529000E6FF3A0EDBCFE6FF290EDBCF04F02A0E45
:1052A000DBCF05F02B0EDBCF06F02C0E6BD92D0FCC
:1052B000F2D9A6EC44F0C3D840C0E6FF41C0E6FFF7
:1052C00042C0E6FF43C0E6FFAAEC55F0F56E060EBD
:1052D000E15C02E2E16AE552E16EF550310E3FC059
:1052E000DBFF320E40C0DBFF330E41C0DBFF340E6C
:1052F00042C0DBFFD950060F33D9D950310FCBD97B
:105300007AD902E2E16AE552E16EF550DF6E850E70
:10531000DF143CE0220E0201FD6FFE6BEBD93FC0B3
:1053200000F040C001F041C002F042C003F0BBD821
:105330003FC040F0C2D984EC43F0010A03E1130EF0
:10534000DB5014E1D7D93FC004F040C005F041C0A4
:1053500006F042C007F0A7D83FC040F0BFD97BECB1
:1053600043F0010A12E1130EDB500FE1310EDB6A4C
:10537000320EDB6A800EF36E330EF3CFDBFF7F0E4F
:10538000F36E340EF3CFDBFF01D023D9180EDB50C0
:105390000FE0310EDBCF04F0320EDBCF05F0330E21
:1053A000DBCF06F0340EDBCF07F0FFD89ED90CD050
:1053B000310EDBCF00F0320EDBCF01F0330EDBCF4E
:1053C00002F0340EDBCF03F0020E00C0DBFF030E51
:1053D00001C0DBFF040E02C0DBFF050E03C0DBFFD4
:1053E000C4D800C03FF001C040F002C041F003C08B
:1053F00042F0D9CFE1FFDACFE2FFE552E5CFDAFFA5
:10540000E7CFD9FF1200DA20EA6EEECFE6FFEECF4B
:10541000E6FFEECFE6FFEFCFE6FF120000C040F060
:105420005DEF2BF0140EDBCF00F0150EDBCF01F09B
:10543000160EDBCF02F0170EDBCF03F01200E552A1
:10544000E552E552E552E552E7CF07F0E552E7CFE6
:1054500006F0E552E7CF05F0E552E7CF04F03FC094
:1054600008F040C009F041C00AF042C00BF03FC054
:1054700045F040C046F041C047F042C048F075EFEB
:105480002BF00DD9EECF40F0EECF41F0EECF42F051
:10549000EFCF43F000C045F001C046F002C047F036
:1054A00003C048F01200456A466A800E476E3F0E00
:1054B000486E1200020EDB6A030EDB6A800EF36E8A
:1054C000040EF3CFDBFF1200140E3FC0DBFF150EFE
:1054D00040C0DBFF160E41C0DBFF170E42C0DBFFF2
:1054E0001200F60EDBCF00F0F70EDBCF01F0F80E66
:1054F000DBCF02F0F90EDBCF03F01200250EDBCF7D
:1055000040F0260EDBCF41F0270EDBCF42F0280E15
:10551000DBCF43F01200D950FA0FE96EFF0EDA200C
:10552000EA6E020EEECFDBFF030EEECFDBFF040EC2
:10553000EECFDBFF050EEECFDBFF120040C045F0E3
:1055400041C046F042C047F043C048F0120043C09B
:10555000EDFF42C0EDFF41C0EDFF40C0EFFF120084
:10556000E66E000EDA20E66E1200020EDBCF00F0CF
:10557000030EDBCF01F0040EDBCF02F0050EDBCF14
:1055800003F01200DBCF07F004C0E6FF05C0E6FF22
:1055900006C0E6FF07C0E6FFD95012009CEC59F0A8
:1055A000E552E552E552E5521200456A466A800E20
:1055B000476EBF0E486E120072D8EE50ED1012000A
:1055C000020EDB6A030EDB6A040EDB6A050EDB6A81
:1055D0001200310EDB6A320EDB6A330EDB6A340EE8
:1055E000DB6A120040C004F041C005F042C006F082
:1055F00043C007F01200D4EC56F0F56E060EE15CE5
:105600001200A7EC4FF0F56E080EE15C120047D8CF
:10561000030EEB50FF0A12001B0E1C0EDBCF03F033
:105620000001800E03141200020EDB68030EDB681B
:10563000040EDB681200F36E050EF3CFDBFF1200E1
:10564000DBCF42F04AEF41F0DBCF48F047EF42F0CA
:1056500040C000F041C001F042C002F043C003F07E
:105660001200D950FA0FE96EFF0E03EF2AF030D87E
:1056700001EF2BF004C040F06EEF2BF014DFCEDE14
:105680009FEC44F0010A1200CDDE0DDFC7DE84EC92
:1056900043F0010A1200E96E000E03EF2AF0E96EF2
:1056A000000EDA20EA6E120080DFB8DE47EF42F02B
:1056B000E8DE47EC42F0A7EF2AF001C041F002C05B
:1056C00042F003C043F01200D950190FB0EF2AF096
:1056D000D950F60FE96EFF0E03EF2AF005C041F036
:1056E00006C042F007C043F01200C4DF47EC42F0AE
:0A56F00028EF2BF0B6DFCEEF2AF012
:0656FA00D9CFE6FFE1CF6D
:10570000D9FF040EE12603013F510A0A01E19AD2B2
:10571000030A01E181D2010A01E166D20F0A01E127
:105720002BD2010A01E104D2030A01E1EDD1010A01
:1057300001E189D0070A6CE0010A2EE0030A27E0A4
:10574000010A01E087D2010E3E6F0201A76BA7514B
:10575000006E016A160E005C000E015814E2A7519B
:10576000EA6A080FE96E020EEA22030EEFCFDBFFB2
:10577000A751EA6A880FE96E020EEA22030EDBCF18
:10578000EFFFA72BE4D70301010E3F6F63D26BDA63
:105790000301020E3F6F5ED2CBEC39F0E76E020ED2
:1057A000E7CFDBFF610EF36E020EDBCFF4FFF350A9
:1057B000F45C0EE3020EDB5073080AE30301030EF0
:1057C0003F6F020EDB509F0F020F0201A56F1FD02B
:1057D000020EDB50750804E10301090E3F6F17D07C
:1057E000020EDB50760804E10301060E3F6F0FD076
:1057F000020EDB50770804E10301070E3F6F07D06C
:10580000020EDB50780803E103013F6B3E6B22D2AE
:105810000201A46BCBEC39F0000901E0FBD72A0EA2
:10582000006E650E016E026A00C0E6FF01C0E6FF71
:1058300002C0E6FF3EEC58F0E552E552E5520301A6
:10584000040E3F6F07D2CBEC39F0E76E020EE7CFC4
:10585000DBFF300EF36E020EDBCFF4FFF350F45C8F
:1058600004E3020EDB50390820E2610EF36E020EF3
:10587000DBCFF4FFF350F45C04E3020EDB50660868
:1058800014E2410EF36E020EDBCFF4FFF350F45C32
:1058900004E3020EDB50460808E2020EDB507808F3
:1058A00004E0020EDB50580835E10201A451006EFD
:1058B000016A060E005C000E01582CE2610EF36EC8
:1058C000020EDBCFF4FFF350F45C04E3020EDB5076
:1058D000660804E2020EDB5078080AE1200E006E32
:1058E000020EDBCFE7FF0050E75E020EE7CFDBFFE3
:1058F000020EDBCFE6FFCFEC39F0E5520201A451F6
:10590000EA6A9E0FE96E020EEA22020EDBCFEFFF7B
:10591000A42BF9D0020EDB500D0801E0F4D0300EBC
:1059200002019E5D01E079D0580E9F5D76E1A451A1
:10593000040804E2DE6A010EDD6E6ED0040EA45D82
:1059400044E1300EA05D0AE3A051390807E3300EB0
:10595000A05D100DF350DE6EDD6A14D0410EA05D27
:105960000BE3A051460808E3410EA05D0A0F100D9D
:10597000F350DE6EDD6A06D0580EA05D03E1DE6AEC
:10598000010EDD6E300EA15D09E3A151390806E379
:10599000300EA15DDE26000EDD2216D0410EA15D87
:1059A0000AE3A151460807E3410EA15D0A0FDE2676
:1059B000000EDD2209D0580EA15D06E1D9CFE9FF26
:1059C000DACFEAFFEE52ED2A27D0030EA45D21E1E3
:1059D000300EA05D08E3A051390805E3300EA05D4C
:1059E000DE6EDD6A15D0410EA05D09E3A0514608C8
:1059F00006E3410EA05D0A0FDE6EDD6A09D0580E87
:105A0000A05D06E1D9CFE9FFDACFEAFFEE52ED2A39
:105A100003D0DE6A010EDD6E5DD0A451030804E2FE
:105A2000DE6A010EDD6E56D0030EA45D32E1300E4B
:105A30009E5D006E016A640E416E426A00C046F0CF
:105A400001C047F007EC43F03FC0DEFF40C0DDFF80
:105A5000300E02019F5D026E036A0A0E416E426AB9
:105A600002C046F003C047F007EC43F03FC000F02F
:105A700040C001F0D9CFE9FFDACFEAFF0050EE26AF
:105A80000150ED22300E0201A05DDE26000EDD2267
:105A900021D0020EA45D0CE1300E9E5D0A0DF35084
:105AA000DE6EDD6A300E9F5DDE26000EDD2212D036
:105AB000A40505E1300E9E5DDE6EDD6A0BD0A451BB
:105AC00009E1A551EA6A880FE96E020EEA22EF5059
:105AD000DE6EDD6AD9CFE9FFDACFEAFFFF0ED880AC
:105AE000EE54000EED540CE3A551EA6A880FE96EFE
:105AF000020EEA22DFCFEFFF0301010E3F6F03D05A
:105B00000301050E3F6FA6D00A0E006E650E016EF2
:105B1000026A00C0E6FF01C0E6FF02C0E6FF3EECFD
:105B200058F0E552E552E5520301030E3F6F92D063
:105B30000201550E8A6F730E8B6F0F0E8C6F110E54
:105B40008D6F640E8E6F910E8F6F906B916B800EC8
:105B5000926F936F946F010E956F966F200E976FF3
:105B6000986F800E996F9A6F200E9B6F840E9C6FBA
:105B70000301010E3F6F6ED00201A76BA751006EAB
:105B8000016A160E005C000E015814E2A751EA6A81
:105B9000880FE96E020EEA22030EEFCFDBFFA7515A
:105BA000EA6A080FE96E020EEA22030EDBCFEFFF6E
:105BB000A72BE4D7000EE66EE66AAEDAE552E552B0
:105BC000F40E006E640E016E026A00C0E6FF01C0B2
:105BD000E6FF02C0E6FF3EEC58F0E552E552E55222
:105BE0000301080E3F6F36D0A4EC55F0200813E1F6
:105BF000ED0E006E640E016E026A00C0E6FF01C089
:105C0000E6FF02C0E6FF3EEC58F0E552E552E552F1
:105C10000301010E3F6F1ED0D40E006E640E016EA4
:105C2000026A00C0E6FF01C0E6FF02C0E6FF3EECEC
:105C300058F0E552E552E5522DEC39F003010A0E19
:105C40003F6F08D030EC39F0010803E10301010E89
:105C50003F6F00D003013E5100D0D9CFE1FFE552A4
:105C6000E7CFD9FF1200D10E006E640E016E026AFA
:105C700000C0E6FF01C0E6FF02C0E6FF3EEC58F0C0
:105C8000E552E552E552B50E006E640E016E026AF1
:105C900000C0E6FF01C0E6FF02C0E6FF3EEC58F0A0
:105CA000E552E552E55202018A51E66EE66A8A51F2
:105CB000E66EE66A940E006E640E016E026A00C023
:105CC000E6FF01C0E6FF02C0E6FF3EEC58F0F56ECD
:105CD000070EE15EF55002018B51E66EE66A8B51CC
:105CE000E66EE66A730E006E640E016E026A00C014
:105CF000E6FF01C0E6FF02C0E6FF3EEC58F0F56E9D
:105D0000070EE15EF55002018C51E66EE66A8C5199
:105D1000E66EE66A520E006E640E016E026A00C004
:105D2000E6FF01C0E6FF02C0E6FF3EEC58F0F56E6C
:105D3000070EE15EF55002018D51E66EE66A8D5167
:105D4000E66EE66A310E006E640E016E026A00C0F5
:105D5000E6FF01C0E6FF02C0E6FF3EEC58F0F56E3C
:105D6000070EE15EF55002018E51E66EE66A8E5135
:105D7000E66EE66A100E006E640E016E026A00C0E6
:105D8000E6FF01C0E6FF02C0E6FF3EEC58F0F56E0C
:105D9000070EE15EF55002018F51E66EE66A8F5103
:105DA000E66EE66AEF0E006E630E016E026A00C0D8
:105DB000E6FF01C0E6FF02C0E6FF3EEC58F0F56EDC
:105DC000070EE15EF55002019051E66EE66A9051D1
:105DD000E66EE66AD10E006E630E016E026A00C0C6
:105DE000E6FF01C0E6FF02C0E6FF3EEC58F0F56EAC
:105DF000070EE15EF550BB0E006E630E016E026A87
:105E000000C0E6FF01C0E6FF02C0E6FF3EEC58F02E
:105E1000E552E552E55202019151E66EE66A915172
:105E2000E66EE66A9C0E006E630E016E026A00C0AA
:105E3000E6FF01C0E6FF02C0E6FF3EEC58F0F56E5B
:105E4000070EE15EF55002019251E66EE66A92514C
:105E5000E66EE66A7D0E006E630E016E026A00C099
:105E6000E6FF01C0E6FF02C0E6FF3EEC58F0F56E2B
:105E7000070EE15EF55002019351E66EE66A93511A
:105E8000E66EE66A5E0E006E630E016E026A00C088
:105E9000E6FF01C0E6FF02C0E6FF3EEC58F0F56EFB
:105EA000070EE15EF55002019451E66EE66A9451E8
:105EB000E66EE66A3F0E006E630E016E026A00C077
:105EC000E6FF01C0E6FF02C0E6FF3EEC58F0F56ECB
:105ED000070EE15EF55002019551E66EE66A9551B6
:105EE000E66EE66A200E006E630E016E026A00C066
:105EF000E6FF01C0E6FF02C0E6FF3EEC58F0F56E9B
:105F0000070EE15EF55002019651E66EE66A965183
:105F1000E66EE66A010E006E630E016E026A00C054
:105F2000E6FF01C0E6FF02C0E6FF3EEC58F0F56E6A
:105F3000070EE15EF55002019751E66EE66A975151
:105F4000E66EE66AE10E006E620E016E026A00C045
:105F5000E6FF01C0E6FF02C0E6FF3EEC58F0F56E3A
:105F6000070EE15EF55002019851E66EE66A98511F
:105F7000E66EE66AC10E006E620E016E026A00C035
:105F8000E6FF01C0E6FF02C0E6FF3EEC58F0F56E0A
:105F9000070EE15EF55002019951E66EE66A9951ED
:105FA000E66EE66AA10E006E620E016E026A00C025
:105FB000E6FF01C0E6FF02C0E6FF3EEC58F0F56EDA
:105FC000070EE15EF55002019A51E66EE66A9A51BB
:105FD000E66EE66A810E006E620E016E026A00C015
:105FE000E6FF01C0E6FF02C0E6FF3EEC58F0F56EAA
:105FF000070EE15EF55002019B51E66EE66A9B5189
:10600000E66EE66A610E006E620E016E026A00C004
:10601000E6FF01C0E6FF02C0E6FF3EEC58F0F56E79
:10602000070EE15EF55002019C51E66EE66A9C5156
:10603000E66EE66A410E006E620E016E026A00C0F4
:10604000E6FF01C0E6FF02C0E6FF3EEC58F0F56E49
:10605000070EE15EF550D10E006E640E016E026A0D
:1060600000C0E6FF01C0E6FF02C0E6FF3EEC58F0CC
:10607000E552E552E5522C0E006E620E016E026A88
:1060800000C0E6FF01C0E6FF02C0E6FF3EEC58F0AC
:10609000E552E552E552120E006E620E016E026A82
:1060A00000C0E6FF01C0E6FF02C0E6FF3EEC58F08C
:1060B000E552E552E552FF0E006E610E016E026A76
:1060C00000C0E6FF01C0E6FF02C0E6FF3EEC58F06C
:1060D000E552E552E552F40E006E610E016E026A61
:1060E00000C0E6FF01C0E6FF02C0E6FF3EEC58F04C
:1060F000E552E552E552D10E006E640E016E026A61
:1061000000C0E6FF01C0E6FF02C0E6FF3EEC58F02B
:10611000E552E552E5521200D9CFE6FFE1CFD9FFB3
:10612000050EE126030EDB6A040EDB6A0201420E55
:10613000086F500E096FDE6ADD6ADECF00F0DDCF3A
:1061400001F0150E005C000E015834E2DECFE9FFCD
:10615000DDCFEAFF080EE926020EEA22020EEFCF9B
:10616000DBFFDBCFE6FFFD0EDBCF02F0FE0EDBCF69
:1061700003F0DE500224006EDD500320016E00C0EB
:10618000E6FF01C0E6FFF2EC54F0E552E552E552BD
:10619000020EDB50006E016AD950030FE96EDACFB0
:1061A000EAFF0050EE260150ED22DF2A010E01E346
:1061B000DB2AC3D7030EDBCFE6FF160EE76EFD0E1C
:1061C000DBCF00F0FE0EDBCF01F0E7500026000E23
:1061D00001220006015A00C0E6FF01C0E6FFF2EC12
:1061E00054F0E552E552E552D9CFE1FFE552E7CF51
:0461F000D9FF1200C1
:0C61F4005B785D20457869740D0A005B43
:10620000775D2053617665206368616E6765730D05
:106210000A005B765D204C6F616420646566617581
:106220006C742076616C7565730D0A005B755D207A
:10623000526573746172742063616D6572610D0AD9
:10624000005B735D204368616E676520434F4D4A74
:10625000203D2025752028307825303258290D0A18
:10626000005B725D204368616E6765204548534C52
:10627000203D2025752028307825303258290D0AF8
:10628000005B715D204368616E6765204548534837
:10629000203D2025752028307825303258290D0AD8
