:020000040000FA
:10080000B8EF56F012000000E1EF39F01200C250CC
:10081000020B01E0010E1200F9EF1EF012000A00B7
:100820004DAE0000210300000A0000004BAE0000A6
:10083000460300000200000046AE00003103000045
:100840000500000042AE00003E030000040000006E
:1008500029AE0000C70200001900000027AE00000A
:10086000440300000200000023AE00003A03000031
:10087000040000001DAE00002B0300000600000075
:10088000060800004203000002000000FEAD000068
:10089000A80200001F000000D9CFE6FFE1CFD9FF7A
:1008A000020EE126FD0EDBCFDEFFDBCFDDFFFB0E10
:1008B000DBCF00F0FC0EDBCF01F0DECF02F0DDCFAE
:1008C00003F003500118E8AE02D0013404D0005008
:1008D000025C0150035805E2FB0EDBCFDEFFDBCFED
:1008E000DDFFDECF00F0DDCF01F000C0F3FF01C07F
:1008F000F4FF00D0D9CFE1FFE552E7CFD9FF1200D6
:10090000D9CFE6FFE1CFD9FFFD0EDBCF00F0FE0E21
:10091000DBCF01F00001800E011410E0FD0EDBCFF3
:1009200000F0FE0EDBCF01F0006C011E000E012274
:1009300000C0F3FF01C0F4FF0CD00BD0FD0EDBCFE5
:1009400000F0FE0EDBCF01F000C0F3FF01C0F4FFAA
:1009500000D0E552E7CFD9FF1200D9CFE6FFE1CFB3
:10096000D9FFFD0EDBCF00F0FE0EDBCF01F0D890FB
:10097000015004E67F0E005C000E015815E2D950CC
:10098000FD0FE96EFF0EDA20EA6EEE2A000EED2270
:10099000FD0EDBCF00F0FE0EDBCF01F000C0F3FF59
:1009A00001C0F4FF2ED02DD0FD0EDBCF00F0FE0EE7
:1009B000DBCF01F0013404E200507F08000E015447
:1009C00015E2D950FD0FE96EFF0EDA20EA6EEE0651
:1009D000000EED5AFD0EDBCF00F0FE0EDBCF01F076
:1009E00000C0F3FF01C0F4FF0CD00BD0FD0EDBCF35
:1009F00000F0FE0EDBCF01F000C0F3FF01C0F4FFFA
:100A000000D0E552E7CFD9FF1200D9CFE6FFE1CF02
:100A1000D9FFFE0EDB5011E1FC0EDBCFE9FFFD0E2E
:100A2000DBCFEAFFEF507F0808E2FC0EDBCFE9FFE7
:100A3000FD0EDBCFEAFF7F0EEF6EE552E7CFD9FF69
:100A40001200D9CFE6FFE1CFD9FFFE0EDB5013E154
:100A5000FC0EDBCFE9FFFD0EDBCFEAFFEFCF00F0AE
:100A60007F0E005C08E2FC0EDBCFE9FFFD0EDBCF62
:100A7000EAFF7F0EEF6EE552E7CFD9FF1200D9CF24
:100A8000E6FFE1CFD9FFFD0EDBCF00F0FE0EDBCF9E
:100A900001F0D890015004E6D00E005C070E01581A
:100AA00006E20201D00EF76F070EF86F19D0FD0EA7
:100AB000DBCF00F0FE0EDBCF01F0013404E200508A
:100AC000CE08080E015406E20201CE0EF76F080EA2
:100AD000F86F06D0FD0EDBCFF7F2FE0EDBCFF8F29B
:100AE000F7C200F0F8C201F0D00E005E070E015A06
:100AF000005000D0E552E7CFD9FF1200F00EE66EAD
:100B0000ECEC4FF0E552938A938893869384998214
:100B10009980938E938C9A849A82998699849A8AE2
:100B20009A8894809A869A8E8C928D928C908D90D1
:100B30008C968D968C948D948C9A8D9A8C988D9899
:100B40008C9E91908C9C8D9C9A9C919C02017F0E16
:100B5000526F52C251F252C250F252C24FF252C2BE
:100B60004EF252C24DF252C24CF252C24BF25A6F86
:100B70005AC259F25AC258F25AC257F25AC256F2DF
:100B80005AC255F25AC254F25AC253F2010EE66EDC
:100B9000E66AE66EE66AE66EE66AE66EE66A40ECED
:100BA0003BF0F56E080EE15EF5503AEC50F075EC56
:100BB0004AF08EEC4AF00201010EC76F470EE66E56
:100BC000020EE66EFEEC3AF0E552E5528BEF3AF09B
:100BD000D9CFE6FFE1CFD9FF020EE126670EE66E20
:100BE000020EE66EE5EC3AF0E552E5520201C5511F
:100BF00004E1C65102E126EC4DF014EC32F00201A2
:100C0000C65102E115EC36F0AFEC39F0020803E111
:100C10000201488502D0020148950201C50505E19F
:100C2000B5EC27F00201C56F17D0C60505E132EC1F
:100C30000FF00201C66F10D003EC36F0DF6E630ECA
:100C4000DF5C04E10201010EC56F06D0740EDF5CAB
:100C500003E10201010EC66F60EC51F01CD85AC2CC
:100C6000E6FF59C2E6FF58C2E6FF57C2E6FF46EC70
:100C700050F0E552E552E552E552470EE66E020E9F
:100C8000E66EFEEC3AF0E552E552D9CFE1FFE552CF
:100C9000E7CFD9FF1200D9CFE6FFE1CFD9FF300E61
:100CA000E12602016D51E66EE66A57DEE552E55235
:100CB000F3CFF6FFF4CFF7FFD890F636F736980E5D
:100CC000F6269C0EF7220900F5CF00F00800F5CFBC
:100CD00001F000C041F001C042F082EC3DF0100E86
:100CE00040C0DBFF110E41C0DBFF120E42C0DBFF34
:100CF000130E43C0DBFF02017151E66EE66A2DDE82
:100D0000E552E552F3CFF6FFF4CFF7FFD890F63671
:100D1000F736980EF6269C0EF7220900F5CF00F064
:100D20000800F5CF01F000C041F001C042F082ECB4
:100D30003DF0140E40C0DBFF150E41C0DBFF160E68
:100D400042C0DBFF170E43C0DBFF02017251E66EAB
:100D5000E66A03DEE552E552F3CFF6FFF4CFF7FF84
:100D6000D890F636F736980EF6269C0EF722090034
:100D7000F5CF00F00800F5CF01F000C041F001C050
:100D800042F082EC3DF0180E40C0DBFF190E41C06E
:100D9000DBFF1A0E42C0DBFF1B0E43C0DBFF100E51
:100DA000DBCF04F0110EDBCF05F0120EDBCF06F027
:100DB000130EDBCF07F0140EDBCF08F0150EDBCFE0
:100DC00009F0160EDBCF0AF0170EDBCF0BF008C0D0
:100DD00045F009C046F00AC047F00BC048F004C017
:100DE00040F005C041F006C042F007C043F095EC6A
:100DF0003DF040C000F041C001F042C002F043C0ED
:100E000003F0180EDBCF0CF0190EDBCF0DF01A0E2D
:100E1000DBCF0EF01B0EDBCF0FF00CC045F00DC08A
:100E200046F00EC047F00FC048F000C040F001C0CF
:100E300041F002C042F003C043F095EC3DF040C0E9
:100E4000DEFF41C0DEFF42C0DEFF43C0DDFFDD52FA
:100E5000DD52100EDBCF04F0110EDBCF05F0120EC9
:100E6000DBCF06F0130EDBCF07F0140EDBCF08F05C
:100E7000150EDBCF09F0160EDBCF0AF0170EDBCF15
:100E80000BF008C045F009C046F00AC047F00BC09F
:100E900048F004C040F005C041F006C042F007C071
:100EA00043F096EC3DF040C000F041C001F042C07C
:100EB00002F043C003F0180EDBCF0CF0190EDBCFAD
:100EC0000DF01A0EDBCF0EF01B0EDBCF0FF00CC0B7
:100ED00045F00DC046F00EC047F00FC048F000C00E
:100EE00040F001C041F002C042F003C043F096EC74
:100EF0003DF0040E40C0DBFF050E41C0DBFF060ED7
:100F000042C0DBFF070E43C0DBFF100EDBCF04F057
:100F1000110EDBCF05F0120EDBCF06F0130EDBCF88
:100F200007F0140EDBCF08F0150EDBCF09F0160E1C
:100F3000DBCF0AF0170EDBCF0BF008C045F009C07D
:100F400046F00AC047F00BC048F004C040F005C0AE
:100F500041F006C042F007C043F095EC3DF040C0C0
:100F600000F041C001F042C002F043C003F0180E8F
:100F7000DBCF0CF0190EDBCF0DF01A0EDBCF0EF02D
:100F80001B0EDBCF0FF00CC045F00DC046F00EC0BD
:100F900047F00FC048F000C040F001C041F002C06F
:100FA00042F003C043F096EC3DF0080E40C0DBFF7A
:100FB000090E41C0DBFF0A0E42C0DBFF0B0E43C02F
:100FC000DBFF100EDBCF04F0110EDBCF05F0120EAD
:100FD000DBCF06F0130EDBCF07F0140EDBCF08F0EB
:100FE000150EDBCF09F0160EDBCF0AF0170EDBCFA4
:100FF0000BF008C045F009C046F00AC047F00BC02E
:1010000048F004C040F005C041F006C042F007C0FF
:1010100043F096EC3DF040C000F041C001F042C00A
:1010200002F043C003F0180EDBCF0CF0190EDBCF3B
:101030000DF01A0EDBCF0EF01B0EDBCF0FF00CC045
:1010400045F00DC046F00EC047F00FC048F000C09C
:1010500040F001C041F002C042F003C043F095EC03
:101060003DF00C0E40C0DBFF0D0E41C0DBFF0E0E4D
:1010700042C0DBFF0F0E43C0DBFFDECF40F0DECF10
:1010800041F0DECF42F0DDCF43F0DD52DD5284ECA3
:101090003FF041C004F042C005F004C0E6FF05C0C7
:1010A000E6FF2EDCE552E552F3CF02F0F4CF03F079
:1010B00002C0E6FF03C0E6FF7F0EE66EE66A4CEC78
:1010C00004F0E552E552E552E552F3CF00F0F4CFDB
:1010D00001F000C041F001C042F082EC3DF01C0E76
:1010E00040C0DBFF1D0E41C0DBFF1E0E42C0DBFF18
:1010F0001F0E43C0DBFF040EDBCF40F0050EDBCF3D
:1011000041F0060EDBCF42F0070EDBCF43F084EC5C
:101110003FF041C004F042C005F004C0E6FF05C046
:10112000E6FF80EC04F0E552E552F3CF02F0F4CF95
:1011300003F002C0E6FF03C0E6FF1C0EDBCF40F069
:101140001D0EDBCF41F01E0EDBCF42F01F0EDBCFBA
:1011500043F084EC3FF041C006F042C007F006C007
:10116000E6FF07C0E6FF4CEC04F0E552E552E5521D
:10117000E552F3CF00F0F4CF01F000C041F001C020
:1011800042F082EC3DF01C0E40C0DBFF1D0E41C062
:10119000DBFF1E0E42C0DBFF1F0E43C0DBFF080E4D
:1011A000DBCF40F0090EDBCF41F00A0EDBCF42F07F
:1011B0000B0EDBCF43F084EC3FF041C004F042C0A3
:1011C00005F004C0E6FF05C0E6FF80EC04F0E55240
:1011D000E552F3CF02F0F4CF03F002C0E6FF03C004
:1011E000E6FF1C0EDBCF40F01D0EDBCF41F01E0EE4
:1011F000DBCF42F01F0EDBCF43F084EC3FF041C069
:1012000006F042C007F006C0E6FF07C0E6FF4CEC60
:1012100004F0E552E552E552E552F3CF00F0F4CF89
:1012200001F000C041F001C042F082EC3DF01C0E24
:1012300040C0DBFF1D0E41C0DBFF1E0E42C0DBFFC6
:101240001F0E43C0DBFF0C0EDBCF40F00D0EDBCFDB
:1012500041F00E0EDBCF42F00F0EDBCF43F084ECFB
:101260003FF041C004F042C005F004C0E6FF05C0F5
:10127000E6FF80EC04F0E552E552F3CF02F0F4CF44
:1012800003F002C0E6FF03C0E6FF1C0EDBCF40F018
:101290001D0EDBCF41F01E0EDBCF42F01F0EDBCF69
:1012A00043F084EC3FF041C006F042C007F006C0B6
:1012B000E6FF07C0E6FF4CEC04F0E552E552E552CC
:1012C000E552F3CF00F0F4CF01F000C041F001C0CF
:1012D00042F082EC3DF01C0E40C0DBFF1D0E41C011
:1012E000DBFF1E0E42C0DBFF1F0E43C0DBFFD9CF6A
:1012F000E9FFDACFEAFFEECF04F0EECF05F0EECF54
:1013000006F0EFCF07F0456A466AFE0E476E420EC2
:10131000486E04C040F005C041F006C042F007C06E
:1013200043F07FEC3EF01C0EDBCF45F01D0EDBCF13
:1013300046F01E0EDBCF47F01F0EDBCF48F02CEC43
:101340003EF040C000F041C001F042C002F043C096
:1013500003F000C0DFFF010E01C0DBFF020E02C080
:10136000DBFF030E03C0DBFF006A016AFE0E026EA4
:10137000C20E036ED9CFE9FFDACFEAFFEECF04F059
:10138000EECF05F0EECF06F0EFCF07F004C045F04A
:1013900005C046F006C047F007C048F000C040F066
:1013A00001C041F002C042F003C043F0B3EC3FF093
:1013B000010A1EE0D9CFE9FFDACFEAFFEECF08F04D
:1013C000EECF09F0EECF0AF0EFCF0BF0456A466A98
:1013D000FE0E476E420E486E08C040F009C041F054
:1013E0000AC042F00BC043F0B3EC3FF0010A12E137
:1013F000010E006E640E016E026A00C0E6FF01C0BD
:10140000E6FF02C0E6FF76EC54F0E552E552E55205
:101410002CEF0FF0040EDBCF04F0050EDBCF05F050
:10142000060EDBCF06F0070EDBCF07F0456A466AF3
:10143000FE0E476E420E486E04C040F005C041F0FB
:1014400006C042F007C043F07FEC3EF01C0EDBCF3D
:1014500045F01D0EDBCF46F01E0EDBCF47F01F0E12
:10146000DBCF48F02CEC3EF040C000F041C001F072
:1014700042C002F043C003F0040E00C0DBFF050EC3
:1014800001C0DBFF060E02C0DBFF070E03C0DBFF5F
:10149000006A016AFE0E026EC20E036E040EDBCFFE
:1014A00004F0050EDBCF05F0060EDBCF06F0070ECD
:1014B000DBCF07F004C045F005C046F006C047F09A
:1014C00007C048F000C040F001C041F002C042F047
:1014D00003C043F0B3EC3FF0010A1EE0040EDBCF83
:1014E00008F0050EDBCF09F0060EDBCF0AF0070E81
:1014F000DBCF0BF0456A466AFE0E476E420E486E21
:1015000008C040F009C041F00AC042F00BC043F0EF
:10151000B3EC3FF0010A12E1DA0E006E630E016EC9
:10152000026A00C0E6FF01C0E6FF02C0E6FF76ECFB
:1015300054F0E552E552E5522CEF0FF0080EDBCFE8
:1015400004F0090EDBCF05F00A0EDBCF06F00B0E20
:10155000DBCF07F0456A466AFE0E476E420E486EC4
:1015600004C040F005C041F006C042F007C043F09F
:101570007FEC3EF01C0EDBCF45F01D0EDBCF46F0BE
:101580001E0EDBCF47F01F0EDBCF48F02CEC3EF0F9
:1015900040C000F041C001F042C002F043C003F07F
:1015A000080E00C0DBFF090E01C0DBFF0A0E02C0FF
:1015B000DBFF0B0E03C0DBFF006A016AFE0E026E4A
:1015C000C20E036E080EDBCF04F0090EDBCF05F070
:1015D0000A0EDBCF06F00B0EDBCF07F004C045F0A0
:1015E00005C046F006C047F007C048F000C040F014
:1015F00001C041F002C042F003C043F0B3EC3FF041
:10160000010A1EE0080EDBCF08F0090EDBCF09F05F
:101610000A0EDBCF0AF00B0EDBCF0BF0456A466AF1
:10162000FE0E476E420E486E08C040F009C041F001
:101630000AC042F00BC043F0B3EC3FF0010A12E1E4
:10164000B30E006E630E016E026A00C0E6FF01C0B9
:10165000E6FF02C0E6FF76EC54F0E552E552E552B3
:101660002CEF0FF00C0EDBCF04F00D0EDBCF05F0EE
:101670000E0EDBCF06F00F0EDBCF07F0456A466A91
:10168000FE0E476E420E486E04C040F005C041F0A9
:1016900006C042F007C043F07FEC3EF01C0EDBCFEB
:1016A00045F01D0EDBCF46F01E0EDBCF47F01F0EC0
:1016B000DBCF48F02CEC3EF040C000F041C001F020
:1016C00042C002F043C003F00C0E00C0DBFF0D0E61
:1016D00001C0DBFF0E0E02C0DBFF0F0E03C0DBFFFD
:1016E000006A016AFE0E026EC20E036E0C0EDBCFA4
:1016F00004F00D0EDBCF05F00E0EDBCF06F00F0E63
:10170000DBCF07F004C045F005C046F006C047F047
:1017100007C048F000C040F001C041F002C042F0F4
:1017200003C043F0B3EC3FF0010A1EE00C0EDBCF28
:1017300008F00D0EDBCF09F00E0EDBCF0AF00F0E16
:10174000DBCF0BF0456A466AFE0E476E420E486ECE
:1017500008C040F009C041F00AC042F00BC043F09D
:10176000B3EC3FF0010A11E18C0E006E630E016EC6
:10177000026A00C0E6FF01C0E6FF02C0E6FF76ECA9
:1017800054F0E552E552E55267D3D9CFE9FFDACFFD
:10179000EAFFEECF00F0EECF01F0EECF02F0EFCF98
:1017A00003F0456A466AFE0E476E420E486E00C060
:1017B00040F001C041F002C042F003C043F096EC9B
:1017C0003DF084EC3FF0280E41C0DBFF290E42C003
:1017D000DBFF006A016AFE0E026E420E036E040E0B
:1017E000DBCF04F0050EDBCF05F0060EDBCF06F0F5
:1017F000070EDBCF07F004C045F005C046F006C079
:1018000047F007C048F000C040F001C041F002C0FE
:1018100042F003C043F095EC3DF084EC3FF02A0E1B
:1018200041C0DBFF2B0E42C0DBFF080EDBCF00F018
:10183000090EDBCF01F00A0EDBCF02F00B0EDBCF7F
:1018400003F0456A466AFE0E476E420E486E00C0BF
:1018500040F001C041F002C042F003C043F096ECFA
:101860003DF084EC3FF02C0E41C0DBFF2D0E42C05A
:10187000DBFF006A016AFE0E026E420E036E0C0E62
:10188000DBCF04F00D0EDBCF05F00E0EDBCF06F044
:101890000F0EDBCF07F004C045F005C046F006C0D0
:1018A00047F007C048F000C040F001C041F002C05E
:1018B00042F003C043F095EC3DF084EC3FF02E0E77
:1018C00041C0DBFF2F0E42C0DBFF280EDBCF00F054
:1018D000290EDBCF01F0013404E200507F08000E36
:1018E000015420E2280EDBCF02F0290EDBCF03F0FB
:1018F000D890035004E6B40E025C000E035812E2C6
:101900000C0EE76E280EDBCF00F0290EDBCF01F0C6
:10191000E7500026000E0122280E00C0DBFF290E32
:1019200001C0DBFF2A0EDBCF00F02B0EDBCF01F076
:10193000013404E200507F08000E015420E22A0E18
:10194000DBCF02F02B0EDBCF03F0D890035004E680
:10195000B40E025C000E035812E20C0EE76E2A0E63
:10196000DBCF00F02B0EDBCF01F0E7500026000E9E
:1019700001222A0E00C0DBFF2B0E01C0DBFF2C0E64
:10198000DBCF00F02D0EDBCF01F0013404E200507C
:101990007F08000E015420E22C0EDBCF02F02D0E4A
:1019A000DBCF03F0D890035004E6B40E025C000EC7
:1019B000035812E20C0EE76E2C0EDBCF00F02D0E5A
:1019C000DBCF01F0E7500026000E01222C0E00C0F4
:1019D000DBFF2D0E01C0DBFF2E0EDBCF00F02F0E44
:1019E000DBCF01F0013404E200507F08000E015407
:1019F00020E22C0EDBCF02F02D0EDBCF03F0D890CF
:101A0000035004E6B40E025C000E035812E20C0E02
:101A1000E76E2E0EDBCF00F02F0EDBCF01F0E7508C
:101A20000026000E01222E0E00C0DBFF2F0E01C08B
:101A3000DBFF280EDBCF4BF22A0EDBCF4CF22C0E55
:101A4000DBCF4DF22E0EDBCF4EF202016951100BAF
:101A500001E0010E0201B66FB76BAC51AD111AE196
:101A6000AC51A825006EAD51A921016E010E0018E0
:101A700001E101500FE1BA07000EBB5BBAC2E6FFFD
:101A8000BBC2E6FF80EC04F0E552E552F3CFBAF2B8
:101A9000F4CFBBF2B6C2B8F2B7C2B9F20201BA5182
:101AA000010BF36EFE0E8D14F3108D6E8C900201FF
:101AB0006951200B01E0010E0201A86FA96BAC5126
:101AC000AD1131E1AC51A825006EAD51A921016ED7
:101AD000010E001801E1015026E1AA2B000EAB23F4
:101AE000AAC200F0ABC201F0020E466E476A00C007
:101AF00041F001C042F0ECEC3EF03DC000F03EC0D1
:101B000001F0010E001801E1015007E1010E020190
:101B1000BC6FBD6BBE6BBF6B06D00201BC6BBD6BF7
:101B2000010EBE6FBF6B81A402D0BE6BBF6B81A6DE
:101B300002D0BC6BBD6BA8C2ACF2A9C2ADF2BC5165
:101B4000010BF36EF346FD0E8D14F3108D6EBE5136
:101B5000010BF36EF346FD0E8C14F3108C6E020134
:101B60006951400B01E0010E0201AE6FAF6BB05145
:101B7000B11114E1B051AE25006EB151AF21016E2B
:101B8000010E001801E1015009E18150100B06E13E
:101B9000C26BC36B010EC06FC16B02D081A800D0B5
:101BA000C26BC36BC06BC16BAEC2B0F2AFC2B1F25D
:101BB00002016951800B01E0010E0201B26FB36BAB
:101BC000B451B51114E1B451B225006EB551B32131
:101BD000016E010E001801E1015009E18150200B56
:101BE00006E1010EC26FC36BC06BC16B06D081AA48
:101BF00004D0C26BC36BC06BC16BB2C2B4F2B3C2D0
:101C0000B5F2C251010BF36EF346F346FB0E8D1491
:101C1000F3108D6EC051010BF36EF346F346FB0ECD
:101C20008C14F3108C6E81AC03D08D968C9602D000
:101C30008D868C96020168BBBDD0000E6D5D07E3FA
:101C40006D51380804E30201479147832DD07D0E82
:101C50006D5D0EE36D51006E016A013404E20050C7
:101C60008108000E015404E30201478147831CD020
:101C70006D51006E016AD890015004E6D80E005CE8
:101C8000000E01580EE36D51026E036A033404E244
:101C90000250FF08000E035404E3020147814793FA
:101CA00003D0020147914793000E02016E5D07E3E6
:101CB0006E51380804E30201479547872DD07D0E09
:101CC0006E5D0EE36E51006E016A013404E2005055
:101CD0008108000E015404E30201478547871CD0A8
:101CE0006E51006E016AD890015004E6D80E005C77
:101CF000000E01580EE36E51026E036A033404E2D3
:101D00000250FF08000E035404E302014785479781
:101D100003D0020147954797479B8D50010B01E087
:101D2000478B47998C50010B01E04789479F8D50A5
:101D3000020B01E0478F479D8C50020B01E0478D5D
:101D40008150040B01E0010E006E016A0050011089
:101D500002E0000E01D0010E010BF36EFE0E4815DD
:101D6000F310486F8150080B01E0010E006E016A0C
:101D70000050011002E0000E01D0010E010BF36EC5
:101D8000F346FD0E4815F310486F8150100B01E02B
:101D9000010E006E016A0050011002E0000E01D039
:101DA000010E010BF36EF346F346FB0E4815F310DC
:101DB000486F52D07EC242F06FEC3DF040C008F058
:101DC00041C009F042C00AF043C00BF0710E456EED
:101DD0003D0E466E7A0E476E410E486E08C040F0CA
:101DE00009C041F00AC042F00BC043F07FEC3EF066
:101DF00040C004F041C005F042C006F043C007F007
:101E0000456A466A800E476E430E486E04C040F035
:101E100005C041F006C042F007C043F02CEC3EF094
:101E200040C000F041C001F042C002F043C003F0E6
:101E3000456A466A200E476E410E486E00C040F06B
:101E400001C041F002C042F003C043F07FEC3EF01D
:101E50005DEC3FF042C047F2D9CFE1FFE552E7CF5A
:101E6000D9FF1200D9CFE6FFE1CFD9FF060EE12658
:101E700003014351090A01E14FD3010A01E114D3DF
:101E80000F0A01E1EAD2010A01E147D2030A01E1A6
:101E900030D2010A01E17FD0070A62E0010A2EE098
:101EA000030A27E0010A01E04FD3010E426F01014E
:101EB000FF6BFF51006E016A150E005C000E0158A9
:101EC00014E2FF51EA6AE00FE96E020EEA22010E07
:101ED000EFCFDBFFFF51EA6AE00FE96E010EEA2265
:101EE000010EDBCFEFFFFF2BE4D70301010E436FA1
:101EF0002BD333DB0301020E436F26D303EC36F002
:101F0000DF6E610EDF5C0EE3DF5072080BE303014E
:101F1000030E436FDFCFFDF1610EDF5C020F0101A5
:101F2000FC6F1DD0750EDF5C06E1B2EC14F003010E
:101F3000060E436F14D0760EDF5C04E10301070E3A
:101F4000436F0DD0770EDF5C04E10301080E436F91
:101F500006D0780EDF5C03E10301436B426BF4D2E1
:101F60000101FB6B03EC36F0000901E0FBD7780EB2
:101F7000006E630E016E026A00C0E6FF01C0E6FF5C
:101F800002C0E6FF76EC54F0E552E552E55203015B
:101F9000040E436FD9D203EC36F0DF6E300EDF5CF7
:101FA00003E3DF50390806E22B0EDF5C03E02D0E61
:101FB000DF5C19E10101FB51006E016A060E005C55
:101FC000000E015810E2DFCFE6FF07EC36F0E552D5
:101FD0000101FB51EA6AF50FE96E010EEA22DFCF3B
:101FE000EFFFFB2B85D10D0EDF5C01E081D12D0EC3
:101FF0000101F55D22E1040EDB68050EDB68FB07DD
:10200000FF6BFF51006E016A060E005C000E015866
:1020100013E2FF29EA6AF50FE96E010EEA22EF509A
:10202000E66EFF51EA6AF50FE96E010EEA22E5520B
:10203000E750EF6EFF2BE5D72FD02B0EF55D25E196
:10204000010EF36E040EF3CFDBFF050EDB6AFB0718
:10205000FF6BFF51006E016A060E005C000E015816
:1020600013E2FF29EA6AF50FE96E010EEA22EF504A
:10207000E66EFF51EA6AF50FE96E010EEA22E552BB
:10208000E750EF6EFF2BE5D707D0010EF36E040E7D
:10209000F3CFDBFF050EDB6AFB51030808E2020EFB
:1020A000DB6A010EF36E030EF3CFDBFFCCD0030E21
:1020B000FB5D56E1300EF55D006E016A640E416E07
:1020C000426A00C046F001C047F03FEC3FF0020E0C
:1020D0003FC0DBFF030E40C0DBFF300E0101F65DA9
:1020E000026E036A0A0E416E426A02C046F003C0E5
:1020F00047F03FEC3FF03FC000F040C001F0D95046
:10210000020FE96EDACFEAFF0050EE260150ED2211
:10211000300E0101F75D006E016AD950020FE96EC1
:10212000DACFEAFF0050EE260150ED22040EDBCF9D
:1021300000F0050EDBCF01F0D950020FE96EDACFC7
:10214000EAFF00C046F001C047F0EECF41F0EDCF0E
:1021500042F03FEC3FF03FC0EEFF40C0EDFF73D0D8
:10216000020EFB5D35E1300EF55D0A0DF350E66EB3
:10217000D950020FE96EDACFEAFFE552E750EE6E72
:10218000ED6A300EF65D006E016AD950020FE96EFD
:10219000DACFEAFF0050EE260150ED22040EDBCF2D
:1021A00000F0050EDBCF01F0D950020FE96EDACF57
:1021B000EAFF00C046F001C047F0EECF41F0EDCF9E
:1021C00042F03FEC3FF03FC0EEFF40C0EDFF3BD0A0
:1021D000FB0526E1300EF55DE66ED950020FE96E83
:1021E000DACFEAFFE552E750EE6EED6A040EDBCF80
:1021F00000F0050EDBCF01F0D950020FE96EDACF07
:10220000EAFF00C046F001C047F0EECF41F0EDCF4D
:1022100042F03FEC3FF03FC0EEFF40C0EDFF13D077
:10222000FB5111E1FC51EA6AE00FE96E010EEA226E
:10223000EF50E66ED950020FE96EDACFEAFFE552B1
:10224000E750EE6EED6A660E0101FD5D03E06E0E75
:10225000FD5D26E1D950020FE96EDACFEAFF010EEB
:10226000EE1801E1ED500BE0D950020FE96EDACF24
:10227000EAFFFF0EEE1802E1FF0EED180DE1FC5132
:10228000EA6AE00FE96E010EEA22020EDBCFEFFFF1
:102290000301010E436F03D00301050E436F28D0E5
:1022A000020EDBCF00F0030EDBCF01F00001800E49
:1022B00001141BE1020EDBCF02F0030EDBCF03F0B3
:1022C000033404E20250FF08000E03540EE3010140
:1022D000FC51EA6AE00FE96E010EEA22020EDBCF42
:1022E000EFFF0301010E436F03D00301050E436F9F
:1022F0002BD1580E006E630E016E026A00C0E6FF1D
:1023000001C0E6FF02C0E6FF76EC54F0E552E5526C
:10231000E5520301030E436F17D103EC36F0DF6E75
:10232000610EDF5C02E102015507620EDF5C04E131
:102330000A0E0201555F90D0630EDF5C03E10201DB
:10234000552B8AD0640EDF5C04E10A0E020155278A
:1023500083D0650EDF5C03E155C2E2F17DD0660EED
:10236000DF5C03E155C2E3F177D0670EDF5C03E188
:1023700055C2E4F171D0680EDF5C03E10201562B17
:102380006BD0690EDF5C04E10A0E0201562764D0AF
:102390006A0EDF5C03E1020156075ED06B0EDF5C64
:1023A00004E10A0E0201565F57D06C0EDF5C03E1B8
:1023B00056C2EAF151D06D0EDF5C03E156C2EBF17B
:1023C0004BD06E0EDF5C03E156C2ECF145D06F0ED0
:1023D000DF5C3CE1550E006E630E016E026A00C0C8
:1023E000E6FF01C0E6FF02C0E6FF76EC54F0E552DE
:1023F000E552E55202015551E66EE66A4A0E006E5C
:10240000630E016E026A00C0E6FF01C0E6FF02C073
:10241000E6FF76EC54F0F56E050EE15EF550020134
:102420005651E66EE66A400E006E630E016E026A59
:1024300000C0E6FF01C0E6FF02C0E6FF76EC54F004
:10244000F56E050EE15EF5508DDA06D0700EDF5C9C
:1024500003E10301010E436F77D00101050EE26F26
:102460007F0EE36FF90EE46F030EE56F060EE66F65
:10247000010EE76F310EE86F4F0EE96FEA6BEB6B01
:10248000B00EEC6F080EED6F060EEE6F010EEF6FE3
:102490002D0EF06F770EF16F060EF26F140EF36FC4
:1024A0000301010E436F50D00101FF6BFF51006E1D
:1024B000016A150E005C000E015814E2FF51EA6A31
:1024C000E00FE96E010EEA22010EEFCFDBFFFF51B4
:1024D000EA6AE00FE96E020EEA22010EDBCFEFFF9F
:1024E000FF2BE4D7200EE66EE66A6DDBE552E5527F
:1024F0002A0E006E630E016E026A00C0E6FF01C084
:10250000E6FF02C0E6FF76EC54F0E552E552E552F4
:102510000301090E436F18D0DCEC51F0200813E1E1
:10252000230E006E630E016E026A00C0E6FF01C05A
:10253000E6FF02C0E6FF76EC54F0E552E552E552C4
:102540000301010E436F00D00301425100D0D9CFE7
:10255000E1FFE552E7CFD9FF1200550E006E630E82
:10256000016E026A00C0E6FF01C0E6FF02C0E6FF9E
:1025700076EC54F0E552E552E552550E006E630ECE
:10258000016E026A00C0E6FF01C0E6FF02C0E6FF7E
:1025900076EC54F0E552E552E5520101E251E66E67
:1025A000E66A050E006E630E016E026A00C0E6FF69
:1025B00001C0E6FF02C0E6FF76EC54F0F56E050EB2
:1025C000E15EF5500101E351E66EE66AE40E006E4D
:1025D000620E016E026A00C0E6FF01C0E6FF02C0A3
:1025E000E6FF76EC54F0F56E050EE15EF550010164
:1025F000E451E66EE66AC60E006E620E016E026A75
:1026000000C0E6FF01C0E6FF02C0E6FF76EC54F032
:10261000F56E050EE15EF5500101E551E66EE66AE4
:10262000AB0E006E620E016E026A00C0E6FF01C0D2
:10263000E6FF02C0E6FF76EC54F0F56E050EE15EB3
:10264000F5500101E651E66EE66A850E006E620EF7
:10265000016E026A00C0E6FF01C0E6FF02C0E6FFAD
:1026600076EC54F0F56E050EE15EF550E7C100F032
:10267000016A00BE016800C0E6FF01C0E6FF600E0F
:10268000026E620E036E046A02C0E6FF03C0E6FF3C
:1026900004C0E6FF76EC54F0F56E050EE15EF550F1
:1026A0000101E851E66EE66A390E006E620E016EB7
:1026B000026A00C0E6FF01C0E6FF02C0E6FF76EC5A
:1026C00054F0F56E050EE15EF5500101E951E66E3C
:1026D000E66A160E006E620E016E026A00C0E6FF28
:1026E00001C0E6FF02C0E6FF76EC54F0F56E050E81
:1026F000E15EF5500101EA51E66EE66AF70E006E02
:10270000610E016E026A00C0E6FF01C0E6FF02C072
:10271000E6FF76EC54F0F56E050EE15EF550010132
:10272000EB51E66EE66AD50E006E610E016E026A2E
:1027300000C0E6FF01C0E6FF02C0E6FF76EC54F001
:10274000F56E050EE15EF5500101EC51E66EE66AAC
:10275000B60E006E610E016E026A00C0E6FF01C097
:10276000E6FF02C0E6FF76EC54F0F56E050EE15E82
:10277000F5500101ED51E66EE66A9A0E006E610EAB
:10278000016E026A00C0E6FF01C0E6FF02C0E6FF7C
:1027900076EC54F0F56E050EE15EF5500101EE5158
:1027A000E66EE66A730E006E610E016E026A00C08C
:1027B000E6FF01C0E6FF02C0E6FF76EC54F0F56EDE
:1027C000050EE15EF550EFC100F0016A00BE016840
:1027D00000C0E6FF01C0E6FF4D0E026E610E036E03
:1027E000046A02C0E6FF03C0E6FF04C0E6FF76EC21
:1027F00054F0F56E050EE15EF5500101F051E66E04
:10280000E66A250E006E610E016E026A00C0E6FFE8
:1028100001C0E6FF02C0E6FF76EC54F0F56E050E4F
:10282000E15EF5500101F151E66EE66A010E006EBF
:10283000610E016E026A00C0E6FF01C0E6FF02C041
:10284000E6FF76EC54F0F56E050EE15EF550010101
:10285000F251E66EE66AE20E006E600E016E026AEA
:1028600000C0E6FF01C0E6FF02C0E6FF76EC54F0D0
:10287000F56E050EE15EF5500101F351E66EE66A74
:10288000BB0E006E600E016E026A00C0E6FF01C062
:10289000E6FF02C0E6FF76EC54F0F56E050EE15E51
:1028A000F550550E006E630E016E026A00C0E6FF21
:1028B00001C0E6FF02C0E6FF76EC54F0E552E552B7
:1028C000E552950E006E600E016E026A00C0E6FFD2
:1028D00001C0E6FF02C0E6FF76EC54F0E552E55297
:1028E000E5527B0E006E600E016E026A00C0E6FFCC
:1028F00001C0E6FF02C0E6FF76EC54F0E552E55277
:10290000E552680E006E600E016E026A00C0E6FFBE
:1029100001C0E6FF02C0E6FF76EC54F0E552E55256
:10292000E5525D0E006E600E016E026A00C0E6FFA9
:1029300001C0E6FF02C0E6FF76EC54F0E552E55236
:10294000E552550E006E630E016E026A00C0E6FF8E
:1029500001C0E6FF02C0E6FF76EC54F0E552E55216
:10296000E5521200550E006E630E016E026A00C041
:10297000E6FF01C0E6FF02C0E6FF76EC54F0E55248
:10298000E552E552550E006E630E016E026A00C0FC
:10299000E6FF01C0E6FF02C0E6FF76EC54F0E55228
:1029A000E552E552450E006E600E016E026A00C0EF
:1029B000E6FF01C0E6FF02C0E6FF76EC54F0E55208
:1029C000E552E5522C0E006E600E016E026A00C0E8
:1029D000E6FF01C0E6FF02C0E6FF76EC54F0E552E8
:1029E000E552E552130E006E600E016E026A00C0E1
:1029F000E6FF01C0E6FF02C0E6FF76EC54F0E552C8
:102A0000E552E552F90E006E5F0E016E026A00C0DB
:102A1000E6FF01C0E6FF02C0E6FF76EC54F0E552A7
:102A2000E552E552DD0E006E5F0E016E026A00C0D7
:102A3000E6FF01C0E6FF02C0E6FF76EC54F0E55287
:102A4000E552E552BE0E006E5F0E016E026A00C0D6
:102A5000E6FF01C0E6FF02C0E6FF76EC54F0E55267
:102A6000E552E552A20E006E5F0E016E026A00C0D2
:102A7000E6FF01C0E6FF02C0E6FF76EC54F0E55247
:102A8000E552E5528B0E006E5F0E016E026A00C0C9
:102A9000E6FF01C0E6FF02C0E6FF76EC54F0E55227
:102AA000E552E552730E006E5F0E016E026A00C0C1
:102AB000E6FF01C0E6FF02C0E6FF76EC54F0E55207
:102AC000E552E5525A0E006E5F0E016E026A00C0BA
:102AD000E6FF01C0E6FF02C0E6FF76EC54F0E552E7
:102AE000E552E552400E006E5F0E016E026A00C0B4
:102AF000E6FF01C0E6FF02C0E6FF76EC54F0E552C7
:102B0000E552E552230E006E5F0E016E026A00C0B0
:102B1000E6FF01C0E6FF02C0E6FF76EC54F0E552A6
:102B2000E552E552030E006E5F0E016E026A00C0B0
:102B3000E6FF01C0E6FF02C0E6FF76EC54F0E55286
:102B4000E552E552E60E006E5E0E016E026A00C0AE
:102B5000E6FF01C0E6FF02C0E6FF76EC54F0E55266
:102B6000E552E552C50E006E5E0E016E026A00C0AF
:102B7000E6FF01C0E6FF02C0E6FF76EC54F0E55246
:102B8000E552E552A20E006E5E0E016E026A00C0B2
:102B9000E6FF01C0E6FF02C0E6FF76EC54F0E55226
:102BA000E552E552550E006E630E016E026A00C0DA
:102BB000E6FF01C0E6FF02C0E6FF76EC54F0E55206
:102BC000E552E5521200D9CFE6FFE1CFD9FF050E5D
:102BD000E126030EDB6A040EDB6A0201470EE06F9A
:102BE0004B0EE16FDE6ADD6ADECF00F0DDCF01F073
:102BF000140E005C000E015834E2DECFE9FFDDCF99
:102C0000EAFFE00EE926020EEA22020EEFCFDBFF1A
:102C1000DBCFE6FFFD0EDBCF02F0FE0EDBCF03F0D5
:102C2000DE500224006EDD500320016E00C0E6FF7E
:102C300001C0E6FF2AEC51F0E552E552E552020EE2
:102C4000DB50006E016AD950030FE96EDACFEAFF5C
:102C50000050EE260150ED22DF2A010E01E3DB2AAF
:102C6000C3D7030EDBCFE6FF150EE76EFD0EDBCFFD
:102C700000F0FE0EDBCF01F0E7500026000E01222F
:102C80000006015A00C0E6FF01C0E6FF2AEC51F041
:102C9000E552E552E552D9CFE1FFE552E7CFD9FF42
:102CA00012008DEC1BF0FB0EDBCFF3FFDB06F350C5
:102CB00000090AE0DBEC1BF0FA0E46EC1CF0F3E135
:102CC000011CF1E1010E01D0000EBCEF1BF08DECF8
:102CD0001BF03B0EE12402E3E168E652E16E010ED7
:102CE000DB6A020EDB6AF90EDBCFF6FFFA0EDBCFF2
:102CF000F7FFFB0EDBCFF8FF0800F550DF6EDF506B
:102D000002E1E2EF1AF0250EDF5C02E0D5EF1AF0E7
:102D1000030EDB6A040EDB6A050EDB6A060EDB6A55
:102D2000070EDB6AF5EC1AF02D0EDF5C0CE02B0EC3
:102D3000DF5C09E0200EDF5C06E0230EDF5C03E0D1
:102D4000300EDF5C1AE1DF50300A14E0130A0FE0A6
:102D5000030A0AE00B0A05E0060AE4E1030EDB8041
:102D6000E1D7030EDB82DED7030EDB84DBD7030E55
:102D7000DB86D8D7030EDB88D5D72A0EDF5C1BE1B4
:102D8000F1EC1AF03FEC1BF010E0030EDB80416821
:102D90004268130EDBCF46F0140EDBCF47F012EC87
:102DA0003FF0040E3FC0DBFF03D0130E28EC1BF0F6
:102DB000F5EC1AF00BD0090EDB6A96EC1BF003E081
:102DC0000AEC1CF0FAD7090E28EC1BF0030EDBB05E
:102DD000DB982E0EDF5C1BE1F5EC1AF02A0EDF5CAF
:102DE0000BE1F1EC1AF03FEC1BF003E1130E7AEC6F
:102DF0001BF0F5EC1AF00BD0090EDB6A96EC1BF019
:102E000003E00AEC1CF0FAD7090E7AEC1BF0680E0E
:102E1000DF5C07E1F5EC1AF0680EDF5C1DE1030EE4
:102E200018D0740EDF5C17E07A0EDF5C14E0480EF9
:102E3000DF5C06E0540EDF5C03E05A0EDF5C02E16B
:102E4000020E07D06C0EDF5C03E06A0EDF5C04E16B
:102E5000010ECDEC1BF0C9DBDF506E0A01E181D31E
:102E60001E0A01E192D1200A01E18FD13F0A01E15E
:102E700049D11A0A01E146D10D0A01E143D1200AE4
:102E800001E140D13A0A01E13DD1200A01E13AD104
:102E9000260A01E135D10D0A01E132D11A0A01E118
:102EA000D9D0200A4AE0300A1FE0460A0EE0250A7F
:102EB00001E085D3D950F90FE96EFF0EDA20EA6EF2
:102EC000010EEE5E000EEE5AEE5ADBEC1BF0250E04
:102ED000E66E95DB03E1011C01E16BD3D7EC1BF03F
:102EE00001E26DD3DB2A6BD3080EDB6A040EDB50E4
:102EF000010806E2040EDB049FEC1BF0DB508BDBC9
:102F0000080EDB5009E0030EDB50010B05E172DB1C
:102F100001E04FD3080EDB6A64DBEFCFDFFF4FEC3D
:102F20001CF003E1011C01E144D3D7EC1BF001E3E9
:102F3000DB2A60DB01E143D33CD3070EDB50020800
:102F40000FE11BEC1CF0030EE2EC1BF00E0EEECFBB
:102F5000DBFF0F0EEECFDBFF100EEECFDBFF20D03E
:102F6000F70EDBCF03F0F80EDBCF04F0020E035EAA
:102F7000000E045AF70E03C0DBFFF80E04C0DBFF9F
:102F800003C0E9FF04C0EAFFD2EC1BF0026A0E0E98
:102F900000C0DBFF0F0E01C0DBFF100E02C0DBFF25
:102FA0000E0EDBCFE6FF0F0EDBCFE6FF100EDBCF02
:102FB000E6FF7CEC55F0E552E552E552130E40C0B9
:102FC000DBFF140E41C0DBFF060EDB5005E0130EE5
:102FD00016EC1CF001E26ADB3AEC1CF002E2130E84
:102FE00037DBFDEC1BF006E0040E16EC1CF002E2F1
:102FF000050E2EDB030EDBB005D0FCDA01E0D9D2E2
:10300000080EDB6A090EDB6A0E0EDBCFF6FF0F0E31
:10301000DBCFF7FF100EDBCFF8FF0800F550DF6EB7
:10302000DF5014E040EC1CF011E24FEC1CF003E127
:10303000011C01E1BED2BBDB01E3DB2A090EDB2A66
:10304000D9500E0FE96E000ECBDBE7D7D3DA01E1E2
:10305000B6D2AFD2C6DA110EEECFDBFF120EEDCF35
:10306000DBFF110EDBCFE6FF120EDBCFE6FF6EECCF
:1030700055F0E552E552130EF3CFDBFF140EF4CFFB
:10308000DBFF060EDB5004E0130ED0DB01E20EDBAB
:103090003AEC1CF002E2130EDBDAAFDB05E0040EC3
:1030A000C5DB02E2050ED4DA030EDBB005D0A2DAEE
:1030B00001E07FD2080EDB6A090EDB6A110EDBCF5E
:1030C000E9FF120EDBCFEAFFEFCFDFFFDF5014E0A6
:1030D000D7DB12E2E4DB03E1011C01E16AD267DB2A
:1030E00001E3DB2A090EDB2A110EDB2ADBCFE9FF25
:1030F000120EE8E3DB2AE6D77DDA01E160D259D28D
:10310000030EDB8E070EDB0410E195DB040E5ADBA9
:103110000A0EEECFDBFF0B0EEECFDBFF0C0EEECF79
:10312000DBFF0D0EEECFDBFF6CD0070EDB5003088C
:103130002CE1030EDBAE0DD0B2DA020E76DAEFCF61
:1031400000F0016A026A036A00AE39D001680268C1
:1031500035D0F70EDBCF01F0F80EDBCF02F0020E18
:10316000015E000E025AF70E01C0DBFFF80E02C02E
:10317000DBFF01C0E9FF02C0EAFFEFCF00F00A0E5B
:1031800000C0DBFF0B0EDB6A38D0070EDB500208F5
:1031900009E1030EDBAE04D059DB02AE10D00ED035
:1031A00055DB0DD0030EDBAE12D079DA020E3DDA1C
:1031B000F9DA026A036A01AE02D002680368E2DA51
:1031C0000C0E02C0DBFF0D0E03C0DBFF1AD0F70EA2
:1031D000DBCF02F0F80EDBCF03F0020E025E000E32
:1031E000035AF70E02C0DBFFF80E03C0DBFF02C07C
:1031F000E9FF03C0EAFFD6DAC5DA0C0EDB6A0D0E72
:10320000DB6A060EDB5005E1010EF36E050EF3CF0F
:10321000DBFF150EDB6A160EDB6AD950370F006E26
:10322000000EDA20016E390E00C0DBFF3A0E01C03D
:10323000DBFF380EDB6A080EDB6A0A0EAEDADF50FF
:10324000780A12E0200A10E0280A0CE0200A0AE0BE
:103250003F0A06E00D0A02E0200A08E1020E05D04E
:10326000080E03D0080EDF26100E97DA030EDBBE21
:1032700002D0DB92DB94DB50800B26E08ADA030E6F
:10328000EB50000AE8AE02D0D89008D0000EEE5CF9
:10329000000EEE58000EEE58000EEE5815E211DA50
:1032A000446845684668476802EC55F00A0E3BC022
:1032B000DBFF0B0E3CC0DBFF0C0E3DC0DBFF0D0E39
:1032C0003EC0DBFF2D0E08D0030EDBA202D02B0E7A
:1032D00003D0DBA408D0200EF36E170EF3CFDBFF74
:1032E000150EDB2A02D0170EDB6A050EDB5003E158
:1032F000B5D901E189D0E20E006EAD0E016E000E6F
:10330000026E070EDBCF03F0046A056A066A03C08B
:1033100044F004C045F005C046F006C047F0D1D9DE
:1033200039EC56F000503B24F36E01503C20F46E13
:1033300002503D20F86EF4CFF7FFF3CFF6FF080000
:10334000090EF5CFDBFF580EDF5C0FE1610EF36E67
:10335000090E79D90AE3200E006E090EDBCFE7FFD4
:103360000050E75E090EE7CFDBFF070EDBCF00F072
:10337000016A026A036A0DDA00C044F001C045F038
:1033800002C046F003C047F0EECF3FF0EECF40F072
:10339000EECF41F0EFCF42F039EC56F042C0EDFFF6
:1033A00041C0EDFF40C0EDFF3FC0EFFF390EDBCF66
:1033B000E9FFDB063A0EDBCFEAFF01E2DB06090E8E
:1033C000DBCFEFFF150EDB2A49D995E1030EDBA613
:1033D0001DD06F0EDF5C06E1BFD918E3150EDB28A8
:1033E00059DA14D0780EDF5C09E0580EDF5C06E095
:1033F000620EDF5C03E0420EDF5C08E1020EF36E5A
:10340000160EF3CFDBFF02D0150EDB6A030EDB5086
:10341000100B0EE0040EDBCF00F0050EDB50D88061
:10342000005406E2060EDB5003E1040EDB5032DAF4
:1034300093D90AE2050EDBCFE7FF150EDB50E75EFE
:10344000050EE7CFDBFF02D0050EDB6A040EDBCFF3
:1034500000F0160E43D9D880005414E2160EDBCFCC
:10346000E6FF150EDBCFE6FF040EDBCFE6FF050E11
:10347000DB50E552E75CE552D880E754E552D8804E
:10348000E7545DD9030EDB50010B0BE1080EDB5056
:1034900008E0B0D801E08DD0080EDB50BCD8080E93
:1034A000DB6A170EDB5007E086D9170EEFD903E170
:1034B000011C01E17ED0160EDB5016E07CD9300EE7
:1034C000E66E9DD802E1011C74E075D9DFCFE6FFFE
:1034D000C0EC54F0E552E552E552F4CF01F00001A2
:1034E000F31C02E1011C65E0050EDBCF00F0160EB7
:1034F000DB50D880005409E2050EDBCFE7FF160E43
:10350000DB50E75E050EE7CFDBFF300EE66E050E03
:10351000C9D94FE1390EDB2ADBCFE9FF3A0E01E3CF
:10352000DB2ADBCFEAFF090EEFCFDBFFDB500EE03B
:1035300042D9090EABD902E1011C3BE0390EDB2A6E
:10354000DBCFE9FF3A0EEDE3DB2AEBD753D831E1CD
:10355000160EDBCFE6FF080EC1D8E552E7245BD894
:103560002ED0070EDB50030A1CE0010A14E0030A08
:1035700007E079D9DBCFEEFF020EDBCFEDFF1FD0E6
:10358000F3D8056A03AE02D0046805682AD8BAD811
:1035900005C0EEFF14D0E8D803BE046822D8B2D824
:1035A0000ED061D9DBCFEFFF0AD079D905E1011C3C
:1035B00003E1F368F46810D0FAD801E3DB2A77D985
:1035C0007CEF16F0010EDBCF00F0020EDBCF01F036
:1035D00000C0F3FF01C0F4FFD9CFE1FFDACFE2FF73
:1035E000CBD029D9020EE2EF1BF061D90800F550CB
:1035F000DF6E1200200EE66E080E52EF1CF0C0ECDB
:1036000054F0E552E552E552F3CF00F0F4CF01F06B
:103610000001F31C1200006E016AD950010F4DD950
:103620000050EE260150ED221200045E000E055AF5
:10363000F70E04C0DBFFF80E05C0DBFF04C0E9FF96
:1036400005C0EAFF1200DBCFF4FFF350F45C120078
:10365000DB50E76E040EE7CFDBFF12000A0EDBCF74
:1036600000F00B0EDBCF01F00C0EDBCF02F00D0EE5
:10367000DBCF03F000500110021003101200130EF4
:10368000EECFDBFF140EEDCFDBFF130EDBCF00F030
:10369000140EDBCF01F00001800E01141200F70EB2
:1036A000DBCF04F0F80EDBCF05F01200050EDB5087
:1036B000E66ED950130F01D9E552E750EE6EED6A70
:1036C00012000A0EDBCF3FF00B0EDBCF40F00C0EEA
:1036D000DBCF41F00D0EDBCF42F01200DBCFE6FF77
:1036E000150EDBCFE6FF050EDB50E552E724E55271
:1036F000E7241200DB50CED8010EF36E060EF3CF96
:10370000DBFF1200EE50EFCFEAFFE96E02C0EEFFE2
:1037100003C0EEFF04C0EEFF1200D9CFE6FFDACF00
:10372000E6FFE1CFD9FFE2CFDAFF1200DFCFE6FFFD
:10373000E66AA6EC56F0E552E552F3501200E76E49
:10374000080EE7CFDBFF1200EECF00F0EECF01F066
:10375000EFCF02F0036A1200050EDBCF00F0150E6A
:10376000DB50D88000541200010EDBCF02F0020EB5
:10377000DBCF03F0046A1200E552E5CFDAFFE7CFB2
:10378000D9FF12000A0E00C0DBFF0B0E01C0DBFFE9
:103790001200D9500A0F5DEF1CF0F36E070EF3CF45
:1037A000DBFF1200EECF00F0EFCF01F01200010EB0
:1037B000DB2A020E1200FC0EDBCFE6FFFD0EDBCF94
:1037C000E6FF1200005E000E015AF70E00C0DBFF9C
:1037D000F80E01C0DBFF00C0E9FF01C0EAFF1200E4
:1037E000DA20EA6EEF2AEECFF6FF000EEF22EECFE0
:1037F000F7FFEF22EECFF8FF1200040EDBCFE6FF5B
:10380000130EDB50E552E75C9ADFDB5004DF060E57
:10381000DB501200090EDB500A0DF350DF24D00FED
:10382000E76E090EE7CFDBFFF5EF1AF0DB50F36E22
:10383000050E23EF1BF0F70EDBCF00F0F80EDBCF09
:1038400001F01200DFCFE6FFFFEF1AF028DF030ED2
:10385000ECDEA4EF1BF051EC16F0E552E552E55218
:10386000E55200091200BDDEEE50EFCFEAFFE96E2F
:10387000010E1200130EDB50F36E040E23EF1BF04B
:10388000040EDB50F36E090E23EF1BF0DBCFE6FFD7
:10389000FFEF1AF0E76E050EE7CFDBFF12008BDFBC
:1038A00022EF1CF0DBCFE6FF86DF2BEF1CF0D950B8
:1038B000F90FE96EFF0EF0EF1BF0E96E000EDA2053
:1038C000EA6E1200D9CFE6FFE1CFD9FF040EE12660
:1038D000FD0EDBCF41F0FE0EDBCF42F082EC3DF07F
:1038E00040C000F041C001F042C002F043C003F00C
:1038F000400E456EA50E466ECA0E476E3C0E486ED3
:1039000000C040F001C041F002C042F003C043F0EB
:103910007FEC3EF040C0DEFF41C0DEFF42C0DEFF74
:1039200043C0DDFFDD52DD52DECF3FF0DECF40F0A1
:10393000DECF41F0DDCF42F0DD52DD5200D0D9CFF5
:10394000E1FFE552E7CFD9FF1200D9CFE6FFE1CF83
:10395000D9FFFB0EDBCF00F0FC0EDBCF01F0FD0E3C
:10396000DBCF02F0FE0EDBCF03F0456A466A7E0E27
:10397000476E430E486E00C040F001C041F002C0E7
:1039800042F003C043F0B3EC3FF0010A26E1FB0E26
:10399000DB6AFC0EDB6A7E0EF36EFD0EF3CFDBFFFF
:1039A000430EF36EFE0EF3CFDBFFFB0EDBCF40F0DA
:1039B000FC0EDBCF41F0FD0EDBCF42F0FE0EDBCF85
:1039C00043F084EC3FF041C000F042C001F000C081
:1039D000F3FF01C0F4FF54D053D0FB0EDBCF00F057
:1039E000FC0EDBCF01F0FD0EDBCF02F0FE0EDBCFD5
:1039F00003F0456A466A476A486A00C040F001C061
:103A000041F002C042F003C043F0BCEC3FF0010AB9
:103A100020E1FB0EDB6AFC0EDB6AFD0EDB6AFE0EAC
:103A2000DB6AFB0EDBCF40F0FC0EDBCF41F0FD0E7E
:103A3000DBCF42F0FE0EDBCF43F084EC3FF041C021
:103A400000F042C001F000C0F3FF01C0F4FF18D045
:103A500017D0FB0EDBCF40F0FC0EDBCF41F0FD0EAC
:103A6000DBCF42F0FE0EDBCF43F084EC3FF041C0F1
:103A700000F042C001F000C0F3FF01C0F4FF00D02D
:103A8000E552E7CFD9FF1200D9CFE6FFE1CFD9FF4A
:103A9000020EE1260C68C20E0D6E9A0E0E6E390EE5
:103AA0000F6E0CC0E6FF0DC0E6FF0EC0E6FF0FC0B4
:103AB000E6FFE66AE66A400EE66EE66ED950FB0F58
:103AC000E96EFF0EDA20EA6EEECFE6FFEECFE6FFFC
:103AD000EECFE6FFEFCFE6FF1EEC22F0F56E080E0C
:103AE000E15EF550E552E7CF0FF0E552E7CF0EF07B
:103AF000E552E7CF0DF0E552E7CF0CF03FC010F0F4
:103B000040C011F041C012F042C013F010C045F0A7
:103B100011C046F012C047F013C048F00CC040F08E
:103B20000DC041F00EC042F00FC043F07FEC3EF0FC
:103B300040C008F041C009F042C00AF043C00BF099
:103B4000340E186EF50E196E080E1A6EBD0E1B6E31
:103B500008C0E6FF09C0E6FF0AC0E6FF0BC0E6FFAB
:103B600018C0E6FF19C0E6FF1AC0E6FF1BC0E6FF5B
:103B7000E66AE66AE66A400EE66ED950FB0FE96E29
:103B8000FF0EDA20EA6EEECFE6FFEECFE6FFEECFD5
:103B9000E6FFEFCFE6FF1EEC22F0F56E080EE15EC9
:103BA000F550E552E7CF1BF0E552E7CF1AF0E552AA
:103BB000E7CF19F0E552E7CF18F0E552E7CF0BF069
:103BC000E552E7CF0AF0E552E7CF09F0E552E7CF3B
:103BD00008F03FC01CF040C01DF041C01EF042C0C4
:103BE0001FF01CC045F01DC046F01EC047F01FC0AE
:103BF00048F018C040F019C041F01AC042F01BC094
:103C000043F07FEC3EF040C014F041C015F042C0DC
:103C100016F043C017F014C045F015C046F016C0AA
:103C200047F017C048F008C040F009C041F00AC092
:103C300042F00BC043F096EC3DF040C004F041C0B0
:103C400005F042C006F043C007F05C0E406EA40EC3
:103C5000416EF10E426E3F0E436EFB0EDBCF45F020
:103C6000FC0EDBCF46F0FD0EDBCF47F0FE0EDBCFC8
:103C700048F07FEC3EF040C020F041C021F042C04F
:103C800022F043C023F020C045F021C046F022C0FE
:103C900047F023C048F004C040F005C041F006C022
:103CA00042F007C043F096EC3DF040C000F041C048
:103CB00001F042C002F043C003F0230E456EA10E96
:103CC000466ECF0E476E420E486E00C040F001C0F7
:103CD00041F002C042F003C043F096EC3DF084ECAA
:103CE0003FF041C0DEFF42C0DDFF000EDFCF41F0FC
:103CF000010EDBCF42F082EC3DF040C000F041C04D
:103D000001F042C002F043C003F000C0E6FF01C072
:103D1000E6FF02C0E6FF03C0E6FF17DEE552E5520C
:103D2000E552E552F3CFDEFFF4CFDDFFDECF00F04A
:103D3000DDCF01F000C0F3FF01C0F4FF00D0D9CF08
:103D4000E1FFE552E7CFD9FF1200D9CFE6FFE1CF7F
:103D5000D9FFFD0EDBCF00F0FE0EDBCF01F0D890D7
:103D6000015004E6930E005C000E015808E3930E28
:103D7000F36EFD0EF3CFDBFFFE0EDB6A14D0FD0EFB
:103D8000DBCF00F0FE0EDBCF01F0013404E2005087
:103D90006B08000E015407E36B0EF36EFD0EF3CFBC
:103DA000DBFFFE0EDB6AFD0EDBCF00F0FE0EDBCF8D
:103DB00001F0013404E200507F08000E01540AE2D1
:103DC000D950FD0FE96EFF0EDA20EA6E0C0EEE26DA
:103DD000000EED22FD0EDBCF00F0FE0EDBCF01F07A
:103DE00000C0F3FF01C0F4FF00D0E552E7CFD9FFD8
:103DF0001200D8CFE4FFE0CFE4FFE46EDACFE4FFB7
:103E0000E2CFDAFFE9CFE4FFEACFE4FFF3CFE4FF4C
:103E1000F4CFE4FF00EE00F0240EE80403E3EECF5D
:103E2000E4FFFBD7E6529E50200B06E09D50200B8E
:103E300003E055EC4BF01AD0A450200B06E0A35041
:103E4000200B03E074EC4BF011D09E50100B06E0F9
:103E50009D50100B03E093EC4BF008D0A450100BD6
:103E600005E0A350100B02E0ABEC4BF0E55200EE86
:103E700023F0240EE80403E3E5CFEDFFFBD7E5CF05
:103E8000F4FFE5CFF3FFE5CFEAFFE5CFE9FFE5CFAC
:103E9000DAFFE550E5CFE0FFE5CFD8FF1000D9CF3E
:103EA000E6FFE1CFD9FF080EE12602017F0E526F37
:103EB00052C251F252C250F252C24FF252C24EF2AC
:103EC00052C24DF252C24CF252C24BF25A6F5AC217
:103ED00059F25AC258F25AC257F25AC256F25AC24C
:103EE00055F25AC254F25AC253F20301136F146BC3
:103EF000116F126B0F6F106B0D6F0E6B8C928D929A
:103F00008C908D908C968D968C948D948C9A8D9AA5
:103F10008C988D988C9E91908C9C8D9C020168ADA4
:103F20007ED2020187A17AD2670EE66E020EE66E9D
:103F3000E5EC3AF0E552E55214EC32F015EC36F0CF
:103F4000AFEC39F0020803E10201488502D002011A
:103F50004895AFEC39F0020805E0AFEC39F0010804
:103F600001E036D2006A016A400E026E420E036E14
:103F700000C0E6FF01C0E6FF02C0E6FF03C0E6FFA7
:103F800000C0E6FF01C0E6FF02C0E6FF03C0E6FF97
:103F900002015651E66EE66A95DCE552E552E552BD
:103FA000E7CF03F0E552E7CF02F0E552E7CF01F0AB
:103FB000E552E7CF00F03FC008F040C009F041C033
:103FC0000AF042C00BF008C0E6FF09C0E6FF0AC0D5
:103FD000E6FF0BC0E6FF3AEC46F0E552E552E5524B
:103FE000E552E552E7CF03F0E552E7CF02F0E552A4
:103FF000E7CF01F0E552E7CF00F03FC004F040C04A
:1040000005F041C006F042C007F004C045F005C00D
:1040100046F006C047F007C048F000C040F001C0BD
:1040200041F002C042F003C043F02CEC3EF040C02F
:10403000DEFF41C0DEFF42C0DEFF43C0DDFFDD52D8
:10404000DD52750E0201555D0AE35551006E016A9D
:10405000013404E200508908000E015415E2555164
:10406000E66EE66A72DEE552E552040EF3CFDBFF40
:10407000050EF4CFDBFF040EDBCF4BF2DBCF4CF2AF
:10408000DBCF4DF2DBCF4EF2D9CFE9FFDACFEAFF3B
:10409000EECF00F0EECF01F0EECF02F0EFCF03F065
:1040A000456A466AC00E476E410E486E00C040F039
:1040B00001C041F002C042F003C043F0BCEC3FF04D
:1040C000010A01E113D102015551750801E30ED136
:1040D0005551046E056AD890055004E6890E045CBB
:1040E000000E055801E302D1D9CFE9FFDACFEAFF8C
:1040F000EECFE6FFEECFE6FFEECFE6FFEFCFE6FF37
:10410000C3DCE552E552E552E552060EF3CFDBFF84
:10411000070EF4CFDBFF060EDBCF0DF3070EDBCF70
:104120000EF3060EDBCF0FF3070EDBCF10F3030108
:10413000FE0ED8800F57000E1057060EDBCF11F37E
:10414000070EDBCF12F3060EDBCF13F3070EDBCF28
:1041500014F3FE0ED8801357000E14570E3504E2E8
:104160000D517F08000E0E550DE2AA0E0EAF02D0C3
:10417000D89003D00D5D000E0E5904E20C0E0D27F1
:10418000000E0E23103504E20F517F08000E10556B
:104190000DE2AA0E10AF02D0D89003D00F5D000E32
:1041A000105904E20C0E0F27000E1023123504E202
:1041B00011517F08000E12550DE2AA0E12AF02D067
:1041C000D89003D0115D000E125904E20C0E112795
:1041D000000E1223143504E213517F08000E14550B
:1041E0000DE2AA0E14AF02D0D89003D0135D000EDA
:1041F000145904E20C0E1327000E14230DC341F0D2
:104200000EC342F082EC3DF040C000F041C001F02E
:1042100042C002F043C003F000C0E6FF01C0E6FF69
:1042200002C0E6FF03C0E6FFA5EC1CF0E552E55234
:10423000E552E552F3CF4BF20FC341F010C342F009
:1042400082EC3DF040C000F041C001F042C002F0FD
:1042500043C003F000C0E6FF01C0E6FF02C0E6FF76
:1042600003C0E6FFA5EC1CF0E552E552E552E5522D
:10427000F3CF4CF211C341F012C342F082EC3DF097
:1042800040C000F041C001F042C002F043C003F062
:1042900000C0E6FF01C0E6FF02C0E6FF03C0E6FF84
:1042A000A5EC1CF0E552E552E552E552F3CF4DF294
:1042B00013C341F014C342F082EC3DF040C000F063
:1042C00041C001F042C002F043C003F000C0E6FF6D
:1042D00001C0E6FF02C0E6FF03C0E6FFA5EC1CF04C
:1042E000E552E552E552E552F3CF4EF2D9CFE9FF60
:1042F000DACFEAFFEECF00F0EECF01F0EECF02F022
:10430000EFCF03F0456A466AC00E476E410E486E15
:1043100000C040F001C041F002C042F003C043F0D1
:10432000BCEC3FF0010A06E18150200B03E18D84D3
:104330008C9402D08D948C948150200B06E0815097
:10434000200B03E18D828C9202D08D928C92815051
:10435000200B06E08150080B03E00301156B166B80
:1043600003011551010BF36EFE0E8D14F3108D6ECB
:104370008C90D9CFE9FFDACFEAFFEECF00F0EECF95
:1043800001F0EECF02F0EFCF03F0456A466AA00ECF
:10439000476E400E486E00C040F001C041F002C0C0
:1043A00042F003C043F0B3EC3FF0010A09E0020120
:1043B0007F0E4E6F4EC24DF24EC24CF24EC24BF2C9
:1043C00081AC03D08D968C9602D08D868C9610D0C1
:1043D00002017F0E4E6F4EC24DF24EC24CF24EC2E3
:1043E0004BF281AC03D08D968C9602D08D868C9644
:1043F0005AC2E6FF59C2E6FF58C2E6FF57C2E6FFBF
:10440000F9EC49F0E552E552E552E552470EE66E09
:10441000020EE66EFEEC3AF0E552E5527FD5D9CFBA
:10442000E1FFE552E7CFD9FF12001200D9CFE6FF36
:10443000E1CFD9FFE552E7CFD9FF1200D9CFE6FF90
:10444000DACFE6FFE1CFD9FFE2CFDAFF4B0EE1246E
:1044500002E3E168E652E16EC3EC26F0D950060FA4
:10446000E8EC26F069EC27F033EC27F002E2E16A91
:10447000E552E16EF550DF6ED9500D0FE8EC26F0F5
:10448000A0EC27F033EC27F002E2E16AE552E16E9E
:10449000F550E76E010EE7CFDBFFB2EC27F09CECA6
:1044A00026F09CEC27F0000EE66EE66A6FEC27F033
:1044B00002E2E16AE552E16EF550190EDB5003E0CD
:1044C0001A0EDB6A16D09CEC27F0010EE66EE66A47
:1044D0006FEC27F002E2E16AE552E16EF550190E49
:1044E000DB5002E1030E01D0050EF36E1A0EF3CF7E
:1044F000DBFF010EDB0456E0FA0EDBCF00F0FB0E13
:10450000DBCF01F0FC0EDBCF02F0FD0EDBCF03F0C2
:1045100076EC27F047E0800EDF5C04E0010EDB5014
:10452000800804E14CEC27F07F0E5CD0DF040DE145
:10453000130EDB5010E092EC26F07F0E53EC27F0C8
:10454000210E0201FD6FFE6B0DD0040EDF5C22E137
:10455000130EDB5003E018EC27F004D0E3DB7F0EF2
:1045600053EC27F01A0EDBA473D30C0EDB5001E1E1
:104570006FD3EDEC26F08CEC27F0020E40C0DBFF91
:10458000030E41C0DBFF040E42C0DBFF050E43C03B
:10459000DBFF5ED3010EDB50040816E17BDB76EC1B
:1045A00027F003E1BFDB3F0E1DD0130EDB5004E00C
:1045B0007CEC27F004E106D07CEC27F003E118EC5A
:1045C00027F046D3AFDB0DD00C0EDB500EE01A0EF9
:1045D000DB50010B0AE1210E0201FD6FFE6B4CEC7A
:1045E00027F07F0E53EC27F033D3B3DB76EC27F0C4
:1045F00002E1C9DB2DD3D9501B0FEADB69EC27F0B0
:104600007CEC52F0F56E060EE15C02E2E16AE552E6
:10461000E16EF55091DB0C0EDB5003E1180EDB6A06
:1046200016D038DB8CEC27F0140E40C0DBFF150EE3
:1046300041C0DBFF160E42C0DBFF170E43C0DBFF9D
:104640001A0EDB50040BE76E180EE7CFDBFF22DB00
:10465000F30E456E040E466E350E476E3F0E486EE5
:1046600015DBBCEC3FF0010A17E1010EE66EE66ACD
:10467000D950140F83EC27F0E2EC51F0F56E060EE2
:10468000E15C02E2E16AE552E16EF55055DB1B0E9A
:10469000DB061C0E01E2DB06F60EDBCF40F0F70E68
:1046A000DBCF41F0F80EDBCF42F0F90EDBCF43F069
:1046B000A0EC40F01D0E3FC0DBFF1E0E40C0DBFF34
:1046C0001F0E41C0DBFF200E42C0DBFF1B0EDBCF05
:1046D00041F01C0EEDDB250E40C0DBFF260E41C075
:1046E000DBFF270E42C0DBFF280E43C0DBFF3EDBB3
:1046F000F60EDBCF45F0F70EDBCF46F0F80EDBCF42
:1047000047F0F90ED9DBA0EC40F0210E3FC0DBFFF3
:10471000220E40C0DBFF230E41C0DBFF240E42C04F
:10472000DBFFD950210FABDBE8AE02D0D88008D038
:10473000010EEE5C800EEE58FF0EEE58FF0EEE58A6
:104740001CE3210EDBCF40F0220EDBCF41F0230E25
:10475000DBCF42F0240EDBCF43F0000E4318E8AE6F
:1047600002D0433409D0FF0ED88040547F0E41540C
:10477000000E4254000E435402E263DBF3D1D950E1
:104780001D0F7DDBE8AE02D0D88008D0800EEE5C35
:10479000FF0EEE58FF0EEE58FF0EEE580CE274DBE3
:1047A00003E0800E006E05D0D9501B0F3DDB21E1E8
:1047B000006A016A2BD01D0EDBCF40F01E0EDBCF4E
:1047C00041F01F0EDBCF42F0200EDBCF43F0000E96
:1047D0004318E8AE02D0433409D0800ED88040544C
:1047E000000E4154000E4254000E435422E24CDBB2
:1047F00004E0800E006E016809D0D9501B0F14DB55
:1048000002E1006A02D0800E006E016A390E00C01B
:10481000DBFF3A0E01C0DBFF370EDB6A380EDB6AC6
:104820002D0EDB6A2E0EDB6A2F0EDB6A300EDB6A82
:10483000CFD01D0EDBCF41F01E0EDBCF42F0370E86
:1048400041C0DBFF380E42C0DBFF210EDBCF41F061
:10485000220EDBCF42F0390E41C0DBFF3A0E42C0E0
:10486000DBFF110EDBCF00F0120EDBCF01F07F0E6D
:10487000005E000E015A080E005E000E015A350E51
:1048800000C0DBFF360E01C0DBFF56DB350EDBCF91
:10489000E6FF360EDBCFE6FF22DB02E2E16AE552FD
:1048A000E16EF550470E3FC0DBFF480E40C0DBFF16
:1048B000490E41C0DBFF4A0E42C0DBFF4ADA470E19
:1048C000DBCF04F0480EDBCF05F0490EDBCF06F05E
:1048D0004A0EDBCF07F004C045F005C046F006C025
:1048E00047F007C048F0D2D995EC3DF0430E40C0E8
:1048F000DBFF440E41C0DBFF450E42C0DBFF460E2E
:1049000043C0DBFF33DA470EDBCF45F0480EDBCF89
:1049100046F0490EDBCF47F04A0ECEDA9BDA390E6D
:10492000DBCF41F03A0EC4DA40C008F041C009F0D4
:1049300042C00AF043C00BF039DAD4DA95EC3DF00E
:10494000BFDA14DA430EDBCF45F0440EDBCF46F07E
:10495000450EDBCF47F0460EAFDA40C00CF041C049
:104960000DF042C00EF043C00FF020DA8FD996EC64
:104970003DF03F0E40C0DBFF400E41C0DBFF410E6B
:1049800042C0DBFF420E43C0DBFF3F0EDBCF00F037
:10499000400EDBCF01F0410EDBCF02F0420EDBCF49
:1049A00003F0180E456E720E466E310E476E3F0EC6
:1049B000486E6CD97FEC3EF02D0E40C0DBFF2E0E12
:1049C00041C0DBFF2F0E42C0DBFF300E43C0DBFFD8
:1049D000C0D9370EDBCF41F0380E6ADA3BDAE6D9C0
:1049E00055D995EC3DF03B0E40C0DBFF3C0E41C07D
:1049F000DBFF3D0E42C0DBFF3E0E43C0DBFF3B0E44
:104A0000DBCF04F03C0EDBCF05F03D0EDBCF06F034
:104A10003E0EF0D9140F77DABFEC43F048D9D950E5
:104A20002D0F67D996EC3DF0CAD9370EDBCF00F0D9
:104A3000380EDBCF01F00001800E011410E0416858
:104A40004268370EDBCF46F0380EDBCF47F012EC72
:104A50003FF0370E3FC0DBFF380E40C0DBFF290EB2
:104A6000DB6A2A0EDB6A800EF36E2B0EF3CFDBFFC0
:104A70003F0EF36E2C0EF3CFDBFFD950370FD4D996
:104A800019E0370EDB50010B04E004D9D950290F8F
:104A900047DAD950370F3BDA010E0F0B06E0EC5224
:104AA000D890ED32EF32E806FAE1F4D8D950140F7D
:104AB00037DAE3D7130EDB5021E0406A416A800EFB
:104AC000426E3F0E436E290EDBCF45F02A0EDBCF40
:104AD00046F02B0EDBCF47F02C0EDBCF48F02CEC52
:104AE0003EF0EED9290E40C0DBFF2A0E41C0DBFFAD
:104AF0002B0E42C0DBFF2C0E43C0DBFF390EDBCF99
:104B0000E6FF3A0EDBCFE6FF290EDBCF04F02A0EDC
:104B1000DBCF05F02B0EDBCF06F02C0E6BD92D0F63
:104B2000F2D9DEEC40F0C3D840C0E6FF41C0E6FF5A
:104B300042C0E6FF43C0E6FFE2EC51F0F56E060E20
:104B4000E15C02E2E16AE552E16EF550310E3FC0F0
:104B5000DBFF320E40C0DBFF330E41C0DBFF340E03
:104B600042C0DBFFD950060F33D9D950310FCBD912
:104B70007AD902E2E16AE552E16EF550DF6E850E08
:104B8000DF143CE0220E0201FD6FFE6BEBD93FC04B
:104B900000F040C001F041C002F042C003F0BBD8B9
:104BA0003FC040F0C2D9BCEC3FF0010A03E1130E54
:104BB000DB5014E1D7D93FC004F040C005F041C03C
:104BC00006F042C007F0A7D83FC040F0BFD9B3EC11
:104BD0003FF0010A12E1130EDB500FE1310EDB6AE8
:104BE000320EDB6A800EF36E330EF3CFDBFF7F0EE7
:104BF000F36E340EF3CFDBFF01D023D9180EDB5058
:104C00000FE0310EDBCF04F0320EDBCF05F0330EB8
:104C1000DBCF06F0340EDBCF07F0FFD89ED90CD0E7
:104C2000310EDBCF00F0320EDBCF01F0330EDBCFE5
:104C300002F0340EDBCF03F0020E00C0DBFF030EE8
:104C400001C0DBFF040E02C0DBFF050E03C0DBFF6B
:104C5000C4D800C03FF001C040F002C041F003C022
:104C600042F0D9CFE1FFDACFE2FFE552E5CFDAFF3C
:104C7000E7CFD9FF1200DA20EA6EEECFE6FFEECFE3
:104C8000E6FFEECFE6FFEFCFE6FF120000C040F0F8
:104C900095EF27F0140EDBCF00F0150EDBCF01F0FF
:104CA000160EDBCF02F0170EDBCF03F01200E55239
:104CB000E552E552E552E552E7CF07F0E552E7CF7E
:104CC00006F0E552E7CF05F0E552E7CF04F03FC02C
:104CD00008F040C009F041C00AF042C00BF03FC0EC
:104CE00045F040C046F041C047F042C048F0ADEF4B
:104CF00027F00DD9EECF40F0EECF41F0EECF42F0ED
:104D0000EFCF43F000C045F001C046F002C047F0CD
:104D100003C048F01200456A466A800E476E3F0E97
:104D2000486E1200020EDB6A030EDB6A800EF36E21
:104D3000040EF3CFDBFF1200140E3FC0DBFF150E95
:104D400040C0DBFF160E41C0DBFF170E42C0DBFF89
:104D50001200F60EDBCF00F0F70EDBCF01F0F80EFD
:104D6000DBCF02F0F90EDBCF03F01200250EDBCF14
:104D700040F0260EDBCF41F0270EDBCF42F0280EAD
:104D8000DBCF43F01200D950FA0FE96EFF0EDA20A4
:104D9000EA6E020EEECFDBFF030EEECFDBFF040E5A
:104DA000EECFDBFF050EEECFDBFF120040C045F07B
:104DB00041C046F042C047F043C048F0120043C033
:104DC000EDFF42C0EDFF41C0EDFF40C0EFFF12001C
:104DD000E66E000EDA20E66E1200020EDBCF00F067
:104DE000030EDBCF01F0040EDBCF02F0050EDBCFAC
:104DF00003F01200DBCF07F004C0E6FF05C0E6FFBA
:104E000006C0E6FF07C0E6FFD9501200D4EC55F00B
:104E1000E552E552E552E5521200456A466A800EB7
:104E2000476EBF0E486E120072D8EE50ED101200A1
:104E3000020EDB6A030EDB6A040EDB6A050EDB6A18
:104E40001200310EDB6A320EDB6A330EDB6A340E7F
:104E5000DB6A120040C004F041C005F042C006F019
:104E600043C007F012000CEC53F0F56E060EE15C47
:104E70001200DFEC4BF0F56E080EE15C120047D833
:104E8000030EEB50FF0A12001B0E1C0EDBCF03F0CB
:104E90000001800E03141200020EDB68030EDB68B3
:104EA000040EDB681200F36E050EF3CFDBFF120079
:104EB000DBCF42F082EF3DF0DBCF48F07FEF3EF0FA
:104EC00040C000F041C001F042C002F043C003F016
:104ED0001200D950FA0FE96EFF0E3BEF26F030D8E2
:104EE00039EF27F004C040F0A6EF27F014DFCEDE44
:104EF000D7EC40F0010A1200CDDE0DDFC7DEBCECBE
:104F00003FF0010A1200E96E000E3BEF26F0E96E59
:104F1000000EDA20EA6E120080DFB8DE7FEF3EF08E
:104F2000E8DE7FEC3EF0DFEF26F001C041F002C08A
:104F300042F003C043F01200D950190FE8EF26F0F9
:104F4000D950F60FE96EFF0E3BEF26F005C041F099
:104F500006C042F007C043F01200C4DF7FEC3EF011
:104F600060EF27F0B6DF06EF27F0D9CFE6FFE1CFFD
:104F7000D9FF040EE126030147510A0A01E19AD242
:104F8000030A01E181D2010A01E166D20F0A01E1BF
:104F90002BD2010A01E104D2030A01E1EDD1010A99
:104FA00001E189D0070A6CE0010A2EE0030A27E03C
:104FB000010A01E087D2010E466F0201A76BA751DB
:104FC000006E016A160E005C000E015814E2A75133
:104FD000EA6A080FE96E020EEA22030EEFCFDBFF4A
:104FE000A751EA6A880FE96E020EEA22030EDBCFB0
:104FF000EFFFA72BE4D70301010E476F63D26BDAF3
:105000000301020E476F5ED203EC36F0E76E020E2C
:10501000E7CFDBFF610EF36E020EDBCFF4FFF35040
:10502000F45C0EE3020EDB5073080AE30301030E87
:10503000476F020EDB509F0F020F0201A56F1FD0BA
:10504000020EDB50750804E10301090E476F17D00B
:10505000020EDB50760804E10301060E476F0FD005
:10506000020EDB50770804E10301070E476F07D0FB
:10507000020EDB50780803E10301476B466B22D236
:105080000201A46B03EC36F0000901E0FBD79A0E95
:10509000006E5D0E016E026A00C0E6FF01C0E6FF11
:1050A00002C0E6FF76EC54F0E552E552E55203010A
:1050B000040E476F07D203EC36F0E76E020EE7CF1F
:1050C000DBFF300EF36E020EDBCFF4FFF350F45C27
:1050D00004E3020EDB50390820E2610EF36E020E8B
:1050E000DBCFF4FFF350F45C04E3020EDB50660800
:1050F00014E2410EF36E020EDBCFF4FFF350F45CCA
:1051000004E3020EDB50460808E2020EDB5078088A
:1051100004E0020EDB50580835E10201A451006E94
:10512000016A060E005C000E01582CE2610EF36E5F
:10513000020EDBCFF4FFF350F45C04E3020EDB500D
:10514000660804E2020EDB5078080AE1200E006EC9
:10515000020EDBCFE7FF0050E75E020EE7CFDBFF7A
:10516000020EDBCFE6FF07EC36F0E5520201A45158
:10517000EA6A9E0FE96E020EEA22020EDBCFEFFF13
:10518000A42BF9D0020EDB500D0801E0F4D0300E54
:1051900002019E5D01E079D0580E9F5D76E1A45139
:1051A000040804E2DE6A010EDD6E6ED0040EA45D1A
:1051B00044E1300EA05D0AE3A051390807E3300E48
:1051C000A05D100DF350DE6EDD6A14D0410EA05DBF
:1051D0000BE3A051460808E3410EA05D0A0F100D35
:1051E000F350DE6EDD6A06D0580EA05D03E1DE6A84
:1051F000010EDD6E300EA15D09E3A151390806E311
:10520000300EA15DDE26000EDD2216D0410EA15D1E
:105210000AE3A151460807E3410EA15D0A0FDE260D
:10522000000EDD2209D0580EA15D06E1D9CFE9FFBD
:10523000DACFEAFFEE52ED2A27D0030EA45D21E17A
:10524000300EA05D08E3A051390805E3300EA05DE3
:10525000DE6EDD6A15D0410EA05D09E3A05146085F
:1052600006E3410EA05D0A0FDE6EDD6A09D0580E1E
:10527000A05D06E1D9CFE9FFDACFEAFFEE52ED2AD1
:1052800003D0DE6A010EDD6E5DD0A451030804E296
:10529000DE6A010EDD6E56D0030EA45D32E1300EE3
:1052A0009E5D006E016A640E416E426A00C046F067
:1052B00001C047F03FEC3FF03FC0DEFF40C0DDFFE4
:1052C000300E02019F5D026E036A0A0E416E426A51
:1052D00002C046F003C047F03FEC3FF03FC000F093
:1052E00040C001F0D9CFE9FFDACFEAFF0050EE2647
:1052F0000150ED22300E0201A05DDE26000EDD22FF
:1053000021D0020EA45D0CE1300E9E5D0A0DF3501B
:10531000DE6EDD6A300E9F5DDE26000EDD2212D0CD
:10532000A40505E1300E9E5DDE6EDD6A0BD0A45152
:1053300009E1A551EA6A880FE96E020EEA22EF50F0
:10534000DE6EDD6AD9CFE9FFDACFEAFFFF0ED88043
:10535000EE54000EED540CE3A551EA6A880FE96E95
:10536000020EEA22DFCFEFFF0301010E476F03D0E9
:105370000301050E476FA6D07A0E006E5D0E016E1A
:10538000026A00C0E6FF01C0E6FF02C0E6FF76EC5D
:1053900054F0E552E552E5520301030E476F92D0F7
:1053A0000201550E8A6F730E8B6F0F0E8C6F110EEC
:1053B0008D6F640E8E6F910E8F6F906B916B800E60
:1053C000926F936F946F010E956F966F200E976F8B
:1053D000986F800E996F9A6F200E9B6F840E9C6F52
:1053E0000301010E476F6ED00201A76BA751006E3B
:1053F000016A160E005C000E015814E2A751EA6A19
:10540000880FE96E020EEA22030EEFCFDBFFA751F1
:10541000EA6A080FE96E020EEA22030EDBCFEFFF05
:10542000A72BE4D7000EE66EE66AAEDAE552E55247
:10543000640E006E5D0E016E026A00C0E6FF01C0E0
:10544000E6FF02C0E6FF76EC54F0E552E552E55285
:105450000301080E476F36D0DCEC51F0200813E151
:105460005D0E006E5D0E016E026A00C0E6FF01C0B7
:10547000E6FF02C0E6FF76EC54F0E552E552E55255
:105480000301010E476F1ED0440E006E5D0E016ECB
:10549000026A00C0E6FF01C0E6FF02C0E6FF76EC4C
:1054A00054F0E552E552E55265EC35F003010A0E81
:1054B000476F08D068EC35F0010803E10301010EE5
:1054C000476F00D00301465100D0D9CFE1FFE5522C
:1054D000E7CFD9FF1200410E006E5D0E016E026A29
:1054E00000C0E6FF01C0E6FF02C0E6FF76EC54F024
:1054F000E552E552E552250E006E5D0E016E026A20
:1055000000C0E6FF01C0E6FF02C0E6FF76EC54F003
:10551000E552E552E55202018A51E66EE66A8A5189
:10552000E66EE66A040E006E5D0E016E026A00C051
:10553000E6FF01C0E6FF02C0E6FF76EC54F0F56E30
:10554000070EE15EF55002018B51E66EE66A8B5163
:10555000E66EE66AE30E006E5C0E016E026A00C043
:10556000E6FF01C0E6FF02C0E6FF76EC54F0F56E00
:10557000070EE15EF55002018C51E66EE66A8C5131
:10558000E66EE66AC20E006E5C0E016E026A00C034
:10559000E6FF01C0E6FF02C0E6FF76EC54F0F56ED0
:1055A000070EE15EF55002018D51E66EE66A8D51FF
:1055B000E66EE66AA10E006E5C0E016E026A00C025
:1055C000E6FF01C0E6FF02C0E6FF76EC54F0F56EA0
:1055D000070EE15EF55002018E51E66EE66A8E51CD
:1055E000E66EE66A800E006E5C0E016E026A00C016
:1055F000E6FF01C0E6FF02C0E6FF76EC54F0F56E70
:10560000070EE15EF55002018F51E66EE66A8F519A
:10561000E66EE66A5F0E006E5C0E016E026A00C006
:10562000E6FF01C0E6FF02C0E6FF76EC54F0F56E3F
:10563000070EE15EF55002019051E66EE66A905168
:10564000E66EE66A410E006E5C0E016E026A00C0F4
:10565000E6FF01C0E6FF02C0E6FF76EC54F0F56E0F
:10566000070EE15EF5502B0E006E5C0E016E026AB5
:1056700000C0E6FF01C0E6FF02C0E6FF76EC54F092
:10568000E552E552E55202019151E66EE66A91510A
:10569000E66EE66A0C0E006E5C0E016E026A00C0D9
:1056A000E6FF01C0E6FF02C0E6FF76EC54F0F56EBF
:1056B000070EE15EF55002019251E66EE66A9251E4
:1056C000E66EE66AED0E006E5B0E016E026A00C0C9
:1056D000E6FF01C0E6FF02C0E6FF76EC54F0F56E8F
:1056E000070EE15EF55002019351E66EE66A9351B2
:1056F000E66EE66ACE0E006E5B0E016E026A00C0B8
:10570000E6FF01C0E6FF02C0E6FF76EC54F0F56E5E
:10571000070EE15EF55002019451E66EE66A94517F
:10572000E66EE66AAF0E006E5B0E016E026A00C0A6
:10573000E6FF01C0E6FF02C0E6FF76EC54F0F56E2E
:10574000070EE15EF55002019551E66EE66A95514D
:10575000E66EE66A900E006E5B0E016E026A00C095
:10576000E6FF01C0E6FF02C0E6FF76EC54F0F56EFE
:10577000070EE15EF55002019651E66EE66A96511B
:10578000E66EE66A710E006E5B0E016E026A00C084
:10579000E6FF01C0E6FF02C0E6FF76EC54F0F56ECE
:1057A000070EE15EF55002019751E66EE66A9751E9
:1057B000E66EE66A510E006E5B0E016E026A00C074
:1057C000E6FF01C0E6FF02C0E6FF76EC54F0F56E9E
:1057D000070EE15EF55002019851E66EE66A9851B7
:1057E000E66EE66A310E006E5B0E016E026A00C064
:1057F000E6FF01C0E6FF02C0E6FF76EC54F0F56E6E
:10580000070EE15EF55002019951E66EE66A995184
:10581000E66EE66A110E006E5B0E016E026A00C053
:10582000E6FF01C0E6FF02C0E6FF76EC54F0F56E3D
:10583000070EE15EF55002019A51E66EE66A9A5152
:10584000E66EE66AF10E006E5A0E016E026A00C044
:10585000E6FF01C0E6FF02C0E6FF76EC54F0F56E0D
:10586000070EE15EF55002019B51E66EE66A9B5120
:10587000E66EE66AD10E006E5A0E016E026A00C034
:10588000E6FF01C0E6FF02C0E6FF76EC54F0F56EDD
:10589000070EE15EF55002019C51E66EE66A9C51EE
:1058A000E66EE66AB10E006E5A0E016E026A00C024
:1058B000E6FF01C0E6FF02C0E6FF76EC54F0F56EAD
:1058C000070EE15EF550410E006E5D0E016E026A3C
:1058D00000C0E6FF01C0E6FF02C0E6FF76EC54F030
:1058E000E552E552E5529C0E006E5A0E016E026AB8
:1058F00000C0E6FF01C0E6FF02C0E6FF76EC54F010
:10590000E552E552E552820E006E5A0E016E026AB1
:1059100000C0E6FF01C0E6FF02C0E6FF76EC54F0EF
:10592000E552E552E5526F0E006E5A0E016E026AA4
:1059300000C0E6FF01C0E6FF02C0E6FF76EC54F0CF
:10594000E552E552E552640E006E5A0E016E026A8F
:1059500000C0E6FF01C0E6FF02C0E6FF76EC54F0AF
:10596000E552E552E552410E006E5D0E016E026A8F
:1059700000C0E6FF01C0E6FF02C0E6FF76EC54F08F
:10598000E552E552E5521200D9CFE6FFE1CFD9FF4B
:10599000050EE126030EDB6A040EDB6A0201420EED
:1059A000086F500E096FDE6ADD6ADECF00F0DDCFD2
:1059B00001F0150E005C000E015834E2DECFE9FF65
:1059C000DDCFEAFF080EE926020EEA22020EEFCF33
:1059D000DBFFDBCFE6FFFD0EDBCF02F0FE0EDBCF01
:1059E00003F0DE500224006EDD500320016E00C083
:1059F000E6FF01C0E6FF2AEC51F0E552E552E55220
:105A0000020EDB50006E016AD950030FE96EDACF47
:105A1000EAFF0050EE260150ED22DF2A010E01E3DD
:105A2000DB2AC3D7030EDBCFE6FF160EE76EFD0EB3
:105A3000DBCF00F0FE0EDBCF01F0E7500026000EBA
:105A400001220006015A00C0E6FF01C0E6FF2AEC71
:105A500051F0E552E552E552D9CFE1FFE552E7CFEB
:105A6000D9FF12005B785D20457869740D0A005BF0
:105A7000775D2053617665206368616E6765730D9D
:105A80000A005B765D204C6F616420646566617519
:105A90006C742076616C7565730D0A005B755D2012
:105AA000526573746172742063616D6572610D0A71
:105AB000005B735D204368616E676520434F4D4A0C
:105AC000203D2025752028307825303258290D0AB0
:105AD000005B725D204368616E6765204548534CEA
:105AE000203D2025752028307825303258290D0A90
:105AF000005B715D204368616E67652045485348CF
:105B0000203D2025752028307825303258290D0A6F
:105B1000005B705D204368616E676520434F4D49AF
:105B2000203D2025752028307825303258290D0A4F
:105B3000005B6F5D204368616E676520434F4D4297
:105B4000203D2025752028307825303258290D0A2F
:105B5000005B6E5D204368616E676520434F4D4179
:105B6000203D2025752028307825303258290D0A0F
:105B7000005B6D5D204368616E6765204145432091
:105B80003D2025752028307825303258290D0A000F
:105B90005B6C5D204368616E676520425254203D16
:105BA0002025752028307825303258290D0A005BD1
:105BB0006B5D204368616E676520534154203D2032
:105BC00025752028307825303258290D0A005B6A67
:105BD0005D204368616E676520524544203D202565
:105BE000752028307825303258290D0A005B695D10
:105BF000204368616E676520424C55203D20257525
:105C00002028307825303258290D0A005B685D2045
:105C10004368616E676520414743203D202575201C
:105C200028307825303258290D0A000D0A41647653
:105C3000616E636564206F7074696F6E733A0D0AEC
:105C4000005B675D204368616E6765204E46203DBE
:105C50002025752028307825303258290D0A005B20
:105C6000665D204368616E676520425F4D61782004
:105C70003D2025752028307825303258290D0A001E
:105C80005B655D204368616E676520425F4D696EAC
:105C9000203D2025752028307825303258290D0ADE
:105CA000005B645D204368616E676520475F4D61FE
:105CB00078203D2025752028307825303258290D50
:105CC0000A005B635D204368616E676520475F4D36
:105CD000696E203D202575202830782530325829DE
:105CE0000D0A005B625D204368616E676520525F4C
:105CF0004D6178203D202575202830782530325898
:105D0000290D0A005B615D204368616E6765205262
:105D10005F4D696E203D2025752028307825303272
:105D200058290D0A000D0A43616C69627261746939
:105D30006F6E20706172616D65746572733A0D0AE1
:105D4000000D0A000D0A52657374617274696E6702
:105D50002043616D6572612E2E2E0D0A00446F6E18
:105D6000650D0A000D0A536176696E6720746F2015
:105D7000454550524F4D2E2E2E000D0A4572726F22
:105D8000723A204E756D626572206F7574206F6671
:105D90002072616E67652E0D0A000D0A456E7465EE
:105DA00072206E65772076616C756520287072654B
:105DB000636565642068657861646563696D616CBD
:105DC000206E756D62657273207769746820307813
:105DD000293A20004E6F2063616D65726120646115
:105DE00074612E2E2E0D0A00436F6E666964656E17
:105DF00063652028506978656C732920203D202533
:105E0000750D0A0020426C6F622053697A65202864
:105E1000506978656C732920203D2025750D0A0096
:105E200054696C74204572726F72202850697865CD
:105E30006C732920203D2025640D0A002050616EDE
:105E4000204572726F722028506978656C73292022
:105E5000203D2025640D0A0054696C7420416E6752
:105E60006C6520286465677265657329203D20256F
:105E7000640D0A002050616E20416E676C65202819
:105E80006465677265657329203D2025640D0A00ED
:105E90000D0A00536561726368696E672E2E2E0DC0
:105EA0000A005B705D2052657475726E20546F201D
:105EB0004D61696E20547261636B696E67204D6538
:105EC0006E750D0A005B6F5D20446973706C6179BB
:105ED0002043757272656E742050574D2056616C68
:105EE0007565730D0A005B6E5D20536574205469FF
:105EF0006C74204D61782050574D2056616C75654B
:105F00000D0A005B6D5D205365742054696C74202C
:105F100043656E7465722050574D2056616C7565EF
:105F20000D0A005B6C5D205365742054696C74200D
:105F30004D696E2050574D2056616C75650D0A00F5
:105F40005B6B5D2054696C7420446F776E205465E0
:105F50006E2053746570730D0A005B6A5D2054698E
:105F60006C7420446F776E204F6E6520537465709B
:105F70000D0A005B695D2054696C742055702054D3
:105F8000656E2053746570730D0A005B685D205464
:105F9000696C74205570204F6E6520537465700DC8
:105FA0000A005B675D205365742050616E204D616F
:105FB000782050574D2056616C75650D0A005B6660
:105FC0005D205365742050616E2043656E74657268
:105FD0002050574D2056616C75650D0A005B655D5C
:105FE000205365742050616E204D696E2050574DCE
:105FF0002056616C75650D0A005B645D2050616E12
:106000002052696768742054656E205374657073FC
:106010000D0A005B635D2050616E205269676874F1
:10602000204F6E6520537465700D0A005B625D2021
:1060300050616E204C6566742054656E2053746503
:1060400070730D0A005B615D2050616E204C6566C7
:1060500074204F6E6520537465700D0A005B785D87
:1060600020457869740D0A005B775D205361766581
:10607000206368616E6765730D0A005B765D204C76
:106080006F61642064656661756C742076616C75FF
:1060900065730D0A005B755D20496E7465726163FE
:1060A000746976652050574D2041646A7573746D2C
:1060B000656E74204D656E750D0A005B725D204340
:1060C00068616E676520436F6E666964656E6365BF
:1060D000205468726573686F6C64203D2025750DCF
:1060E0000A005B715D204368616E676520536561DE
:1060F0007263682044656C6179203D2025750D0A26
:10610000005B705D204368616E67652054696C7444
:106110002054617267657420506978656C203D2059
:1061200025750D0A005B6F5D204368616E67652011
:1061300054696C7420536561726368205374657090
:106140002053697A65203D2025750D0A005B6E5D40
:10615000204368616E67652054696C7420526F74C7
:106160006174696F6E205369676E203D20252B6432
:106170000D0A005B6D5D204368616E6765205469A0
:106180006C7420416C6C6F7761626C652045727233
:106190006F72203D2025750D0A005B6C5D20436801
:1061A000616E67652054696C74204761696E203D9B
:1061B0002025750D0A005B6B5D204368616E676585
:1061C0002054696C74204D61782050574D203D203B
:1061D00025750D0A005B6A5D204368616E67652066
:1061E00054696C742043656E7465722050574D205D
:1061F0003D2025750D0A005B695D204368616E676F
:10620000652054696C74204D696E2050574D203DB7
:106210002025750D0A005B685D204368616E676527
:106220002050616E205461726765742050697865F2
:106230006C203D2025750D0A005B675D2043686179
:106240006E67652050616E205365617263682053EC
:106250007465702053697A65203D2025750D0A000C
:106260005B665D204368616E67652050616E2052F9
:106270006F746174696F6E205369676E203D2025CD
:106280002B640D0A005B655D204368616E676520C5
:1062900050616E20416C6C6F7761626C6520457255
:1062A000726F72203D2025750D0A005B645D2043EE
:1062B00068616E67652050616E204761696E203DA0
:1062C0002025750D0A005B635D204368616E67657C
:1062D0002050616E204D61782050574D203D202583
