:020000040000FA
:1008000013EF45F0120000009DEF32F01200C250CD
:10081000020B01E0010E1200C0EF2BF012000B00E2
:10082000EA8A0000EF0200000A000000E88A0000E7
:100830002503000002000000E38A00000603000018
:1008400005000000DF8A000017030000040000001C
:10085000C68A0000A802000019000000C48A000037
:100860002303000002000000C08A00001303000000
:1008700004000000BA8A0000000300000600000027
:10088000060800002103000002000000B78A0000F3
:100890001E03000003000000B48A00001B030000D8
:1008A00003000000D9CFE6FFE1CFD9FF020EE12619
:1008B000FD0EDBCFDEFFDBCFDDFFFB0EDBCF2BF052
:1008C000FC0EDBCF2CF0DECF2DF0DDCF2EF02E5046
:1008D0002C18E8AE02D02C3404D02B502D5C2C50B8
:1008E0002E5805E2FB0EDBCFDEFFDBCFDDFFDECFD8
:1008F0002BF0DDCF2CF02BC0F3FF2CC0F4FF00D089
:10090000D9CFE1FFE552E7CFD9FF1200D9CFE6FFFB
:10091000E1CFD9FFFD0EDBCF2BF0FE0EDBCF2CF0AD
:100920000001800E2C1410E0FD0EDBCF2BF0FE0E2C
:10093000DBCF2CF02B6C2C1E000E2C222BC0F3FFD7
:100940002CC0F4FF0CD00BD0FD0EDBCF2BF0FE0E35
:10095000DBCF2CF02BC0F3FF2CC0F4FF00D0E5520E
:10096000E7CFD9FF1200D9CFE6FFE1CFD9FFFD0EC7
:10097000DBCF2BF0FE0EDBCF2CF0D8902C5004E612
:100980007F0E2B5C000E2C5815E2D950FD0FE96E3E
:10099000FF0EDA20EA6EEE2A000EED22FD0EDBCF0E
:1009A0002BF0FE0EDBCF2CF02BC0F3FF2CC0F4FF9E
:1009B0002ED02DD0FD0EDBCF2BF0FE0EDBCF2CF09A
:1009C0002C3404E22B507F08000E2C5415E2D95031
:1009D000FD0FE96EFF0EDA20EA6EEE06000EED5A0C
:1009E000FD0EDBCF2BF0FE0EDBCF2CF02BC0F3FF88
:1009F0002CC0F4FF0CD00BD0FD0EDBCF2BF0FE0E85
:100A0000DBCF2CF02BC0F3FF2CC0F4FF00D0E5525D
:100A1000E7CFD9FF1200D9CFE6FFE1CFD9FFFE0E15
:100A2000DB5011E1FC0EDBCFE9FFFD0EDBCFEAFF6F
:100A3000EF507F0808E2FC0EDBCFE9FFFD0EDBCFB5
:100A4000EAFF7F0EEF6EE552E7CFD9FF1200D9CF54
:100A5000E6FFE1CFD9FFFE0EDB5013E1FC0EDBCF4A
:100A6000E9FFFD0EDBCFEAFFEFCF2BF07F0E2B5C13
:100A700008E2FC0EDBCFE9FFFD0EDBCFEAFF7F0EC5
:100A8000EF6EE552E7CFD9FF1200D9CFE6FFE1CFF5
:100A9000D9FFFD0EDBCF2BF0FE0EDBCF2CF0D89074
:100AA0002C5004E6D00E2B5C070E2C5806E20201F7
:100AB000D00EF96F070EFA6F19D0FD0EDBCF2BF0B9
:100AC000FE0EDBCF2CF02C3404E22B50CE08080EA7
:100AD0002C5406E20201CE0EF96F080EFA6F06D012
:100AE000FD0EDBCFF9F2FE0EDBCFFAF2F9C22BF0EE
:100AF000FAC22CF0D00E2B5E070E2C5A2B5000D0D1
:100B0000E552E7CFD9FF1200F00EE66EBFEC40F0E1
:100B1000E552938A93889386938499829980938EE1
:100B2000938C9A849A82998699849A8A9A889480D6
:100B30009A869A8E9A9C919C02017F0E526F52C2A5
:100B400051F252C250F252C24FF252C24EF252C24F
:100B50004DF252C24CF252C24BF25A6F5AC259F283
:100B60005AC258F25AC257F25AC256F25AC255F2F3
:100B70005AC254F25AC253F2010EE66EE66AE66EAB
:100B8000E66AE66EE66AE66EE66AFCEC33F0F56E5F
:100B9000080EE15EF5500DEC41F027EC3BF040EC27
:100BA0003BF00201010EA86F470EE66E020EE66EE4
:100BB000BAEC33F0E552E55247EF33F0D9CFE6FF18
:100BC000E1CFD9FF020EE126670EE66E020EE66E59
:100BD000A1EC33F0E552E55203011F5104E120512D
:100BE00002E1F9EC3DF0EBEC26F00301205102E1CB
:100BF000D1EC2EF06BEC32F0020803E102014885E3
:100C000002D00201489503011F0505E18CEC1CF0A0
:100C100003011F6F17D0200505E15CEC0FF0030105
:100C2000206F10D0DAEC2AF0DF6E630EDF5C04E197
:100C30000301010E1F6F06D0740EDF5C03E1030198
:100C4000010E206F33EC42F01CD85AC2E6FF59C2A5
:100C5000E6FF58C2E6FF57C2E6FF19EC41F0E55245
:100C6000E552E552E552470EE66E020EE66EBAEC2C
:100C700033F0E552E552D9CFE1FFE552E7CFD9FF96
:100C80001200D9CFE6FFE1CFD9FF300EE1260201F5
:100C9000020E5B6F02016D51E66EE66A64DEE5529C
:100CA000E552F3CFF6FFF4CFF7FFD890F636F736DC
:100CB0003E0EF6267E0EF7220900F5CF2BF0080037
:100CC000F5CF2CF02BC01DF02CC01EF03EEC36F002
:100CD000100E1CC0DBFF110E1DC0DBFF120E1EC06C
:100CE000DBFF130E1FC0DBFF02017151E66EE66AE7
:100CF0003ADEE552E552F3CFF6FFF4CFF7FFD89096
:100D0000F636F7363E0EF6267E0EF7220900F5CFB0
:100D10002BF00800F5CF2CF02BC01DF02CC01EF0DE
:100D20003EEC36F0140E1CC0DBFF150E1DC0DBFFC1
:100D3000160E1EC0DBFF170E1FC0DBFF0201725133
:100D4000E66EE66A10DEE552E552F3CFF6FFF4CF29
:100D5000F7FFD890F636F7363E0EF6267E0EF722CF
:100D60000900F5CF2BF00800F5CF2CF02BC01DF0BB
:100D70002CC01EF03EEC36F0180E1CC0DBFF190E26
:100D80001DC0DBFF1A0E1EC0DBFF1B0E1FC0DBFFEA
:100D9000100EDBCF2FF0110EDBCF30F0120EDBCFB9
:100DA00031F0130EDBCF32F0140EDBCF33F0150E23
:100DB000DBCF34F0160EDBCF35F0170EDBCF36F07D
:100DC00033C021F034C022F035C023F036C024F007
:100DD0002FC01CF030C01DF031C01EF032C01FF01B
:100DE00051EC36F01CC02BF01DC02CF01EC02DF0B5
:100DF0001FC02EF0180EDBCF37F0190EDBCF38F006
:100E00001A0EDBCF39F01B0EDBCF3AF037C021F0E2
:100E100038C022F039C023F03AC024F02BC01CF0B7
:100E20002CC01DF02DC01EF02EC01FF051EC36F06E
:100E30001CC0DEFF1DC0DEFF1EC0DEFF1FC0DDFFC9
:100E4000DD52DD52100EDBCF2FF0110EDBCF30F074
:100E5000120EDBCF31F0130EDBCF32F0140EDBCFEE
:100E600033F0150EDBCF34F0160EDBCF35F0170E56
:100E7000DBCF36F033C021F034C022F035C023F090
:100E800036C024F02FC01CF030C01DF031C01EF061
:100E900032C01FF052EC36F01CC02BF01DC02CF0FD
:100EA0001EC02DF01FC02EF0180EDBCF37F0190E2C
:100EB000DBCF38F01A0EDBCF39F01B0EDBCF3AF068
:100EC00037C021F038C022F039C023F03AC024F0F6
:100ED0002BC01CF02CC01DF02DC01EF02EC01FF02A
:100EE00052EC36F0040E1CC0DBFF050E1DC0DBFF0C
:100EF000060E1EC0DBFF070E1FC0DBFF100EDBCF90
:100F00002FF0110EDBCF30F0120EDBCF31F0130ECD
:100F1000DBCF32F0140EDBCF33F0150EDBCF34F025
:100F2000160EDBCF35F0170EDBCF36F033C021F0D5
:100F300034C022F035C023F036C024F02FC01CF09E
:100F400030C01DF031C01EF032C01FF051EC36F041
:100F50001CC02BF01DC02CF01EC02DF01FC02EF0A9
:100F6000180EDBCF37F0190EDBCF38F01A0EDBCFBF
:100F700039F01B0EDBCF3AF037C021F038C022F039
:100F800039C023F03AC024F02BC01CF02CC01DF057
:100F90002DC01EF02EC01FF052EC36F0080E1CC003
:100FA000DBFF090E1DC0DBFF0A0E1EC0DBFF0B0EB0
:100FB0001FC0DBFF100EDBCF2FF0110EDBCF30F0A8
:100FC000120EDBCF31F0130EDBCF32F0140EDBCF7D
:100FD00033F0150EDBCF34F0160EDBCF35F0170EE5
:100FE000DBCF36F033C021F034C022F035C023F01F
:100FF00036C024F02FC01CF030C01DF031C01EF0F0
:1010000032C01FF052EC36F01CC02BF01DC02CF08B
:101010001EC02DF01FC02EF0180EDBCF37F0190EBA
:10102000DBCF38F01A0EDBCF39F01B0EDBCF3AF0F6
:1010300037C021F038C022F039C023F03AC024F084
:101040002BC01CF02CC01DF02DC01EF02EC01FF0B8
:1010500051EC36F00C0E1CC0DBFF0D0E1DC0DBFF8B
:101060000E0E1EC0DBFF0F0E1FC0DBFFDECF1CF01D
:10107000DECF1DF0DECF1EF0DDCF1FF0DD52DD52E2
:1010800040EC38F01DC02FF01EC030F02FC0E6FF3E
:1010900030C0E6FF3BDCE552E552F3CF2DF0F4CF54
:1010A0002EF02DC0E6FF2EC0E6FF7F0EE66EE66A4C
:1010B00052EC04F0E552E552E552E552F3CF2BF045
:1010C000F4CF2CF02BC01DF02CC01EF03EEC36F0FF
:1010D0001C0E1CC0DBFF1D0E1DC0DBFF1E0E1EC044
:1010E000DBFF1F0E1FC0DBFF040EDBCF1CF0050E65
:1010F000DBCF1DF0060EDBCF1EF0070EDBCF1FF09F
:1011000040EC38F01DC02FF01EC030F02FC0E6FFBD
:1011100030C0E6FF86EC04F0E552E552F3CF2DF047
:10112000F4CF2EF02DC0E6FF2EC0E6FF1C0EDBCF65
:101130001CF01D0EDBCF1DF01E0EDBCF1EF01F0EB0
:10114000DBCF1FF040EC38F01DC031F01EC032F094
:1011500031C0E6FF32C0E6FF52EC04F0E552E55242
:10116000E552E552F3CF2BF0F4CF2CF02BC01DF05D
:101170002CC01EF03EEC36F01C0E1CC0DBFF1D0E1A
:101180001DC0DBFF1E0E1EC0DBFF1F0E1FC0DBFFDE
:10119000080EDBCF1CF0090EDBCF1DF00A0EDBCFF3
:1011A0001EF00B0EDBCF1FF040EC38F01DC02FF00F
:1011B0001EC030F02FC0E6FF30C0E6FF86EC04F022
:1011C000E552E552F3CF2DF0F4CF2EF02DC0E6FF1F
:1011D0002EC0E6FF1C0EDBCF1CF01D0EDBCF1DF07A
:1011E0001E0EDBCF1EF01F0EDBCF1FF040EC38F0E1
:1011F0001DC031F01EC032F031C0E6FF32C0E6FF44
:1012000052EC04F0E552E552E552E552F3CF2BF0F3
:10121000F4CF2CF02BC01DF02CC01EF03EEC36F0AD
:101220001C0E1CC0DBFF1D0E1DC0DBFF1E0E1EC0F2
:10123000DBFF1F0E1FC0DBFF0C0EDBCF1CF00D0E03
:10124000DBCF1DF00E0EDBCF1EF00F0EDBCF1FF03D
:1012500040EC38F01DC02FF01EC030F02FC0E6FF6C
:1012600030C0E6FF86EC04F0E552E552F3CF2DF0F6
:10127000F4CF2EF02DC0E6FF2EC0E6FF1C0EDBCF14
:101280001CF01D0EDBCF1DF01E0EDBCF1EF01F0E5F
:10129000DBCF1FF040EC38F01DC031F01EC032F043
:1012A00031C0E6FF32C0E6FF52EC04F0E552E552F1
:1012B000E552E552F3CF2BF0F4CF2CF02BC01DF00C
:1012C0002CC01EF03EEC36F01C0E1CC0DBFF1D0EC9
:1012D0001DC0DBFF1E0E1EC0DBFF1F0E1FC0DBFF8D
:1012E000D9CFE9FFDACFEAFFEECF2FF0EECF30F023
:1012F000EECF31F0EFCF32F0216A226AFE0E236E7C
:10130000420E246E2FC01CF030C01DF031C01EF004
:1013100032C01FF03BEC37F01C0EDBCF21F01D0E6E
:10132000DBCF22F01E0EDBCF23F01F0EDBCF24F02D
:10133000E8EC36F01CC02BF01DC02CF01EC02DF0C8
:101340001FC02EF02BC0DFFF010E2CC0DBFF020EF2
:101350002DC0DBFF030E2EC0DBFF2B6A2C6AFE0EB6
:101360002D6EC20E2E6ED9CFE9FFDACFEAFFEECF97
:101370002FF0EECF30F0EECF31F0EFCF32F02FC0C4
:1013800021F030C022F031C023F032C024F02BC055
:101390001CF02CC01DF02DC01EF02EC01FF06FECF5
:1013A00038F0010A1EE0D9CFE9FFDACFEAFFEECF2D
:1013B00033F0EECF34F0EECF35F0EFCF36F0216AD8
:1013C000226AFE0E236E420E246E33C01CF034C01F
:1013D0001DF035C01EF036C01FF06FEC38F0010A6A
:1013E00012E1AF0E2B6E4D0E2C6E2D6A2BC0E6FF58
:1013F0002CC0E6FF2DC0E6FF04EC43F0E552E552B9
:10140000E55256EF0FF0040EDBCF2FF0050EDBCFC9
:1014100030F0060EDBCF31F0070EDBCF32F0216A61
:10142000226AFE0E236E420E246E2FC01CF030C0C6
:101430001DF031C01EF032C01FF03BEC37F01C0E27
:10144000DBCF21F01D0EDBCF22F01E0EDBCF23F011
:101450001F0EDBCF24F0E8EC36F01CC02BF01DC0D3
:101460002CF01EC02DF01FC02EF0040E2BC0DBFF91
:10147000050E2CC0DBFF060E2DC0DBFF070E2EC0B5
:10148000DBFF2B6A2C6AFE0E2D6EC20E2E6E040E32
:10149000DBCF2FF0050EDBCF30F0060EDBCF31F0C7
:1014A000070EDBCF32F02FC021F030C022F031C068
:1014B00023F032C024F02BC01CF02CC01DF02DC036
:1014C0001EF02EC01FF06FEC38F0010A1EE0040E73
:1014D000DBCF33F0050EDBCF34F0060EDBCF35F07B
:1014E000070EDBCF36F0216A226AFE0E236E420E13
:1014F000246E33C01CF034C01DF035C01EF036C061
:101500001FF06FEC38F0010A12E1880E2B6E4D0EC1
:101510002C6E2D6A2BC0E6FF2CC0E6FF2DC0E6FF27
:1015200004EC43F0E552E552E55256EF0FF0080E99
:10153000DBCF2FF0090EDBCF30F00A0EDBCF31F01E
:101540000B0EDBCF32F0216A226AFE0E236E420EB2
:10155000246E2FC01CF030C01DF031C01EF032C010
:101560001FF03BEC37F01C0EDBCF21F01D0EDBCF64
:1015700022F01E0EDBCF23F01F0EDBCF24F0E8ECB1
:1015800036F01CC02BF01DC02CF01EC02DF01FC06B
:101590002EF0080E2BC0DBFF090E2CC0DBFF0A0E5D
:1015A0002DC0DBFF0B0E2EC0DBFF2B6A2C6AFE0E5C
:1015B0002D6EC20E2E6E080EDBCF2FF0090EDBCF84
:1015C00030F00A0EDBCF31F00B0EDBCF32F02FC044
:1015D00021F030C022F031C023F032C024F02BC003
:1015E0001CF02CC01DF02DC01EF02EC01FF06FECA3
:1015F00038F0010A1EE0080EDBCF33F0090EDBCF16
:1016000034F00A0EDBCF35F00B0EDBCF36F0216A5B
:10161000226AFE0E236E420E246E33C01CF034C0CC
:101620001DF035C01EF036C01FF06FEC38F0010A17
:1016300012E1610E2B6E4D0E2C6E2D6A2BC0E6FF53
:101640002CC0E6FF2DC0E6FF04EC43F0E552E55266
:10165000E55256EF0FF00C0EDBCF2FF00D0EDBCF67
:1016600030F00E0EDBCF31F00F0EDBCF32F0216AFF
:10167000226AFE0E236E420E246E2FC01CF030C074
:101680001DF031C01EF032C01FF03BEC37F01C0ED5
:10169000DBCF21F01D0EDBCF22F01E0EDBCF23F0BF
:1016A0001F0EDBCF24F0E8EC36F01CC02BF01DC081
:1016B0002CF01EC02DF01FC02EF00C0E2BC0DBFF37
:1016C0000D0E2CC0DBFF0E0E2DC0DBFF0F0E2EC04B
:1016D000DBFF2B6A2C6AFE0E2D6EC20E2E6E0C0ED8
:1016E000DBCF2FF00D0EDBCF30F00E0EDBCF31F065
:1016F0000F0EDBCF32F02FC021F030C022F031C00E
:1017000023F032C024F02BC01CF02CC01DF02DC0E3
:101710001EF02EC01FF06FEC38F0010A1EE00C0E18
:10172000DBCF33F00D0EDBCF34F00E0EDBCF35F018
:101730000F0EDBCF36F0216A226AFE0E236E420EB8
:10174000246E33C01CF034C01DF035C01EF036C00E
:101750001FF06FEC38F0010A11E13A0E2B6E4D0EBE
:101760002C6E2D6A2BC0E6FF2CC0E6FF2DC0E6FFD5
:1017700004EC43F0E552E552E55298D3D9CFE9FFA6
:10178000DACFEAFFEECF2BF0EECF2CF0EECF2DF03C
:10179000EFCF2EF0216A226AFE0E236E420E246ED7
:1017A0002BC01CF02CC01DF02DC01EF02EC01FF051
:1017B00052EC36F040EC38F0280E1DC0DBFF290E4D
:1017C0001EC0DBFF2B6A2C6AFE0E2D6E420E2E6EA3
:1017D000040EDBCF2FF0050EDBCF30F0060EDBCF93
:1017E00031F0070EDBCF32F02FC021F030C022F0F5
:1017F00031C023F032C024F02BC01CF02CC01DF0EF
:101800002DC01EF02EC01FF051EC36F040EC38F029
:101810002A0E1DC0DBFF2B0E1EC0DBFF080EDBCF28
:101820002BF0090EDBCF2CF00A0EDBCF2DF00B0EC8
:10183000DBCF2EF0216A226AFE0E236E420E246E4A
:101840002BC01CF02CC01DF02DC01EF02EC01FF0B0
:1018500052EC36F040EC38F02C0E1DC0DBFF2D0EA4
:101860001EC0DBFF2B6A2C6AFE0E2D6E420E2E6E02
:101870000C0EDBCF2FF00D0EDBCF30F00E0EDBCFDA
:1018800031F00F0EDBCF32F02FC021F030C022F04C
:1018900031C023F032C024F02BC01CF02CC01DF04E
:1018A0002DC01EF02EC01FF051EC36F040EC38F089
:1018B0002E0E1DC0DBFF2F0E1EC0DBFF280EDBCF60
:1018C0002BF0290EDBCF2CF02C3404E22B507F08B8
:1018D000000E2C5420E2280EDBCF2DF0290EDBCF9A
:1018E0002EF0D8902E5004E6B40E2D5C000E2E582B
:1018F00012E20C0EE76E280EDBCF2BF0290EDBCFA9
:101900002CF0E7502B26000E2C22280E2BC0DBFFDC
:10191000290E2CC0DBFF2A0EDBCF2BF02B0EDBCFEA
:101920002CF02C3404E22B507F08000E2C5420E2C3
:101930002A0EDBCF2DF02B0EDBCF2EF0D8902E50C1
:1019400004E6B40E2D5C000E2E5812E20C0EE76E6B
:101950002A0EDBCF2BF02B0EDBCF2CF0E7502B2603
:10196000000E2C222A0E2BC0DBFF2B0E2CC0DBFF1F
:101970002C0EDBCF2BF02D0EDBCF2CF02C3404E221
:101980002B507F08000E2C5420E22C0EDBCF2DF0C4
:101990002D0EDBCF2EF0D8902E5004E6B40E2D5C29
:1019A000000E2E5812E20C0EE76E2C0EDBCF2BF041
:1019B0002D0EDBCF2CF0E7502B26000E2C222C0E08
:1019C0002BC0DBFF2D0E2CC0DBFF2E0EDBCF2BF050
:1019D0002F0EDBCF2CF02C3404E22B507F08000EAE
:1019E0002C5420E22C0EDBCF2DF02D0EDBCF2EF071
:1019F000D8902E5004E6B40E2D5C000E2E5812E244
:101A00000C0EE76E2E0EDBCF2BF02F0EDBCF2CF063
:101A1000E7502B26000E2C222E0E2BC0DBFF2F0EA4
:101A20002CC0DBFF280EDBCF4BF22A0EDBCF4CF2B3
:101A30002C0EDBCF4DF22E0EDBCF4EF28150040B7D
:101A400001E0010E2B6E02016951010B2B14010BF9
:101A5000F36EFE0E8D14F3108D6E8150080B01E0B5
:101A6000010E2B6E6951020B01E0010E2B14010BCC
:101A7000F36EFE0E8C14F3108C6E8150100B01E08F
:101A8000010E2B6E6A51010B2B14010BF36EF34602
:101A9000FD0E8D14F3108D6E8150200B01E0010EB0
:101AA0002B6E6A51020B01E0010E2B14010BF36E39
:101AB000F346FD0E8C14F3108C6E6951100B02E08E
:101AC0008D8401D08D946951200B02E08C8401D06B
:101AD0008C946A51100B02E08D8601D08D966A516C
:101AE000200B02E08C8601D08C966951040B02E039
:101AF0008D8801D08D986951080B02E08C8801D047
:101B00008C986951400B02E08D8A01D08D9A695101
:101B1000800B02E08C8A01D08C9A6A51400B02E063
:101B20008D8C01D08D9C6A51800B02E08C8C01D091
:101B30008C9C8850800B02E0919001D091808C9E0B
:101B40004D0EE66E020EE66E8150400B01E0010E76
:101B5000E66E0BEC05F0E552E552E5524D0EE66EF1
:101B6000020EE66E8150800B01E0010EE66E27EC5E
:101B700005F0E552E552E5524E0EE66E020EE66EB7
:101B80008750010BE66E0BEC05F0E552E552E5528D
:101B90004E0EE66E020EE66E8750020B01E0010E5D
:101BA000E66E27EC05F0E552E552E552530EE66E7F
:101BB000020EE66E8750040B01E0010EE66E0BECA0
:101BC00005F0E552E552E552530EE66E020EE66E62
:101BD0008750080B01E0010EE66E27EC05F0E55298
:101BE000E552E552540EE66E020EE66E8850020B88
:101BF00001E0010EE66E0BEC05F0E552E552E55210
:101C0000540EE66E020EE66E8850040B01E0010EE3
:101C1000E66E27EC05F0E552E552E552550EE66E0C
:101C2000020EE66E8850080B01E0010EE66E0BEC2A
:101C300005F0E552E552E552550EE66E020EE66EEF
:101C40008250010BE66E27EC05F0E552E552E552B5
:101C5000560EE66E020EE66E8850100B01E0010E85
:101C6000E66E0BEC05F0E552E552E552560EE66ED7
:101C7000020EE66E8850200B01E0010EE66E27ECA6
:101C800005F0E552E552E552020168BBBDD0000EF9
:101C90006D5D07E36D51380804E302014791478306
:101CA0002DD07D0E6D5D0EE36D512B6E2C6A2C34A4
:101CB00004E22B508108000E2C5404E302014781FA
:101CC00047831CD06D512B6E2C6AD8902C5004E6A3
:101CD000D80E2B5C000E2C580EE36D512D6E2E6A23
:101CE0002E3404E22D50FF08000E2E5404E30201AE
:101CF0004781479303D0020147914793000E0201A9
:101D00006E5D07E36E51380804E30201479547878B
:101D10002DD07D0E6E5D0EE36E512B6E2C6A2C3431
:101D200004E22B508108000E2C5404E30201478585
:101D300047871CD06E512B6E2C6AD8902C5004E62D
:101D4000D80E2B5C000E2C580EE36E512D6E2E6AB1
:101D50002E3404E22D50FF08000E2E5404E302013D
:101D60004785479703D0020147954797479B8D507A
:101D7000010B01E0478B47998C50010B01E047892B
:101D8000479F8D50020B01E0478F479D8C50020BFF
:101D900001E0478D8150040B01E0010E2B6E2C6A8F
:101DA0002B502C1002E0000E01D0010E010BF36E3F
:101DB000FE0E4815F310486F8150080B01E0010E2C
:101DC0002B6E2C6A2B502C1002E0000E01D0010E5D
:101DD000010BF36EF346FD0E4815F310486F81506A
:101DE000100B01E0010E2B6E2C6A2B502C1002E020
:101DF000000E01D0010E010BF36EF346F346FB0E0D
:101E00004815F310486F52D07EC21EF02BEC36F00E
:101E10001CC033F01DC034F01EC035F01FC036F0BA
:101E2000710E216E3D0E226E7A0E236E410E246ECF
:101E300033C01CF034C01DF035C01EF036C01FF09A
:101E40003BEC37F01CC02FF01DC030F01EC031F04D
:101E50001FC032F0216A226A800E236E430E246E68
:101E60002FC01CF030C01DF031C01EF032C01FF07A
:101E7000E8EC36F01CC02BF01DC02CF01EC02DF07D
:101E80001FC02EF0216A226A200E236E410E246E9E
:101E90002BC01CF02CC01DF02DC01EF02EC01FF05A
:101EA0003BEC37F019EC38F01EC047F2D9CFE1FF18
:101EB000E552E7CFD9FF1200D9CFE6FFE1CFD9FF36
:101EC000060EE12603012251090A01E14FD3010A5E
:101ED00001E114D30F0A01E1EAD2010A01E147D27C
:101EE000030A01E130D2010A01E17FD0070A62E072
:101EF000010A2EE0030A27E0010A01E04FD3010E98
:101F0000216F0101FF6BFF512B6E2C6A150E2B5CAC
:101F1000000E2C5814E2FF51EA6AC10FE96E020E5E
:101F2000EA22010EEFCFDBFFFF51EA6AE00FE96E14
:101F3000010EEA22010EDBCFEFFFFF2BE4D70301F6
:101F4000010E226F2BD333DB0301020E226F26D347
:101F5000DAEC2AF0DF6E610EDF5C0EE3DF50720810
:101F60000BE30301030E226FDFCFFDF1610EDF5C97
:101F7000020F0101FC6F1DD0750EDF5C06E1DCEC89
:101F800014F00301060E226F14D0760EDF5C04E11C
:101F90000301070E226F0DD0770EDF5C04E1030111
:101FA000080E226F06D0780EDF5C03E10301226B7E
:101FB000216BF4D20101FB6BDAEC2AF0000901E09D
:101FC000FBD7260E2B6E4D0E2C6E2D6A2BC0E6FF16
:101FD0002CC0E6FF2DC0E6FF04EC43F0E552E552CD
:101FE000E5520301040E226FD9D2DAEC2AF0DF6E3B
:101FF000300EDF5C03E3DF50390806E22B0EDF5CB6
:1020000003E02D0EDF5C19E10101FB512B6E2C6A00
:10201000060E2B5C000E2C5810E2DFCFE6FFDEEC44
:102020002AF0E5520101FB51EA6AF50FE96E010E53
:10203000EA22DFCFEFFFFB2B85D10D0EDF5C01E045
:1020400081D12D0E0101F55D22E1040EDB68050E44
:10205000DB68FB07FF6BFF512B6E2C6A060E2B5CB7
:10206000000E2C5813E2FF29EA6AF50FE96E010E03
:10207000EA22EF50E66EFF51EA6AF50FE96E010EB3
:10208000EA22E552E750EF6EFF2BE5D72FD02B0E5B
:10209000F55D25E1010EF36E040EF3CFDBFF050EB7
:1020A000DB6AFB07FF6BFF512B6E2C6A060E2B5C65
:1020B000000E2C5813E2FF29EA6AF50FE96E010EB3
:1020C000EA22EF50E66EFF51EA6AF50FE96E010E63
:1020D000EA22E552E750EF6EFF2BE5D707D0010E5D
:1020E000F36E040EF3CFDBFF050EDB6AFB51030832
:1020F00008E2020EDB6A010EF36E030EF3CFDBFF84
:10210000CCD0030EFB5D56E1300EF55D2B6E2C6AD4
:10211000640E1D6E1E6A2BC022F02CC023F0FBEC57
:1021200037F0020E1BC0DBFF030E1CC0DBFF300EBE
:102130000101F65D2D6E2E6A0A0E1D6E1E6A2DC0FF
:1021400022F02EC023F0FBEC37F01BC02BF01CC09C
:102150002CF0D950020FE96EDACFEAFF2B50EE26B1
:102160002C50ED22300E0101F75D2B6E2C6AD950F8
:10217000020FE96EDACFEAFF2B50EE262C50ED224B
:10218000040EDBCF2BF0050EDBCF2CF0D950020F65
:10219000E96EDACFEAFF2BC022F02CC023F0EECF9D
:1021A0001DF0EDCF1EF0FBEC37F01BC0EEFF1CC0A6
:1021B000EDFF73D0020EFB5D35E1300EF55D0A0DCB
:1021C000F350E66ED950020FE96EDACFEAFFE5521E
:1021D000E750EE6EED6A300EF65D2B6E2C6AD9502C
:1021E000020FE96EDACFEAFF2B50EE262C50ED22DB
:1021F000040EDBCF2BF0050EDBCF2CF0D950020FF5
:10220000E96EDACFEAFF2BC022F02CC023F0EECF2C
:102210001DF0EDCF1EF0FBEC37F01BC0EEFF1CC035
:10222000EDFF3BD0FB0526E1300EF55DE66ED950A3
:10223000020FE96EDACFEAFFE552E750EE6EED6A83
:10224000040EDBCF2BF0050EDBCF2CF0D950020FA4
:10225000E96EDACFEAFF2BC022F02CC023F0EECFDC
:102260001DF0EDCF1EF0FBEC37F01BC0EEFF1CC0E5
:10227000EDFF13D0FB5111E1FC51EA6AE00FE96E6A
:10228000010EEA22EF50E66ED950020FE96EDACF66
:10229000EAFFE552E750EE6EED6A660E0101FD5D64
:1022A00003E06E0EFD5D26E1D950020FE96EDACF34
:1022B000EAFF010EEE1801E1ED500BE0D950020FDC
:1022C000E96EDACFEAFFFF0EEE1802E1FF0EED181D
:1022D0000DE1FC51EA6AE00FE96E010EEA22020EFE
:1022E000DBCFEFFF0301010E226F03D00301050EC8
:1022F000226F28D0020EDBCF2BF0030EDBCF2CF0A9
:102300000001800E2C141BE1020EDBCF2DF0030E1A
:10231000DBCF2EF02E3404E22D50FF08000E2E5499
:102320000EE30101FC51EA6AE00FE96E010EEA22B8
:10233000020EDBCFEFFF0301010E226F03D003017A
:10234000050E226F2BD1060E2B6E4D0E2C6E2D6AB4
:102350002BC0E6FF2CC0E6FF2DC0E6FF04EC43F0E7
:10236000E552E552E5520301030E226F17D1DAEC74
:102370002AF0DF6E610EDF5C02E102015A07620E95
:10238000DF5C04E10A0E02015A5F90D0630EDF5C4D
:1023900003E102015A2B8AD0640EDF5C04E10A0ECD
:1023A00002015A2783D0650EDF5C03E15AC2E2F1D5
:1023B0007DD0660EDF5C03E15AC2E3F177D0670E91
:1023C000DF5C03E15AC2E4F171D0680EDF5C03E127
:1023D0000201592B6BD0690EDF5C04E10A0E020189
:1023E000592764D06A0EDF5C03E1020159075ED011
:1023F0006B0EDF5C04E10A0E0201595F57D06C0ED0
:10240000DF5C03E159C2EAF151D06D0EDF5C03E1FC
:1024100059C2EBF14BD06E0EDF5C03E159C2ECF117
:1024200045D06F0EDF5C3CE1030E2B6E4D0E2C6E23
:102430002D6A2BC0E6FF2CC0E6FF2DC0E6FF04ECA2
:1024400043F0E552E552E55202015A51E66EE66A62
:10245000F80E2B6E4C0E2C6E2D6A2BC0E6FF2CC096
:10246000E6FF2DC0E6FF04EC43F0F56E050EE15EDD
:10247000F55002015951E66EE66AEE0E2B6E4C0ED7
:102480002C6E2D6A2BC0E6FF2CC0E6FF2DC0E6FFA8
:1024900004EC43F0F56E050EE15EF5508DDA06D0E2
:1024A000700EDF5C03E10301010E226F77D00101A2
:1024B000050EE26F7F0EE36FF90EE46F030EE56F1A
:1024C000060EE66F010EE76F310EE86F4F0EE96FF3
:1024D000EA6BEB6BB00EEC6F080EED6F060EEE6F55
:1024E000010EEF6F230EF06F770EF16F050EF26F96
:1024F000140EF36F0301010E226F50D00101FF6B28
:10250000FF512B6E2C6A150E2B5C000E2C5814E21A
:10251000FF51EA6AE00FE96E010EEA22010EEFCFE9
:10252000DBFFFF51EA6AC10FE96E020EEA22010EDB
:10253000DBCFEFFFFF2BE4D7200EE66EE66A6DDB04
:10254000E552E552D80E2B6E4C0E2C6E2D6A2BC028
:10255000E6FF2CC0E6FF2DC0E6FF04EC43F0E55299
:10256000E552E5520301090E226F18D0AFEC42F09C
:10257000200813E1D10E2B6E4C0E2C6E2D6A2BC051
:10258000E6FF2CC0E6FF2DC0E6FF04EC43F0E55269
:10259000E552E5520301010E226F00D003012151E3
:1025A00000D0D9CFE1FFE552E7CFD9FF1200030EEB
:1025B0002B6E4D0E2C6E2D6A2BC0E6FF2CC0E6FF55
:1025C0002DC0E6FF04EC43F0E552E552E552030E60
:1025D0002B6E4D0E2C6E2D6A2BC0E6FF2CC0E6FF35
:1025E0002DC0E6FF04EC43F0E552E552E55201014F
:1025F000E251E66EE66AB30E2B6E4C0E2C6E2D6A1F
:102600002BC0E6FF2CC0E6FF2DC0E6FF04EC43F034
:10261000F56E050EE15EF5500101E351E66EE66AE6
:10262000920E2B6E4C0E2C6E2D6A2BC0E6FF2CC02A
:10263000E6FF2DC0E6FF04EC43F0F56E050EE15E0B
:10264000F5500101E451E66EE66A740E2B6E4C0EF5
:102650002C6E2D6A2BC0E6FF2CC0E6FF2DC0E6FFD6
:1026600004EC43F0F56E050EE15EF5500101E55115
:10267000E66EE66A590E2B6E4C0E2C6E2D6A2BC040
:10268000E6FF2CC0E6FF2DC0E6FF04EC43F0F56E3C
:10269000050EE15EF5500101E651E66EE66A330E85
:1026A0002B6E4C0E2C6E2D6A2BC0E6FF2CC0E6FF65
:1026B0002DC0E6FF04EC43F0F56E050EE15EF5502B
:1026C000E7C12BF02C6A2BBE2C682BC0E6FF2CC078
:1026D000E6FF0E0E2D6E4C0E2E6E2F6A2DC0E6FFFD
:1026E0002EC0E6FF2FC0E6FF04EC43F0F56E050EAA
:1026F000E15EF5500101E851E66EE66AE70E2B6EE9
:102700004B0E2C6E2D6A2BC0E6FF2CC0E6FF2DC0B1
:10271000E6FF04EC43F0F56E050EE15EF5500101B5
:10272000E951E66EE66AC40E2B6E4B0E2C6E2D6AD6
:102730002BC0E6FF2CC0E6FF2DC0E6FF04EC43F003
:10274000F56E050EE15EF5500101EA51E66EE66AAE
:10275000A50E2B6E4B0E2C6E2D6A2BC0E6FF2CC0E7
:10276000E6FF2DC0E6FF04EC43F0F56E050EE15EDA
:10277000F5500101EB51E66EE66A830E2B6E4B0EAF
:102780002C6E2D6A2BC0E6FF2CC0E6FF2DC0E6FFA5
:1027900004EC43F0F56E050EE15EF5500101EC51DD
:1027A000E66EE66A640E2B6E4B0E2C6E2D6A2BC005
:1027B000E6FF2CC0E6FF2DC0E6FF04EC43F0F56E0B
:1027C000050EE15EF5500101ED51E66EE66A480E38
:1027D0002B6E4B0E2C6E2D6A2BC0E6FF2CC0E6FF35
:1027E0002DC0E6FF04EC43F0F56E050EE15EF550FA
:1027F0000101EE51E66EE66A210E2B6E4B0E2C6E39
:102800002D6A2BC0E6FF2CC0E6FF2DC0E6FF04ECCE
:1028100043F0F56E050EE15EF550EFC12BF02C6A2A
:102820002BBE2C682BC0E6FF2CC0E6FFFB0E2D6EE6
:102830004A0E2E6E2F6A2DC0E6FF2EC0E6FF2FC077
:10284000E6FF04EC43F0F56E050EE15EF550010184
:10285000F051E66EE66AD30E2B6E4A0E2C6E2D6A90
:102860002BC0E6FF2CC0E6FF2DC0E6FF04EC43F0D2
:10287000F56E050EE15EF5500101F151E66EE66A76
:10288000AF0E2B6E4A0E2C6E2D6A2BC0E6FF2CC0AD
:10289000E6FF2DC0E6FF04EC43F0F56E050EE15EA9
:1028A000F5500101F251E66EE66A900E2B6E4A0E6B
:1028B0002C6E2D6A2BC0E6FF2CC0E6FF2DC0E6FF74
:1028C00004EC43F0F56E050EE15EF5500101F351A5
:1028D000E66EE66A690E2B6E4A0E2C6E2D6A2BC0D0
:1028E000E6FF2CC0E6FF2DC0E6FF04EC43F0F56EDA
:1028F000050EE15EF550030E2B6E4D0E2C6E2D6A0B
:102900002BC0E6FF2CC0E6FF2DC0E6FF04EC43F031
:10291000E552E552E552430E2B6E4A0E2C6E2D6A9F
:102920002BC0E6FF2CC0E6FF2DC0E6FF04EC43F011
:10293000E552E552E552290E2B6E4A0E2C6E2D6A99
:102940002BC0E6FF2CC0E6FF2DC0E6FF04EC43F0F1
:10295000E552E552E552160E2B6E4A0E2C6E2D6A8C
:102960002BC0E6FF2CC0E6FF2DC0E6FF04EC43F0D1
:10297000E552E552E5520B0E2B6E4A0E2C6E2D6A77
:102980002BC0E6FF2CC0E6FF2DC0E6FF04EC43F0B1
:10299000E552E552E552030E2B6E4D0E2C6E2D6A5C
:1029A0002BC0E6FF2CC0E6FF2DC0E6FF04EC43F091
:1029B000E552E552E5521200030E2B6E4D0E2C6EC1
:1029C0002D6A2BC0E6FF2CC0E6FF2DC0E6FF04EC0D
:1029D00043F0E552E552E552030E2B6E4D0E2C6E80
:1029E0002D6A2BC0E6FF2CC0E6FF2DC0E6FF04ECED
:1029F00043F0E552E552E552F30E2B6E490E2C6E74
:102A00002D6A2BC0E6FF2CC0E6FF2DC0E6FF04ECCC
:102A100043F0E552E552E552DA0E2B6E490E2C6E6C
:102A20002D6A2BC0E6FF2CC0E6FF2DC0E6FF04ECAC
:102A300043F0E552E552E552C10E2B6E490E2C6E65
:102A40002D6A2BC0E6FF2CC0E6FF2DC0E6FF04EC8C
:102A500043F0E552E552E552A70E2B6E490E2C6E5F
:102A60002D6A2BC0E6FF2CC0E6FF2DC0E6FF04EC6C
:102A700043F0E552E552E5528B0E2B6E490E2C6E5B
:102A80002D6A2BC0E6FF2CC0E6FF2DC0E6FF04EC4C
:102A900043F0E552E552E5526C0E2B6E490E2C6E5A
:102AA0002D6A2BC0E6FF2CC0E6FF2DC0E6FF04EC2C
:102AB00043F0E552E552E552500E2B6E490E2C6E56
:102AC0002D6A2BC0E6FF2CC0E6FF2DC0E6FF04EC0C
:102AD00043F0E552E552E552390E2B6E490E2C6E4D
:102AE0002D6A2BC0E6FF2CC0E6FF2DC0E6FF04ECEC
:102AF00043F0E552E552E552210E2B6E490E2C6E45
:102B00002D6A2BC0E6FF2CC0E6FF2DC0E6FF04ECCB
:102B100043F0E552E552E552080E2B6E490E2C6E3D
:102B20002D6A2BC0E6FF2CC0E6FF2DC0E6FF04ECAB
:102B300043F0E552E552E552EE0E2B6E480E2C6E38
:102B40002D6A2BC0E6FF2CC0E6FF2DC0E6FF04EC8B
:102B500043F0E552E552E552D10E2B6E480E2C6E35
:102B60002D6A2BC0E6FF2CC0E6FF2DC0E6FF04EC6B
:102B700043F0E552E552E552B10E2B6E480E2C6E35
:102B80002D6A2BC0E6FF2CC0E6FF2DC0E6FF04EC4B
:102B900043F0E552E552E552940E2B6E480E2C6E32
:102BA0002D6A2BC0E6FF2CC0E6FF2DC0E6FF04EC2B
:102BB00043F0E552E552E552730E2B6E480E2C6E33
:102BC0002D6A2BC0E6FF2CC0E6FF2DC0E6FF04EC0B
:102BD00043F0E552E552E552500E2B6E480E2C6E36
:102BE0002D6A2BC0E6FF2CC0E6FF2DC0E6FF04ECEB
:102BF00043F0E552E552E552030E2B6E4D0E2C6E5E
:102C00002D6A2BC0E6FF2CC0E6FF2DC0E6FF04ECCA
:102C100043F0E552E552E5521200D9CFE6FFE1CF8D
:102C2000D9FF050EE126030EDB6A040EDB6A020102
:102C3000470EC16F4B0EC26FDE6ADD6ADECF2BF02E
:102C4000DDCF2CF0140E2B5C000E2C5834E2DECFBE
:102C5000E9FFDDCFEAFFC10EE926020EEA22020EED
:102C6000EFCFDBFFDBCFE6FFFD0EDBCF2DF0FE0E5F
:102C7000DBCF2EF0DE502D242B6EDD502E202C6E5F
:102C80002BC0E6FF2CC0E6FFFDEC41F0E552E5521B
:102C9000E552020EDB502B6E2C6AD950030FE96E01
:102CA000DACFEAFF2B50EE262C50ED22DF2A010E60
:102CB00001E3DB2AC3D7030EDBCFE6FF150EE76E79
:102CC000FD0EDBCF2BF0FE0EDBCF2CF0E7502B26DA
:102CD000000E2C222B062C5A2BC0E6FF2CC0E6FF40
:102CE000FDEC41F0E552E552E552D9CFE1FFE55266
:102CF000E7CFD9FF1200B7EC1BF0FB0EDBCFF3FFE1
:102D0000DB06F35000090AE005EC1CF0FA0E70EC4B
:102D10001CF0F3E12C1CF1E1010E01D0000EE6EFF6
:102D20001BF0B7EC1BF03B0EE12402E3E168E65236
:102D3000E16E010EDB6A020EDB6AF90EDBCFF6FFF5
:102D4000FA0EDBCFF7FFFB0EDBCFF8FF0800F550E4
:102D5000DF6EDF5002E10CEF1BF0250EDF5C02E0BE
:102D6000FFEF1AF0030EDB6A040EDB6A050EDB6A66
:102D7000060EDB6A070EDB6A1FEC1BF02D0EDF5C14
:102D80000CE02B0EDF5C09E0200EDF5C06E0230E7A
:102D9000DF5C03E0300EDF5C1AE1DF50300A14E044
:102DA000130A0FE0030A0AE00B0A05E0060AE4E151
:102DB000030EDB80E1D7030EDB82DED7030EDB845C
:102DC000DBD7030EDB86D8D7030EDB88D5D72A0ED8
:102DD000DF5C1BE11BEC1BF069EC1BF010E0030E49
:102DE000DB801D681E68130EDBCF22F0140EDBCFD4
:102DF00023F0CEEC37F0040E1BC0DBFF03D0130E24
:102E000052EC1BF01FEC1BF00BD0090EDB6AC0EC80
:102E10001BF003E034EC1CF0FAD7090E52EC1BF067
:102E2000030EDBB0DB982E0EDF5C1BE11FEC1BF00A
:102E30002A0EDF5C0BE11BEC1BF069EC1BF003E1DD
:102E4000130EA4EC1BF01FEC1BF00BD0090EDB6A79
:102E5000C0EC1BF003E034EC1CF0FAD7090EA4EC34
:102E60001BF0680EDF5C07E11FEC1BF0680EDF5CF7
:102E70001DE1030E18D0740EDF5C17E07A0EDF5CE4
:102E800014E0480EDF5C06E0540EDF5C03E05A0EEF
:102E9000DF5C02E1020E07D06C0EDF5C03E06A0E1D
:102EA000DF5C04E1010EF7EC1BF0C9DBDF506E0ABA
:102EB00001E181D31E0A01E192D1200A01E18FD103
:102EC0003F0A01E149D11A0A01E146D10D0A01E1A7
:102ED00043D1200A01E140D13A0A01E13DD1200A63
:102EE00001E13AD1260A01E135D10D0A01E132D1E1
:102EF0001A0A01E1D9D0200A4AE0300A1FE0460A46
:102F00000EE0250A01E085D3D950F90FE96EFF0ED6
:102F1000DA20EA6E010EEE5E000EEE5AEE5A05EC75
:102F20001CF0250EE66E95DB03E12C1C01E16BD352
:102F300001EC1CF001E26DD3DB2A6BD3080EDB6AD7
:102F4000040EDB50010806E2040EDB04C9EC1BF0A2
:102F5000DB508BDB080EDB5009E0030EDB50010B6E
:102F600005E172DB01E04FD3080EDB6A64DBEFCFD3
:102F7000DFFF79EC1CF003E12C1C01E144D301ECF0
:102F80001CF001E3DB2A60DB01E143D33CD3070EF5
:102F9000DB5002080FE145EC1CF0030E0CEC1CF0BA
:102FA0000E0EEECFDBFF0F0EEECFDBFF100EEECFDF
:102FB000DBFF20D0F70EDBCF2EF0F80EDBCF2FF0AB
:102FC000020E2E5E000E2F5AF70E2EC0DBFFF80EFB
:102FD0002FC0DBFF2EC0E9FF2FC0EAFFFCEC1BF087
:102FE0002D6A0E0E2BC0DBFF0F0E2CC0DBFF100E68
:102FF0002DC0DBFF0E0EDBCFE6FF0F0EDBCFE6FFB3
:10300000100EDBCFE6FF0AEC44F0E552E552E55244
:10301000130E1CC0DBFF140E1DC0DBFF060EDB50C1
:1030200005E0130E40EC1CF001E26ADB64EC1CF0DE
:1030300002E2130E37DB27EC1CF006E0040E40EC36
:103040001CF002E2050E2EDB030EDBB005D0FCDA2D
:1030500001E0D9D2080EDB6A090EDB6A0E0EDBCF67
:10306000F6FF0F0EDBCFF7FF100EDBCFF8FF0800E7
:10307000F550DF6EDF5014E06AEC1CF011E279ECE1
:103080001CF003E12C1C01E1BED2BBDB01E3DB2A17
:10309000090EDB2AD9500E0FE96E000ECBDBE7D705
:1030A000D3DA01E1B6D2AFD2C6DA110EEECFDBFF32
:1030B000120EEDCFDBFF110EDBCFE6FF120EDBCFE2
:1030C000E6FFFCEC43F0E552E552130EF3CFDBFFD5
:1030D000140EF4CFDBFF060EDB5004E0130ED0DB42
:1030E00001E20EDB64EC1CF002E2130EDBDAAFDB74
:1030F00005E0040EC5DB02E2050ED4DA030EDBB0F8
:1031000005D0A2DA01E07FD2080EDB6A090EDB6A85
:10311000110EDBCFE9FF120EDBCFEAFFEFCFDFFFAF
:10312000DF5014E0D7DB12E2E4DB03E12C1C01E109
:103130006AD267DB01E3DB2A090EDB2A110EDB2AE8
:10314000DBCFE9FF120EE8E3DB2AE6D77DDA01E107
:1031500060D259D2030EDB8E070EDB0410E195DB43
:10316000040E5ADB0A0EEECFDBFF0B0EEECFDBFFB9
:103170000C0EEECFDBFF0D0EEECFDBFF6CD0070E9B
:10318000DB5003082CE1030EDBAE0DD0B2DA020EE9
:1031900076DAEFCF2BF02C6A2D6A2E6A2BAE39D05F
:1031A0002C682D6835D0F70EDBCF2CF0F80EDBCF76
:1031B0002DF0020E2C5E000E2D5AF70E2CC0DBFFF8
:1031C000F80E2DC0DBFF2CC0E9FF2DC0EAFFEFCFCA
:1031D0002BF00A0E2BC0DBFF0B0EDB6A38D0070E7C
:1031E000DB50020809E1030EDBAE04D059DB2DAE43
:1031F00010D00ED055DB0DD0030EDBAE12D079DA35
:10320000020E3DDAF9DA2D6A2E6A2CAE02D02D6854
:103210002E68E2DA0C0E2DC0DBFF0D0E2EC0DBFF98
:103220001AD0F70EDBCF2DF0F80EDBCF2EF0020E0A
:103230002D5E000E2E5AF70E2DC0DBFFF80E2EC0AD
:10324000DBFF2DC0E9FF2EC0EAFFD6DAC5DA0C0E8F
:10325000DB6A0D0EDB6A060EDB5005E1010EF36E34
:10326000050EF3CFDBFF150EDB6A160EDB6AD950B5
:10327000370F2B6E000EDA202C6E390E2BC0DBFFC1
:103280003A0E2CC0DBFF380EDB6A080EDB6A0A0E32
:10329000AEDADF50780A12E0200A10E0280A0CE0CB
:1032A000200A0AE03F0A06E00D0A02E0200A08E1CF
:1032B000020E05D0080E03D0080EDF26100E97DA96
:1032C000030EDBBE02D0DB92DB94DB50800B26E0EA
:1032D0008ADA030EEB50000AE8AE02D0D89008D08C
:1032E000000EEE5C000EEE58000EEE58000EEE588A
:1032F00015E211DA206821682268236890EC43F017
:103300000A0E17C0DBFF0B0E18C0DBFF0C0E19C036
:10331000DBFF0D0E1AC0DBFF2D0E08D0030EDBA263
:1033200002D02B0E03D0DBA408D0200EF36E170EB4
:10333000F3CFDBFF150EDB2A02D0170EDB6A050E7A
:10334000DB5003E1B5D901E189D0980E2B6E8A0ECE
:103350002C6E000E2D6E070EDBCF2EF02F6A306A1A
:10336000316A2EC020F02FC021F030C022F031C0D1
:1033700023F0D1D994EC44F02B501724F36E2C5049
:103380001820F46E2D501920F86EF4CFF7FFF3CF0C
:10339000F6FF0800090EF5CFDBFF580EDF5C0FE1EA
:1033A000610EF36E090E79D90AE3200E2B6E090E19
:1033B000DBCFE7FF2B50E75E090EE7CFDBFF070E01
:1033C000DBCF2BF02C6A2D6A2E6A0DDA2BC020F091
:1033D0002CC021F02DC022F02EC023F0EECF1BF028
:1033E000EECF1CF0EECF1DF0EFCF1EF094EC44F0CA
:1033F0001EC0EDFF1DC0EDFF1CC0EDFF1BC0EFFFA9
:10340000390EDBCFE9FFDB063A0EDBCFEAFF01E244
:10341000DB06090EDBCFEFFF150EDB2A49D995E15C
:10342000030EDBA61DD06F0EDF5C06E1BFD918E3EB
:10343000150EDB2859DA14D0780EDF5C09E0580E3F
:10344000DF5C06E0620EDF5C03E0420EDF5C08E159
:10345000020EF36E160EF3CFDBFF02D0150EDB6A01
:10346000030EDB50100B0EE0040EDBCF2BF0050E2D
:10347000DB50D8802B5406E2060EDB5003E1040E2D
:10348000DB5032DA93D90AE2050EDBCFE7FF150EE7
:10349000DB50E75E050EE7CFDBFF02D0050EDB6AEF
:1034A000040EDBCF2BF0160E43D9D8802B5414E238
:1034B000160EDBCFE6FF150EDBCFE6FF040EDBCFEB
:1034C000E6FF050EDB50E552E75CE552D880E75495
:1034D000E552D880E7545DD9030EDB50010B0BE1B8
:1034E000080EDB5008E0B0D801E08DD0080EDB50AC
:1034F000BCD8080EDB6A170EDB5007E086D9170E22
:10350000EFD903E12C1C01E17ED0160EDB5016E052
:103510007CD9300EE66E9DD802E12C1C74E075D982
:10352000DFCFE6FF4EEC43F0E552E552E552F4CF33
:103530002CF00001F31C02E12C1C65E0050EDBCF32
:103540002BF0160EDB50D8802B5409E2050EDBCF92
:10355000E7FF160EDB50E75E050EE7CFDBFF300E10
:10356000E66E050EC9D94FE1390EDB2ADBCFE9FF44
:103570003A0E01E3DB2ADBCFEAFF090EEFCFDBFFD8
:10358000DB500EE042D9090EABD902E12C1C3BE026
:10359000390EDB2ADBCFE9FF3A0EEDE3DB2AEBD76E
:1035A00053D831E1160EDBCFE6FF080EC1D8E55245
:1035B000E7245BD82ED0070EDB50030A1CE0010A7B
:1035C00014E0030A07E079D9DBCFEEFF020EDBCF70
:1035D000EDFF1FD0F3D8306A2EAE02D02F683068CE
:1035E0002AD8BAD830C0EEFF14D0E8D82EBE2F6843
:1035F00022D8B2D80ED061D9DBCFEFFF0AD079D96B
:1036000005E12C1C03E1F368F46810D0FAD801E35B
:10361000DB2A77D9A6EF16F0010EDBCF2BF0020ED6
:10362000DBCF2CF02BC0F3FF2CC0F4FFD9CFE1FF90
:10363000DACFE2FFCBD029D9020E0CEF1CF061D912
:103640000800F550DF6E1200200EE66E080E7CEFCB
:103650001CF04EEC43F0E552E552E552F3CF2BF06F
:10366000F4CF2CF00001F31C12002B6E2C6AD95001
:10367000010F4DD92B50EE262C50ED2212002F5E5B
:10368000000E305AF70E2FC0DBFFF80E30C0DBFF04
:103690002FC0E9FF30C0EAFF1200DBCFF4FFF35088
:1036A000F45C1200DB50E76E040EE7CFDBFF120084
:1036B0000A0EDBCF2BF00B0EDBCF2CF00C0EDBCF8A
:1036C0002DF00D0EDBCF2EF02B502C102D102E10C8
:1036D0001200130EEECFDBFF140EEDCFDBFF130E47
:1036E000DBCF2BF0140EDBCF2CF00001800E2C145E
:1036F0001200F70EDBCF2FF0F80EDBCF30F0120008
:10370000050EDB50E66ED950130F01D9E552E75094
:10371000EE6EED6A12000A0EDBCF1BF00B0EDBCF54
:103720001CF00C0EDBCF1DF00D0EDBCF1EF01200D7
:10373000DBCFE6FF150EDBCFE6FF050EDB50E552D3
:10374000E724E552E7241200DB50CED8010EF36ED9
:10375000060EF3CFDBFF1200EE50EFCFEAFFE96E6B
:103760002DC0EEFF2EC0EEFF2FC0EEFF1200D9CF0E
:10377000E6FFDACFE6FFE1CFD9FFE2CFDAFF1200B2
:10378000DFCFE6FFE66A01EC45F0E552E552F35083
:103790001200E76E080EE7CFDBFF1200EECF2BF032
:1037A000EECF2CF0EFCF2DF02E6A1200050EDBCFFE
:1037B0002BF0150EDB50D8802B541200010EDBCFFE
:1037C0002DF0020EDBCF2EF02F6A1200E552E5CF6E
:1037D000DAFFE7CFD9FF12000A0E2BC0DBFF0B0E7A
:1037E0002CC0DBFF1200D9500A0F87EF1CF0F36EDC
:1037F000070EF3CFDBFF1200EECF2BF0EFCF2CF054
:103800001200010EDB2A020E1200FC0EDBCFE6FFD7
:10381000FD0EDBCFE6FF12002B5E000E2C5AF70EDA
:103820002BC0DBFFF80E2CC0DBFF2BC0E9FF2CC048
:10383000EAFF1200DA20EA6EEF2AEECFF6FF000E62
:10384000EF22EECFF7FFEF22EECFF8FF1200040ECB
:10385000DBCFE6FF130EDB50E552E75C9ADFDB506F
:1038600004DF060EDB501200090EDB500A0DF35088
:10387000DF24D00FE76E090EE7CFDBFF1FEF1BF051
:10388000DB50F36E050E4DEF1BF0F70EDBCF2BF088
:10389000F80EDBCF2CF01200DFCFE6FF29EF1BF094
:1038A00028DF030EECDECEEF1BF07BEC16F0E552CA
:1038B000E552E552E55200091200BDDEEE50EFCFB1
:1038C000EAFFE96E010E1200130EDB50F36E040ED8
:1038D0004DEF1BF0040EDB50F36E090E4DEF1BF0A5
:1038E000DBCFE6FF29EF1BF0E76E050EE7CFDBFF2E
:1038F00012008BDF4CEF1CF0DBCFE6FF86DF55EFCD
:103900001CF0D950F90FE96EFF0E1AEF1CF0E96EAA
:10391000000EDA20EA6E1200D9CFE6FFE1CFD9FF20
:10392000040EE126030126510A0A01E19AD2030A94
:1039300001E181D2010A01E166D20F0A01E12BD235
:10394000010A01E104D2030A01E1EDD1010A01E11A
:1039500089D0070A6CE0010A2EE0030A27E0010A79
:1039600001E087D2010E256F0201A76BA7512B6ED4
:103970002C6A160E2B5C000E2C5814E2A751EA6A32
:10398000080FE96E020EEA22030EEFCFDBFFA7510C
:10399000EA6A880FE96E020EEA22030EDBCFEFFF20
:1039A000A72BE4D70301010E266F63D26BDA030164
:1039B000020E266F5ED2DAEC2AF0E76E020EE7CF37
:1039C000DBFF610EF36E020EDBCFF4FFF350F45C0D
:1039D0000EE3020EDB5073080AE30301030E266FA9
:1039E000020EDB509F0F020F0201A56F1FD0020EC7
:1039F000DB50750804E10301090E266F17D0020E93
:103A0000DB50760804E10301060E266F0FD0020E8C
:103A1000DB50770804E10301070E266F07D0020E82
:103A2000DB50780803E10301266B256B22D20201EB
:103A3000A46BDAEC2AF0000901E0FBD7480E2B6EEC
:103A4000470E2C6E2D6A2BC0E6FF2CC0E6FF2DC062
:103A5000E6FF04EC43F0E552E552E5520301040EA3
:103A6000266F07D2DAEC2AF0E76E020EE7CFDBFF13
:103A7000300EF36E020EDBCFF4FFF350F45C04E380
:103A8000020EDB50390820E2610EF36E020EDBCF2E
:103A9000F4FFF350F45C04E3020EDB50660814E21A
:103AA000410EF36E020EDBCFF4FFF350F45C04E33F
:103AB000020EDB50460808E2020EDB50780804E0F4
:103AC000020EDB50580835E10201A4512B6E2C6A1E
:103AD000060E2B5C000E2C582CE2610EF36E020ECB
:103AE000DBCFF4FFF350F45C04E3020EDB50660816
:103AF00004E2020EDB5078080AE1200E2B6E020E63
:103B0000DBCFE7FF2B50E75E020EE7CFDBFF020EB5
:103B1000DBCFE6FFDEEC2AF0E5520201A451EA6AAF
:103B20009E0FE96E020EEA22020EDBCFEFFFA42BFE
:103B3000F9D0020EDB500D0801E0F4D0300E020186
:103B40009E5D01E079D0580E9F5D76E1A451040896
:103B500004E2DE6A010EDD6E6ED0040EA45D44E167
:103B6000300EA05D0AE3A051390807E3300EA05DD6
:103B7000100DF350DE6EDD6A14D0410EA05D0BE334
:103B8000A051460808E3410EA05D0A0F100DF35046
:103B9000DE6EDD6A06D0580EA05D03E1DE6A010E1E
:103BA000DD6E300EA15D09E3A151390806E3300E48
:103BB000A15DDE26000EDD2216D0410EA15D0AE3D6
:103BC000A151460807E3410EA15D0A0FDE26000E53
:103BD000DD2209D0580EA15D06E1D9CFE9FFDACF89
:103BE000EAFFEE52ED2A27D0030EA45D21E1300E4C
:103BF000A05D08E3A051390805E3300EA05DDE6E3C
:103C0000DD6A15D0410EA05D09E3A051460806E328
:103C1000410EA05D0A0FDE6EDD6A09D0580EA05D70
:103C200006E1D9CFE9FFDACFEAFFEE52ED2A03D061
:103C3000DE6A010EDD6E5DD0A451030804E2DE6A87
:103C4000010EDD6E56D0030EA45D32E1300E9E5D96
:103C50002B6E2C6A640E1D6E1E6A2BC022F02CC0C7
:103C600023F0FBEC37F01BC0DEFF1CC0DDFF300E85
:103C700002019F5D2D6E2E6A0A0E1D6E1E6A2DC0FA
:103C800022F02EC023F0FBEC37F01BC02BF01CC041
:103C90002CF0D9CFE9FFDACFEAFF2B50EE262C50DB
:103CA000ED22300E0201A05DDE26000EDD2221D0C5
:103CB000020EA45D0CE1300E9E5D0A0DF350DE6E27
:103CC000DD6A300E9F5DDE26000EDD2212D0A405D7
:103CD00005E1300E9E5DDE6EDD6A0BD0A45109E178
:103CE000A551EA6A880FE96E020EEA22EF50DE6EF5
:103CF000DD6AD9CFE9FFDACFEAFFFF0ED880EE54B4
:103D0000000EED540CE3A551EA6A880FE96E020E2D
:103D1000EA22DFCFEFFF0301010E266F03D003017C
:103D2000050E266FA6D0280E2B6E470E2C6E2D6A20
:103D30002BC0E6FF2CC0E6FF2DC0E6FF04EC43F0ED
:103D4000E552E552E5520301030E266F92D00201BF
:103D5000550E8A6F730E8B6F0F0E8C6F110E8D6F59
:103D6000640E8E6F910E8F6F906B916B800E926FC1
:103D7000936F946F010E956F966F200E976F986FEB
:103D8000800E996F9A6F200E9B6F840E9C6F0301BB
:103D9000010E266F6ED00201A76BA7512B6E2C6A05
:103DA000160E2B5C000E2C5814E2A751EA6A880FFD
:103DB000E96E020EEA22030EEFCFDBFFA751EA6A9B
:103DC000080FE96E020EEA22030EDBCFEFFFA72BEE
:103DD000E4D7000EE66EE66AAEDAE552E552120E60
:103DE0002B6E470E2C6E2D6A2BC0E6FF2CC0E6FF13
:103DF0002DC0E6FF04EC43F0E552E552E552030125
:103E0000080E266F36D0AFEC42F0200813E10B0EFF
:103E10002B6E470E2C6E2D6A2BC0E6FF2CC0E6FFE2
:103E20002DC0E6FF04EC43F0E552E552E5520301F4
:103E3000010E266F1ED0F20E2B6E460E2C6E2D6AD2
:103E40002BC0E6FF2CC0E6FF2DC0E6FF04EC43F0DC
:103E5000E552E552E5523CEC2AF003010A0E266FCA
:103E600008D03FEC2AF0010803E10301010E266FA0
:103E700000D00301255100D0D9CFE1FFE552E7CFB3
:103E8000D9FF1200EF0E2B6E460E2C6E2D6A2BC042
:103E9000E6FF2CC0E6FF2DC0E6FF04EC43F0E55240
:103EA000E552E552D30E2B6E460E2C6E2D6A2BC0BA
:103EB000E6FF2CC0E6FF2DC0E6FF04EC43F0E55220
:103EC000E552E55202018A51E66EE66A8A51E66ED3
:103ED000E66AB20E2B6E460E2C6E2D6A2BC0E6FFE4
:103EE0002CC0E6FF2DC0E6FF04EC43F0F56E070E94
:103EF000E15EF55002018B51E66EE66A8B51E66E8B
:103F0000E66A910E2B6E460E2C6E2D6A2BC0E6FFD4
:103F10002CC0E6FF2DC0E6FF04EC43F0F56E070E63
:103F2000E15EF55002018C51E66EE66A8C51E66E58
:103F3000E66A700E2B6E460E2C6E2D6A2BC0E6FFC5
:103F40002CC0E6FF2DC0E6FF04EC43F0F56E070E33
:103F5000E15EF55002018D51E66EE66A8D51E66E26
:103F6000E66A4F0E2B6E460E2C6E2D6A2BC0E6FFB6
:103F70002CC0E6FF2DC0E6FF04EC43F0F56E070E03
:103F8000E15EF55002018E51E66EE66A8E51E66EF4
:103F9000E66A2E0E2B6E460E2C6E2D6A2BC0E6FFA7
:103FA0002CC0E6FF2DC0E6FF04EC43F0F56E070ED3
:103FB000E15EF55002018F51E66EE66A8F51E66EC2
:103FC000E66A0D0E2B6E460E2C6E2D6A2BC0E6FF98
:103FD0002CC0E6FF2DC0E6FF04EC43F0F56E070EA3
:103FE000E15EF55002019051E66EE66A9051E66E90
:103FF000E66AEF0E2B6E450E2C6E2D6A2BC0E6FF87
:104000002CC0E6FF2DC0E6FF04EC43F0F56E070E72
:10401000E15EF550D90E2B6E450E2C6E2D6A2BC02D
:10402000E6FF2CC0E6FF2DC0E6FF04EC43F0E552AE
:10403000E552E55202019151E66EE66A9151E66E53
:10404000E66ABA0E2B6E450E2C6E2D6A2BC0E6FF6B
:104050002CC0E6FF2DC0E6FF04EC43F0F56E070E22
:10406000E15EF55002019251E66EE66A9251E66E0B
:10407000E66A9B0E2B6E450E2C6E2D6A2BC0E6FF5A
:104080002CC0E6FF2DC0E6FF04EC43F0F56E070EF2
:10409000E15EF55002019351E66EE66A9351E66ED9
:1040A000E66A7C0E2B6E450E2C6E2D6A2BC0E6FF49
:1040B0002CC0E6FF2DC0E6FF04EC43F0F56E070EC2
:1040C000E15EF55002019451E66EE66A9451E66EA7
:1040D000E66A5D0E2B6E450E2C6E2D6A2BC0E6FF38
:1040E0002CC0E6FF2DC0E6FF04EC43F0F56E070E92
:1040F000E15EF55002019551E66EE66A9551E66E75
:10410000E66A3E0E2B6E450E2C6E2D6A2BC0E6FF26
:104110002CC0E6FF2DC0E6FF04EC43F0F56E070E61
:10412000E15EF55002019651E66EE66A9651E66E42
:10413000E66A1F0E2B6E450E2C6E2D6A2BC0E6FF15
:104140002CC0E6FF2DC0E6FF04EC43F0F56E070E31
:10415000E15EF55002019751E66EE66A9751E66E10
:10416000E66AFF0E2B6E440E2C6E2D6A2BC0E6FF06
:104170002CC0E6FF2DC0E6FF04EC43F0F56E070E01
:10418000E15EF55002019851E66EE66A9851E66EDE
:10419000E66ADF0E2B6E440E2C6E2D6A2BC0E6FFF6
:1041A0002CC0E6FF2DC0E6FF04EC43F0F56E070ED1
:1041B000E15EF55002019951E66EE66A9951E66EAC
:1041C000E66ABF0E2B6E440E2C6E2D6A2BC0E6FFE6
:1041D0002CC0E6FF2DC0E6FF04EC43F0F56E070EA1
:1041E000E15EF55002019A51E66EE66A9A51E66E7A
:1041F000E66A9F0E2B6E440E2C6E2D6A2BC0E6FFD6
:104200002CC0E6FF2DC0E6FF04EC43F0F56E070E70
:10421000E15EF55002019B51E66EE66A9B51E66E47
:10422000E66A7F0E2B6E440E2C6E2D6A2BC0E6FFC5
:104230002CC0E6FF2DC0E6FF04EC43F0F56E070E40
:10424000E15EF55002019C51E66EE66A9C51E66E15
:10425000E66A5F0E2B6E440E2C6E2D6A2BC0E6FFB5
:104260002CC0E6FF2DC0E6FF04EC43F0F56E070E10
:10427000E15EF550EF0E2B6E460E2C6E2D6A2BC0B4
:10428000E6FF2CC0E6FF2DC0E6FF04EC43F0E5524C
:10429000E552E5524A0E2B6E440E2C6E2D6A2BC051
:1042A000E6FF2CC0E6FF2DC0E6FF04EC43F0E5522C
:1042B000E552E552300E2B6E440E2C6E2D6A2BC04B
:1042C000E6FF2CC0E6FF2DC0E6FF04EC43F0E5520C
:1042D000E552E5521D0E2B6E440E2C6E2D6A2BC03E
:1042E000E6FF2CC0E6FF2DC0E6FF04EC43F0E552EC
:1042F000E552E552120E2B6E440E2C6E2D6A2BC029
:10430000E6FF2CC0E6FF2DC0E6FF04EC43F0E552CB
:10431000E552E552EF0E2B6E460E2C6E2D6A2BC029
:10432000E6FF2CC0E6FF2DC0E6FF04EC43F0E552AB
:10433000E552E5521200D9CFE6FFE1CFD9FF050ED5
:10434000E126030EDB6A040EDB6A0201420E086FEF
:10435000500E096FDE6ADD6ADECF2BF0DDCF2CF068
:10436000150E2B5C000E2C5834E2DECFE9FFDDCFBA
:10437000EAFF080EE926020EEA22020EEFCFDBFF6B
:10438000DBCFE6FFFD0EDBCF2DF0FE0EDBCF2EF0F8
:10439000DE502D242B6EDD502E202C6E2BC0E6FF20
:1043A0002CC0E6FFFDEC41F0E552E552E552020E6D
:1043B000DB502B6E2C6AD950030FE96EDACFEAFF7F
:1043C0002B50EE262C50ED22DF2A010E01E3DB2AD2
:1043D000C3D7030EDBCFE6FF160EE76EFD0EDBCF75
:1043E0002BF0FE0EDBCF2CF0E7502B26000E2C22FC
:1043F0002B062C5A2BC0E6FF2CC0E6FFFDEC41F04B
:10440000E552E552E552D9CFE1FFE552E7CFD9FFBA
:1044100012005B785D20457869740D0A005B775D5A
:104420002053617665206368616E6765730D0A00CD
:104430005B765D204C6F61642064656661756C74A9
:104440002076616C7565730D0A005B755D205265A1
:1044500073746172742063616D6572610D0A005B33
:10446000735D204368616E676520434F4D4A203D70
:104470002025752028307825303258290D0A005B18
:10448000725D204368616E6765204548534C203D4E
:104490002025752028307825303258290D0A005BF8
:1044A000715D204368616E67652045485348203D33
:1044B0002025752028307825303258290D0A005BD8
:1044C000705D204368616E676520434F4D49203D14
:1044D0002025752028307825303258290D0A005BB8
:1044E0006F5D204368616E676520434F4D42203DFC
:1044F0002025752028307825303258290D0A005B98
:104500006E5D204368616E676520434F4D41203DDD
:104510002025752028307825303258290D0A005B77
:104520006D5D204368616E676520414543203D20F5
:1045300025752028307825303258290D0A005B6C0B
:104540005D204368616E676520425254203D2025FE
:10455000752028307825303258290D0A005B6B5DB4
:10456000204368616E676520534154203D202575C6
:104570002028307825303258290D0A005B6A5D20EA
:104580004368616E676520524544203D20257520B3
:1045900028307825303258290D0A005B695D2043A8
:1045A00068616E676520424C55203D2025752028A6
:1045B000307825303258290D0A005B685D20436849
:1045C000616E676520414743203D202575202830D6
:1045D0007825303258290D0A000D0A416476616E43
:1045E000636564206F7074696F6E733A0D0A005BC7
:1045F000675D204368616E6765204E46203D20253B
:10460000752028307825303258290D0A005B665D08
:10461000204368616E676520425F4D6178203D20D0
:1046200025752028307825303258290D0A005B6521
:104630005D204368616E676520425F4D696E203D75
:104640002025752028307825303258290D0A005B46
:10465000645D204368616E676520475F4D61782027
:104660003D2025752028307825303258290D0A0044
:104670005B635D204368616E676520475F4D696ECF
:10468000203D2025752028307825303258290D0A04
:10469000005B625D204368616E676520525F4D611B
:1046A00078203D2025752028307825303258290D76
:1046B0000A005B615D204368616E676520525F4D53
:1046C000696E203D20257520283078253032582904
:1046D0000D0A000D0A43616C6962726174696F6E44
:1046E00020706172616D65746572733A0D0A000D18
:1046F0000A000D0A52657374617274696E67204313
:10470000616D6572612E2E2E0D0A00446F6E650D6F
:104710000A000D0A536176696E6720746F20454563
:1047200050524F4D2E2E2E000D0A4572726F723A66
:10473000204E756D626572206F7574206F662072F1
:10474000616E67652E0D0A000D0A456E7465722054
:104750006E65772076616C7565202870726563657B
:1047600065642068657861646563696D616C206E5D
:10477000756D626572732077697468203078293AA4
:1047800020004E6F2063616D657261206461746109
:104790002E2E2E0D0A00436F6E666964656E63658A
:1047A0002028506978656C732920203D2025750DDF
:1047B0000A0020426C6F622053697A652028506994
:1047C00078656C732920203D2025750D0A005469F9
:1047D0006C74204572726F722028506978656C7312
:1047E0002920203D2025640D0A002050616E2045BF
:1047F00072726F722028506978656C732920203D91
:104800002025640D0A0054696C7420416E676C6544
:1048100020286465677265657329203D2025640D35
:104820000A002050616E20416E676C652028646527
:10483000677265657329203D2025640D0A000D0A05
:1048400000536561726368696E672E2E2E0D0A0033
:104850005B705D2052657475726E20546F204D61DF
:10486000696E20547261636B696E67204D656E7569
:104870000D0A005B6F5D20446973706C61792043A1
:10488000757272656E742050574D2056616C756557
:10489000730D0A005B6E5D205365742054696C745F
:1048A000204D61782050574D2056616C75650D0A7A
:1048B000005B6D5D205365742054696C7420436502
:1048C0006E7465722050574D2056616C75650D0AE7
:1048D000005B6C5D205365742054696C74204D69D5
:1048E0006E2050574D2056616C75650D0A005B6B4C
:1048F0005D2054696C7420446F776E2054656E207F
:1049000053746570730D0A005B6A5D2054696C74A2
:1049100020446F776E204F6E6520537465700D0ACA
:10492000005B695D2054696C742055702054656E7D
:104930002053746570730D0A005B685D2054696CC8
:1049400074205570204F6E6520537465700D0A00F9
:104950005B675D205365742050616E204D61782047
:1049600050574D2056616C75650D0A005B665D20E1
:104970005365742050616E2043656E7465722050DB
:10498000574D2056616C75650D0A005B655D2053BF
:1049900065742050616E204D696E2050574D205631
:1049A000616C75650D0A005B645D2050616E20527C
:1049B000696768742054656E2053746570730D0ABE
:1049C000005B635D2050616E205269676874204F00
:1049D0006E6520537465700D0A005B625D20506146
:1049E0006E204C6566742054656E20537465707338
:1049F0000D0A005B615D2050616E204C656674207D
:104A00004F6E6520537465700D0A005B785D20451C
:104A10007869740D0A005B775D20536176652063C9
:104A200068616E6765730D0A005B765D204C6F618F
:104A3000642064656661756C742076616C7565735D
:104A40000D0A005B755D20496E746572616374695F
:104A500076652050574D2041646A7573746D656E9C
:104A600074204D656E750D0A005B725D20436861B0
:104A70006E676520436F6E666964656E636520547A
:104A800068726573686F6C64203D2025750D0A009F
:104A90005B715D204368616E676520536561726379
:104AA000682044656C6179203D2025750D0A005B06
:104AB000705D204368616E67652054696C74205492
:104AC000617267657420506978656C203D2025759A
:104AD0000D0A005B6F5D204368616E676520546955
:104AE0006C74205365617263682053746570205341
:104AF000697A65203D2025750D0A005B6E5D2043B7
:104B000068616E67652054696C7420526F746174BB
:104B1000696F6E205369676E203D20252B640D0A56
:104B2000005B6D5D204368616E67652054696C743D
:104B300020416C6C6F7761626C65204572726F7298
:104B4000203D2025750D0A005B6C5D204368616E79
:104B500067652054696C74204761696E203D20258B
:104B6000750D0A005B6B5D204368616E67652054BC
:104B7000696C74204D61782050574D203D2025757B
:104B80000D0A005B6A5D204368616E6765205469A9
:104B90006C742043656E7465722050574D203D2023
:104BA00025750D0A005B695D204368616E676520AD
:104BB00054696C74204D696E2050574D203D20255E
:104BC000750D0A005B685D204368616E6765205063
:104BD000616E2054617267657420506978656C203D
:104BE0003D2025750D0A005B675D204368616E6797
:104BF000652050616E20536561726368205374654F
:104C0000702053697A65203D2025750D0A005B668A
:104C10005D204368616E67652050616E20526F743D
:104C20006174696F6E205369676E203D20252B6487
:104C30000D0A005B655D204368616E676520506109
:104C40006E20416C6C6F7761626C65204572726F8B
:104C500072203D2025750D0A005B645D204368616C
:104C60006E67652050616E204761696E203D20258A
:104C7000750D0A005B635D204368616E67652050B7
:104C8000616E204D61782050574D203D2025750DD7
:104C90000A005B625D204368616E67652050616E4B
:104CA0002043656E7465722050574D203D20257558
:104CB0000D0A005B615D204368616E67652050618D
:104CC0006E204D696E2050574D203D2025750D0AF0
:104CD00000446F6E650D0A000D0A536176696E67B8
:104CE00020746F20454550524F4D2E2E2E00546992
:104CF0006C74203D2025750050616E203D20257587
:104D00000D0A000D0A000D0A4572726F723A204EAC
:104D1000756D626572206F7574206F662072616EAA
:104D200067652E0D0A000D0A456E746572206E656A
:104D3000772076616C75653A200052656365697607
:104D4000656420616E20756E657870656374656456
:104D5000206E756D626572205B7752525D202F6EFA
:104D600000526563656976656420616E20756E65C5
:104D700078706563746564206E756D626572205B22
:104D800077524C5D202F6E005265636569766564CD
:104D900020616E20756E6578706563746564206E41
:104DA000756D626572205B7746525D202F6E0052F2
:104DB0006563656976656420616E20756E657870DF
:104DC0006563746564206E756D626572205B7746FD
:104DD0004C5D202F6E00D9CFE6FFE1CFD9FF040E46
:104DE000E1260201EF510BE1F0D8DF6EDF0404E1B0
:104DF0000201010EEF6F03D0DF50010800E2C0DBBB
:104E0000E76E010EE7CFDBFFDB50000817E2030E71
:104E1000DB6A010EDB50F36E030EDBCFF4FFF350C1
:104E2000F45C0CE2B1DBE76E020EE7CFDBFFDBCF19
:104E3000E6FF0AD8E552030EDB2AEBD7D9CFE1FF14
:104E4000E552E7CFD9FF1200D9CFE6FFE1CFD9FF76
:104E50000201F651060A01E18FD0030A68E0060A52
:104E600034E0010A25E0030A01E0ABD0FE0EDB507E
:104E70002B6E2C6AFF0E2B1801E12C5003E1020E61
:104E8000F66F15D0FE0EDB50410807E10201020E5D
:104E9000416F0201050EF66F0AD0FE0EDB504E0880
:104EA00006E10201020E416F0201060EF66F89D083
:104EB000FE0EDB50540806E10201406B0201030EB6
:104EC000F66F02D0010EF66F7CD0020140512B6EBE
:104ED0002C6A080E2B5C000E2C580AE24051EA6A3C
:104EE0001E0FE96E020EEA22FE0EDBCFEFFF402B13
:104EF00040512B6E2C6A080E2B1801E12C5016E144
:104F00001EC200F21FC201F220C202F221C203F24D
:104F100022C204F223C205F224C206F225C207F21D
:104F20000201F02B000EF123010EF66F4AD0020EA3
:104F30000201415D06E1FE0EDB50430802E1412B18
:104F40001AD0030E415D06E1FE0EDB504B0802E174
:104F5000412B11D0040E415D0BE1FE0EDB500D081C
:104F600007E10201F22B000EF323010EF66F03D0CE
:104F70000201010EF66F25D0020E0201415D06E12D
:104F8000FE0EDB50430802E1412B1AD0030E415DB7
:104F900006E1FE0EDB504B0802E1412B11D0040E5E
:104FA000415D0BE1FE0EDB500D0807E10201F42B21
:104FB000000EF523010EF66F03D00201010EF66F0D
:104FC00000D0E552E7CFD9FF1200D9CFE6FFE1CFFD
:104FD000D9FFE6520201F70507E149DA050EE66E50
:104FE00052DAE5520201F76BF8050DE1F86B0201A8
:104FF000436B010E426F446B456B466B0201F26BD3
:10500000F36BF46BF56B0201430529E10201010E1C
:10501000F25D000EF35905E30201436B446B456BEF
:105020001DD0010EF45D000EF55904E302014205A6
:10503000466F14D002010A0E445D000E45590BE381
:10504000800E42252B6E2C6A000E2C222B062C5A29
:105050002BC046F203D0442B000E452322D102017F
:10506000F26BF36BF46BF56B02014251120A01E132
:1050700015D1030A01E1FBD0010A01E1EED01F0ABC
:1050800001E1DED0010A01E1CED0030A01E1BED088
:10509000010A01E1AED0070A01E19ED0010A01E157
:1050A0008FD0030A01E17FD0010A70E00F0A61E0AE
:1050B000010A52E0030A43E0010A34E0070A25E04E
:1050C000010A1FE0030A01E0ECD0E66A000EE66E7A
:1050D000E66AF5D8E552E552E552DF6EDF5001E1B0
:1050E0000AD0DF0401E107D0020EDF5C01E103D04A
:1050F000030EDF5C00E1BBD90201020E426F436B7D
:10510000D0D0030E426F436BCCD019C2E6FF290EFC
:10511000E66E18DAE552E5520201040E426F010E06
:10512000436FBFD018C2E6FF130EE66E0BDAE552EE
:10513000E5520201050E426F010E436FB2D01CC250
:10514000E6FF2D0EE66EFED9E552E5520201060E8F
:10515000426F010E436FA5D01AC2E6FF2A0EE66E1B
:10516000F1D9E552E5520201070E426F010E436F7D
:1051700098D01BC2E6FF2B0EE66EE4D9E552E5524D
:105180000201080E426F010E436F8BD01CC2E6FF76
:105190002D0EE66ED7D9E552E5520201090E426F97
:1051A000010E436F7ED017C2E6FF120EE66ECAD91B
:1051B000E552E55202010A0E426F010E436F71D0B3
:1051C00011C2E6FFE66ABED9E552E55202010B0EB6
:1051D000426F010E436F65D012C2E6FF010EE66E0C
:1051E000B1D9E552E55202010C0E426F010E436F38
:1051F00058D013C2E6FF020EE66EA4D9E552E5527E
:1052000002010D0E426F010E436F4BD014C2E6FF38
:10521000030EE66E97D9E552E55202010E0E426F7B
:10522000010E436F3ED015C2E6FF060EE66E8AD928
:10523000E552E55202010F0E426F010E436F31D06D
:1052400016C2E6FF100EE66E7DD9E552E552020168
:10525000100E426F010E436F24D010C2E6FF31D909
:10526000E5520201110E426F010E436F1AD00FC2B8
:10527000E6FF0EC2E6FF0DC2E6FF0CC2E6FF0BC260
:10528000E6FF0AC2E6FFC1D8F56E060EE15EF550F4
:105290000201120E426F010E436F03D0010E466FE2
:1052A00000D04651000803E20201010EF86F02012E
:1052B000465100D0E552E552E7CFD9FF1200D9CFD1
:1052C000E6FFE1CFD9FF060EE126FC0EDB5065E1DB
:1052D000020EDB6A030EDB6ADF6ADF502B6E2C6A7C
:1052E000160E2B5C000E2C5838E2DF50E76EFD0ED8
:1052F000DBCF2BF0FE0EDBCF2CF0E7502B26000E81
:105300002C222BC0E6FF2CC0E6FFE3EC41F0E55277
:10531000E552E76E010EE7CFDBFFDF50EA6A080FC8
:10532000E96E020EEA22010EDBCFEFFFDF502B6E9B
:105330002C6A150E2B5C000E2C580DE2010EDB5072
:105340002B6E2C6AD950020FE96EDACFEAFF2B5090
:10535000EE262C50ED22DF2AC0D7420E0201085D56
:1053600014E1500E095D11E1020EDB501D5D05E1F7
:10537000040EDB6A050EDB6A07D0010EF36E040E25
:10538000F3CFDBFF050EDB6A07D0020EF36E040ECF
:10539000F3CFDBFF050EDB6A07D0030EF36E040EBE
:1053A000F3CFDBFF050EDB6AD950040FE96EDACFCD
:1053B000EAFFEE50ED1020E00201550E0A6F730E69
:1053C0000B6F0F0E0C6F110E0D6F640E0E6F910EA2
:1053D0000F6F106B116B800E126F136F146F010E35
:1053E000156F166F200E176F186F800E196F1A6FDA
:1053F000200E1B6F840E1C6F040EDB5000D0D9CF23
:10540000E1FFE552E7CFD9FF1200D9CFE6FFE1CFA8
:10541000D9FF540EE66EBCD8E552430EE66EB8D8FE
:10542000E552060EE66EB4D8E552FE0EDBCFE6FF7F
:10543000AFD8E552FD0EDBCFE6FFAAD8E552FC0E51
:10544000DBCFE6FFA5D8E552FB0EDBCFE6FFA0D809
:10545000E552FA0EDBCFE6FF9BD8E552F90EDBCF23
:10546000E6FF96D8E552E552E7CFD9FF12000D0EC0
:10547000E66E8ED8E55212000201EF6B12000201B7
:10548000EF5100D01200D9CFE6FFE1CFD9FF520E85
:10549000E66E7ED8E5524D0EE66E7AD8E552200EC5
:1054A000E66E76D8E552FE0EDB50300FE66E70D811
:1054B000E5520D0EE66E6CD8E552E552E7CFD9FF06
:1054C0001200D9CFE6FFE1CFD9FF4E0EE66E60D8CD
:1054D000E552460EE66E5CD8E552010EE66E58D8EF
:1054E000E552FE0EDBCFE6FF53D8E552E552E7CF9B
:1054F000D9FF1200D9CFE6FFE1CFD9FF560EE66EF5
:1055000047D8E552570EE66E43D8E552040EE66ED4
:105510003FD8E552FE0EDBCFE6FF3AD8E552FD0E4E
:10552000DBCFE6FF35D8E552FC0EDBCFE6FF30D807
:10553000E552FB0EDBCFE6FF2BD8E552E552E7CF75
:10554000D9FF1200D9CFE6FFE1CFD9FF430EE66EB7
:105550001FD8E552520EE66E1BD8E552020EE66EDB
:1055600017D8E552FE0EDBCFE6FF12D8E552FD0E4E
:10557000DBCFE6FF0DD8E552E552E7CFD9FF1200A9
:1055800069EC3BF000D012009FEC3BF000D0120021
:10559000D9CFE6FFE1CFD9FFFE0EDBCFE6FFE6EC89
:1055A0003BF0E552E552E7CFD9FF120059EC3BF052
:1055B00000D0120079EC3BF000D01200D9CFE6FF0A
:1055C000E1CFD9FFFE0EDBCFE6FFC5EC3BF0E552A5
:1055D000E552E7CFD9FF1200D9CFE6FFE1CFD9FFDF
:1055E000020EE126FD0EDBCF1DF0FE0EDBCF1EF01E
:1055F0003EEC36F01CC02BF01DC02CF01EC02DF070
:105600001FC02EF00C0E216E060E226E030E236EAE
:105610003F0E246E2BC01CF02CC01DF02DC01EF0C0
:105620002EC01FF03BEC37F040EC38F01DC0DEFF21
:105630001EC0DDFFDECF2BF0DDCF2CF02BC0F3FF43
:105640002CC0F4FF00D0D9CFE1FFE552E7CFD9FF5E
:105650001200D9CFE6FFE1CFD9FFFD0EDBCF2BF053
:10566000FE0EDBCF2CF02C3404E22B50FE08000E93
:105670002C5413E2FE0EF36EFD0EF3CFDBFFFE0E95
:10568000DB6AFD0EDBCF2BF0FE0EDBCF2CF02BC048
:10569000F3FF2CC0F4FF26D025D0FD0EDBCF2BF07E
:1056A000FE0EDBCF2CF00001800E2C1410E0FD0E5E
:1056B000DB6AFE0EDB6AFD0EDBCF2BF0FE0EDBCFCE
:1056C0002CF02BC0F3FF2CC0F4FF0CD00BD0FD0E40
:1056D000DBCF2BF0FE0EDBCF2CF02BC0F3FF2CC06A
:1056E000F4FF00D0E552E7CFD9FF1200D9CFE6FF93
:1056F000E1CFD9FFFD0EDBCF2BF0FE0EDBCF2CF080
:10570000D8902C5004E67F0E2B5C000E2C580AE239
:10571000D950FD0FE96EFF0EDA20EA6EEE2A000E78
:10572000ED221FD0FD0EDBCF2BF0FE0EDBCF2CF0D9
:105730002C3404E22B507F08000E2C540BE2D9507D
:10574000FD0FE96EFF0EDA20EA6E7F0EEE5E000EB0
:10575000ED5A07D07F0EF36EFD0EF3CFDBFFFE0E8A
:10576000DB6AFD0EDBCF2BF0FE0EDBCF2CF02BC067
:10577000F3FF2CC0F4FF00D0E552E7CFD9FF1200B1
:10578000D8CFE4FFE0CFE4FFE46EDACFE4FFE2CF6E
:10579000DAFFE9CFE4FFEACFE4FFF3CFE4FFF4CF91
:1057A000E4FF00EE2BF0100EE80403E3EECFE4FF7D
:1057B000FBD7E6529E50200B06E09D50200B03E0E5
:1057C00007EC3CF01AD0A450200B06E0A350200BAD
:1057D00003E026EC3CF011D09E50100B06E09D50EB
:1057E000100B03E045EC3CF008D0A450100B05E092
:1057F000A350100B02E05DEC3CF0E55200EE3AF0F5
:10580000100EE80403E3E5CFEDFFFBD7E5CFF4FF8F
:10581000E5CFF3FFE5CFEAFFE5CFE9FFE5CFDAFF1C
:10582000E550E5CFE0FFE5CFD8FF1000D9CFE6FF88
:10583000E1CFD9FF120EE12602017F0E526F52C254
:1058400051F252C250F252C24FF252C24EF252C202
:105850004DF252C24CF252C24BF25A6F5AC259F236
:105860005AC258F25AC257F25AC256F25AC255F2A6
:105870005AC254F25AC253F28C928D928C908D90EF
:105880008C968D968C948D948C9A8D9A8C988D98FC
:105890008C9E91908C9C8D9C020168AD73D202010C
:1058A00087A16FD2670EE66E020EE66EA1EC33F0B2
:1058B000E552E55203011C5104E11D5102E1F9ECEE
:1058C0003DF0EBEC26F003011D5102E1D1EC2EF08E
:1058D0006BEC32F0020803E10201488502D00201BC
:1058E000489503011C0505E18CEC1CF003011C6FBD
:1058F00017D01D0505E15CEC0FF003011D6F10D002
:10590000DAEC2AF0DF6E630EDF5C04E10301010EC6
:105910001C6F06D0740EDF5C03E10301010E1D6FE6
:1059200033EC42F06BEC32F0020801E00BD20201E2
:105930005A512B6E2C6A2C3404E22B508208000E34
:105940002C5406E2930E4B6F4C6F4D6F4E6FEFD79A
:105950007C0E5A5D06E26B0E4B6F4C6F4D6F4E6FB7
:10596000F7D702015951E66EE66A36DEE552E55296
:10597000F3CFF6FFF4CFF7FFD890F636F736D8908E
:10598000F636F736D890F636F736220EF626790E2A
:10599000F7220900F5CF2BF00900F5CF2CF0090014
:1059A000F5CF2DF00800F5CF2EF0216A226AC00E47
:1059B000236E410E246E2BC01CF02CC01DF02DC098
:1059C0001EF02EC01FF078EC38F0010A01E198D0EB
:1059D0007F0E1D6E1E6A0E0E1DC0DBFF0F0E1EC059
:1059E000DBFF0E0E1DC0DBFF0F0E1EC0DBFF0C0E1B
:1059F0001DC0DBFF0D0E1EC0DBFF0A0E1DC0DBFF4E
:105A00000B0E1EC0DBFFD9500A0FE96EDACFEAFF9A
:105A1000EE2A000EED22D9500C0FE96EDACFEAFF24
:105A2000EE06000EED5AD9500E0FE96EDACFEAFFFE
:105A3000EE2A000EED22D950100FE96EDACFEAFF00
:105A4000EE06000EED5A0C0EDBCF2BF00D0EDBCF69
:105A50002CF02C3404E22B507F08000E2C5417E25B
:105A60000C0EDBCF2DF00D0EDBCF2EF0D8902E508C
:105A700004E6AA0E2D5C000E2E5809E2D9500C0F38
:105A8000E96EDACFEAFF0C0EEE26000EED22100EC4
:105A9000DBCF2BF0110EDBCF2CF02C3404E22B509B
:105AA0007F08000E2C5417E2100EDBCF2DF0110EE4
:105AB000DBCF2EF0D8902E5004E6AA0E2D5C000EFF
:105AC0002E5809E2D950100FE96EDACFEAFF0C0E1A
:105AD000EE26000EED220A0EDBCF4BF20C0EDBCFD2
:105AE0004CF20E0EDBCF4DF2100EDBCF4EF24BC25E
:105AF0000BF34CC20CF34DC20DF34EC20EF331D773
:105B00000BC32BF02C6A2BBE2C68020E2BC0DBFFC4
:105B1000030E2CC0DBFF0CC32BF02C6A2BBE2C68B1
:105B2000040E2BC0DBFF050E2CC0DBFF0DC32BF0DA
:105B30002C6A2BBE2C68060E2BC0DBFF070E2CC078
:105B4000DBFF0EC32BF02C6A2BBE2C68080E2BC07B
:105B5000DBFF090E2CC0DBFF02015951E66EE66A3D
:105B60003BDDE552E552F3CFF6FFF4CFF7FFD890D7
:105B7000F636F736D890F636F736D890F636F7364A
:105B8000220EF626790EF7220900F5CF2BF0090038
:105B9000F5CF2CF00900F5CF2DF00800F5CF2EF051
:105BA000216A226AC00E236E410E246E2BC01CF0A7
:105BB0002CC01DF02DC01EF02EC01FF078EC38F068
:105BC000010A01E07FD002015951E66EE66A04DD68
:105BD000E552E552F3CFF6FFF4CFF7FFD890F63653
:105BE000F736D890F636F736D890F636F736220ED6
:105BF000F626790EF7220900F5CF2FF00900F5CF30
:105C000030F00900F5CF31F00800F5CF32F0216A0D
:105C1000226AA00E236E400E246E2FC01CF030C0EE
:105C20001DF031C01EF032C01FF078EC38F0010AD0
:105C300049E0020EDBCFE6FF030EDBCFE6FF56DDC9
:105C4000E552E552020EF3CFDBFF030EF4CFDBFF8C
:105C5000040EDBCFE6FF050EDBCFE6FF47DDE552A6
:105C6000E552040EF3CFDBFF050EF4CFDBFF060E8B
:105C7000DBCFE6FF070EDBCFE6FF38DDE552E5526E
:105C8000060EF3CFDBFF070EF4CFDBFF080EDBCFF2
:105C9000E6FF090EDBCFE6FF29DDE552E552080EEF
:105CA000F3CFDBFF090EF4CFDBFF020EDBCF4BF2AD
:105CB000040EDBCF4CF2060EDBCF4DF2080EDBCF2D
:105CC0004EF24AD702015951E66EE66A85DCE5528A
:105CD000E552F3CFF6FFF4CFF7FFD890F636F7365C
:105CE000D890F636F736D890F636F736220EF626E6
:105CF000790EF7220900F5CF2BF00900F5CF2CF033
:105D00000900F5CF2DF00800F5CF2EF0216A226AA8
:105D1000A00E236E400E246E2BC01CF02CC01DF074
:105D20002DC01EF02EC01FF078EC38F0010A09E1FA
:105D300002017F0E4E6F4EC24DF24EC24CF24EC269
:105D40004BF209D002017F0E4E6F4EC24DF24EC291
:105D50004CF24EC24BF25AC2E6FF59C2E6FF58C29D
:105D6000E6FF57C2E6FFABEC3AF0E552E552E552EA
:105D7000E552470EE66E020EE66EBAEC33F0E552DF
:105D8000E5528AD5D9CFE1FFE552E7CFD9FF12001E
:105D90001200D9CFE6FFE1CFD9FFE552E7CFD9FF17
:105DA0001200D9CFE6FFE1CFD9FF0A0EE1260301A9
:105DB00000510FE1010E006FC5DAC4C2D6F2CCC2A9
:105DC000D7F2D6C2E6FFA3DBE552D7C2E6FFAADBD5
:105DD000E552030102510201F01904E103010351EC
:105DE0000201F11901E1A8D2F0C202F3F1C203F3FA
:105DF0000301016B0201D4510201075D01E2F3D1FD
:105E00000301010E046F016F0201D651DE6EDD6ADF
:105E1000020100512D6E2E6A0201CA512F6E306AA6
:105E20002F502D5C2B6E30502E582C6E060E2BC032
:105E3000DBFF070E2CC0DBFF060EDBCF2BF0070EBF
:105E4000DBCF2CF0C7512D6E2E6A2E502C18E8AEE9
:105E500002D02C3404D02B502D5C2C502E5825E22F
:105E6000C6512B6E2C6A060EDBCF1DF0070EDBCF62
:105E70001EF02BC022F02CC023F0A8EC37F0040E4B
:105E80001DC0DBFF050E1EC0DBFFD950040FE96EFD
:105E9000DACFEAFFEE50ED1007E1010EF36E040ECB
:105EA000F3CFDBFF050EDB6A4AD0060EDBCF2BF00B
:105EB000070EDBCF2CF0C7512F6E306A1D681E68AD
:105EC0002FC022F030C023F0CEEC37F01BC02DF0F5
:105ED0001CC02EF02C502E18E8AE02D02E3404D068
:105EE0002D502B5C2E502C5823E20201C6512B6EF4
:105EF0002C6A060EDBCF1DF0070EDBCF1EF02BC089
:105F000022F02CC023F0A8EC37F0040E1DC0DBFFFC
:105F1000050E1EC0DBFFD950040FE96EDACFEAFF91
:105F2000EE50ED1004E1040EDB68050EDB6807D0CF
:105F3000040EDB6A050EDB6A020E03010127C8C2EC
:105F40002DF02E6A2DBE2E682DC01DF02EC01EF025
:105F5000040EDBCF22F0050EDBCF23F0CEEC37F0C2
:105F60001BC02BF01CC02CF0D9CFE9FFDACFEAFF21
:105F70002B50EE262C50ED22DECF2BF0DDCF2CF077
:105F80000201C35100012CAE02D0D89003D02B5C8B
:105F9000000E2C5805E20201C351DE6EDD6A16D0F8
:105FA000DECF2BF0DDCF2CF00201C5512D6E2E6A15
:105FB0002E502C18E8AE02D02C3404D02B502D5C7F
:105FC0002C502E5803E2C551DE6EDD6ADFCFD6F2CB
:105FD000D6C2E6FF9CDAE5520201D751E66ED950EF
:105FE000020FE96EDACFEAFFE552E750EE6EED6A96
:105FF000020101512D6E2E6A0201D2512F6E306ABC
:106000002F502D5C2B6E30502E582C6E080E2BC04E
:10601000DBFF090E2CC0DBFF080EDBCF2BF0090ED7
:10602000DBCF2CF0CF512D6E2E6A2E502C18E8AEFF
:1060300002D02C3404D02B502D5C2C502E5825E24D
:10604000CE512B6E2C6A080EDBCF1DF0090EDBCF74
:106050001EF02BC022F02CC023F0A8EC37F0040E69
:106060001DC0DBFF050E1EC0DBFFD950040FE96E1B
:10607000DACFEAFFEE50ED1007E1010EF36E040EE9
:10608000F3CFDBFF050EDB6A4AD0080EDBCF2BF027
:10609000090EDBCF2CF0CF512F6E306A1D681E68C1
:1060A0002FC022F030C023F0CEEC37F01BC02DF013
:1060B0001CC02EF02C502E18E8AE02D02E3404D086
:1060C0002D502B5C2E502C5823E20201CE512B6E0A
:1060D0002C6A080EDBCF1DF0090EDBCF1EF02BC0A3
:1060E00022F02CC023F0A8EC37F0040E1DC0DBFF1B
:1060F000050E1EC0DBFFD950040FE96EDACFEAFFB0
:10610000EE50ED1004E1040EDB68050EDB6807D0ED
:10611000040EDB6A050EDB6A040E03010127D0C200
:106120002DF02E6A2DBE2E682DC01DF02EC01EF043
:10613000040EDBCF22F0050EDBCF23F0CEEC37F0E0
:106140001BC02BF01CC02CF0D950020FE96EDACF27
:10615000EAFF2B50EE262C50ED22020EDBCF2BF067
:10616000030EDBCF2CF00201CB5100012CAE02D08C
:10617000D89003D02B5C000E2C580DE20201CB51BD
:10618000E66ED950020FE96EDACFEAFFE552E7502A
:10619000EE6EED6A20D0020EDBCF2BF0030EDBCFCC
:1061A0002CF00201CD512D6E2E6A2E502C18E8AE27
:1061B00002D02C3404D02B502D5C2C502E580BE2E6
:1061C000CD51E66ED950020FE96EDACFEAFFE55203
:1061D000E750EE6EED6A020EDBCFD7F2D7C2E6FFD4
:1061E000A1D9E552A9D00301052B0201D351030126
:1061F000D880055501E3A0D0056B040511E1046BBF
:106200000201C351DE6EDD6ACC51E66ED950020F39
:10621000E96EDACFEAFFE552E750EE6EED6A7FD025
:106220000201D651DE6EDD6AD751E66ED950020FFB
:10623000E96EDACFEAFFE552E750EE6EED6ADECFA7
:106240002BF0DDCF2CF0C55100012CAE02D0D89040
:1062500003D02B5C000E2C584BE30201C351DE6EC1
:10626000DD6A020EDBCF2BF0030EDBCF2CF0CD511D
:1062700000012CAE02D0D89003D02B5C000E2C581D
:106280000DE30201CB51E66ED950020FE96EDACF71
:10629000EAFFE552E750EE6EED6A29D00201D151D6
:1062A0002B6E2C6AD950020FE96EDACFEAFF2B5021
:1062B000EE262C50ED22020EDBCF2BF0030EDBCFAF
:1062C0002CF0CD5100012CAE02D0D89003D02B5C25
:1062D000000E2C580CE30201CD51E66ED950020F8E
